{
	"Voting.sol": {
		"Voting": {
			"abi": [
				{
					"inputs": [
						{
							"internalType": "uint256",
							"name": "_startTime",
							"type": "uint256"
						},
						{
							"internalType": "uint256",
							"name": "_endTime",
							"type": "uint256"
						},
						{
							"internalType": "uint256[]",
							"name": "_candidateIds",
							"type": "uint256[]"
						},
						{
							"internalType": "string[]",
							"name": "_candidateNames",
							"type": "string[]"
						}
					],
					"stateMutability": "nonpayable",
					"type": "constructor"
				},
				{
					"anonymous": false,
					"inputs": [
						{
							"indexed": false,
							"internalType": "string",
							"name": "name",
							"type": "string"
						},
						{
							"indexed": false,
							"internalType": "uint256",
							"name": "id",
							"type": "uint256"
						}
					],
					"name": "CandidateAdded",
					"type": "event"
				},
				{
					"anonymous": false,
					"inputs": [
						{
							"indexed": false,
							"internalType": "bool",
							"name": "valid",
							"type": "bool"
						}
					],
					"name": "IsValid",
					"type": "event"
				},
				{
					"anonymous": false,
					"inputs": [
						{
							"indexed": false,
							"internalType": "address",
							"name": "voter",
							"type": "address"
						}
					],
					"name": "VoteRegistered",
					"type": "event"
				},
				{
					"inputs": [],
					"name": "getBlankVotes",
					"outputs": [
						{
							"internalType": "uint256",
							"name": "",
							"type": "uint256"
						}
					],
					"stateMutability": "view",
					"type": "function"
				},
				{
					"inputs": [
						{
							"internalType": "uint256",
							"name": "_id",
							"type": "uint256"
						}
					],
					"name": "getCandidateName",
					"outputs": [
						{
							"internalType": "string",
							"name": "",
							"type": "string"
						}
					],
					"stateMutability": "view",
					"type": "function"
				},
				{
					"inputs": [],
					"name": "getCandidates",
					"outputs": [
						{
							"internalType": "string",
							"name": "",
							"type": "string"
						}
					],
					"stateMutability": "view",
					"type": "function"
				},
				{
					"inputs": [],
					"name": "getNullVotes",
					"outputs": [
						{
							"internalType": "uint256",
							"name": "",
							"type": "uint256"
						}
					],
					"stateMutability": "view",
					"type": "function"
				},
				{
					"inputs": [
						{
							"internalType": "uint256",
							"name": "_candidateId",
							"type": "uint256"
						}
					],
					"name": "getVoteCount",
					"outputs": [
						{
							"internalType": "uint256",
							"name": "",
							"type": "uint256"
						}
					],
					"stateMutability": "view",
					"type": "function"
				},
				{
					"inputs": [],
					"name": "isOpen",
					"outputs": [
						{
							"internalType": "bool",
							"name": "",
							"type": "bool"
						}
					],
					"stateMutability": "view",
					"type": "function"
				},
				{
					"inputs": [
						{
							"internalType": "uint256",
							"name": "_id",
							"type": "uint256"
						}
					],
					"name": "isValid",
					"outputs": [
						{
							"internalType": "bool",
							"name": "",
							"type": "bool"
						}
					],
					"stateMutability": "view",
					"type": "function"
				},
				{
					"inputs": [
						{
							"internalType": "uint256",
							"name": "_candidateId",
							"type": "uint256"
						}
					],
					"name": "vote",
					"outputs": [],
					"stateMutability": "nonpayable",
					"type": "function"
				}
			],
			"devdoc": {
				"kind": "dev",
				"methods": {},
				"version": 1
			},
			"evm": {
				"assembly": "    /* \"Voting.sol\":65:6032  contract Voting {... */\n  mstore(0x40, 0x80)\n    /* \"Voting.sol\":2193:2565  constructor(uint _startTime, uint _endTime, uint[] memory _candidateIds, string[] memory _candidateNames) {... */\n  callvalue\n  dup1\n  iszero\n  tag_1\n  jumpi\n  0x00\n  dup1\n  revert\ntag_1:\n  pop\n  mload(0x40)\n  sub(codesize, bytecodeSize)\n  dup1\n  bytecodeSize\n  dup4\n  codecopy\n  dup2\n  dup2\n  add\n  0x40\n  mstore\n  dup2\n  add\n  swap1\n  tag_2\n  swap2\n  swap1\n  tag_3\n  jump\t// in\ntag_2:\n    /* \"Voting.sol\":2341:2356  _candidateNames */\n  dup1\n    /* \"Voting.sol\":2341:2363  _candidateNames.length */\n  mload\n    /* \"Voting.sol\":2317:2330  _candidateIds */\n  dup3\n    /* \"Voting.sol\":2317:2337  _candidateIds.length */\n  mload\n    /* \"Voting.sol\":2317:2363  _candidateIds.length == _candidateNames.length */\n  eq\n    /* \"Voting.sol\":2309:2364  require(_candidateIds.length == _candidateNames.length) */\n  tag_6\n  jumpi\n  0x00\n  dup1\n  revert\ntag_6:\n    /* \"Voting.sol\":2387:2397  _startTime */\n  dup4\n    /* \"Voting.sol\":2375:2384  startTime */\n  0x05\n    /* \"Voting.sol\":2375:2397  startTime = _startTime */\n  dup2\n  swap1\n  sstore\n  pop\n    /* \"Voting.sol\":2417:2425  _endTime */\n  dup3\n    /* \"Voting.sol\":2407:2414  endTime */\n  0x06\n    /* \"Voting.sol\":2407:2425  endTime = _endTime */\n  dup2\n  swap1\n  sstore\n  pop\n    /* \"Voting.sol\":2441:2447  uint i */\n  0x00\n    /* \"Voting.sol\":2436:2559  for (uint i = 0; i < _candidateIds.length; i++) {... */\ntag_7:\n    /* \"Voting.sol\":2457:2470  _candidateIds */\n  dup3\n    /* \"Voting.sol\":2457:2477  _candidateIds.length */\n  mload\n    /* \"Voting.sol\":2453:2454  i */\n  dup2\n    /* \"Voting.sol\":2453:2477  i < _candidateIds.length */\n  lt\n    /* \"Voting.sol\":2436:2559  for (uint i = 0; i < _candidateIds.length; i++) {... */\n  iszero\n  tag_8\n  jumpi\n    /* \"Voting.sol\":2498:2548  addCandidate(_candidateIds[i], _candidateNames[i]) */\n  tag_10\n    /* \"Voting.sol\":2511:2524  _candidateIds */\n  dup4\n    /* \"Voting.sol\":2525:2526  i */\n  dup3\n    /* \"Voting.sol\":2511:2527  _candidateIds[i] */\n  dup2\n  mload\n  dup2\n  lt\n  tag_11\n  jumpi\n  tag_12\n  tag_13\n  jump\t// in\ntag_12:\ntag_11:\n  0x20\n  mul\n  0x20\n  add\n  add\n  mload\n    /* \"Voting.sol\":2529:2544  _candidateNames */\n  dup4\n    /* \"Voting.sol\":2545:2546  i */\n  dup4\n    /* \"Voting.sol\":2529:2547  _candidateNames[i] */\n  dup2\n  mload\n  dup2\n  lt\n  tag_14\n  jumpi\n  tag_15\n  tag_13\n  jump\t// in\ntag_15:\ntag_14:\n  0x20\n  mul\n  0x20\n  add\n  add\n  mload\n    /* \"Voting.sol\":2498:2510  addCandidate */\n  shl(0x20, tag_16)\n    /* \"Voting.sol\":2498:2548  addCandidate(_candidateIds[i], _candidateNames[i]) */\n  0x20\n  shr\n  jump\t// in\ntag_10:\n    /* \"Voting.sol\":2479:2482  i++ */\n  dup1\n  dup1\n  tag_17\n  swap1\n  tag_18\n  jump\t// in\ntag_17:\n  swap2\n  pop\n  pop\n    /* \"Voting.sol\":2436:2559  for (uint i = 0; i < _candidateIds.length; i++) {... */\n  jump(tag_7)\ntag_8:\n  pop\n    /* \"Voting.sol\":2193:2565  constructor(uint _startTime, uint _endTime, uint[] memory _candidateIds, string[] memory _candidateNames) {... */\n  pop\n  pop\n  pop\n  pop\n    /* \"Voting.sol\":65:6032  contract Voting {... */\n  jump(tag_19)\n    /* \"Voting.sol\":2613:2807  function addCandidate (uint _id, string memory _name) private {... */\ntag_16:\n    /* \"Voting.sol\":2703:2727  Candidate(_id, _name, 0) */\n  mload(0x40)\n  dup1\n  0x60\n  add\n  0x40\n  mstore\n  dup1\n    /* \"Voting.sol\":2713:2716  _id */\n  dup4\n    /* \"Voting.sol\":2703:2727  Candidate(_id, _name, 0) */\n  dup2\n  mstore\n  0x20\n  add\n    /* \"Voting.sol\":2718:2723  _name */\n  dup3\n    /* \"Voting.sol\":2703:2727  Candidate(_id, _name, 0) */\n  dup2\n  mstore\n  0x20\n  add\n    /* \"Voting.sol\":2725:2726  0 */\n  0x00\n    /* \"Voting.sol\":2703:2727  Candidate(_id, _name, 0) */\n  dup2\n  mstore\n  pop\n    /* \"Voting.sol\":2685:2695  candidates */\n  0x01\n    /* \"Voting.sol\":2685:2700  candidates[_id] */\n  0x00\n    /* \"Voting.sol\":2696:2699  _id */\n  dup5\n    /* \"Voting.sol\":2685:2700  candidates[_id] */\n  dup2\n  mstore\n  0x20\n  add\n  swap1\n  dup2\n  mstore\n  0x20\n  add\n  0x00\n  keccak256\n    /* \"Voting.sol\":2685:2727  candidates[_id] = Candidate(_id, _name, 0) */\n  0x00\n  dup3\n  add\n  mload\n  dup2\n  0x00\n  add\n  sstore\n  0x20\n  dup3\n  add\n  mload\n  dup2\n  0x01\n  add\n  swap1\n  dup2\n  tag_21\n  swap2\n  swap1\n  tag_22\n  jump\t// in\ntag_21:\n  pop\n  0x40\n  dup3\n  add\n  mload\n  dup2\n  0x02\n  add\n  sstore\n  swap1\n  pop\n  pop\n    /* \"Voting.sol\":2737:2749  candidateIds */\n  0x02\n    /* \"Voting.sol\":2755:2758  _id */\n  dup3\n    /* \"Voting.sol\":2737:2759  candidateIds.push(_id) */\n  swap1\n  dup1\n  0x01\n  dup2\n  sload\n  add\n  dup1\n  dup3\n  sstore\n  dup1\n  swap2\n  pop\n  pop\n  0x01\n  swap1\n  sub\n  swap1\n  0x00\n  mstore\n  keccak256(0x00, 0x20)\n  add\n  0x00\n  swap1\n  swap2\n  swap1\n  swap2\n  swap1\n  swap2\n  pop\n  sstore\n    /* \"Voting.sol\":2774:2800  CandidateAdded(_name, _id) */\n  0xa89e28469fa9e15d5149634a9ce8d8dd59ec42c18ba2d281b08c305f2095acef\n    /* \"Voting.sol\":2789:2794  _name */\n  dup2\n    /* \"Voting.sol\":2796:2799  _id */\n  dup4\n    /* \"Voting.sol\":2774:2800  CandidateAdded(_name, _id) */\n  mload(0x40)\n  tag_24\n  swap3\n  swap2\n  swap1\n  tag_25\n  jump\t// in\ntag_24:\n  mload(0x40)\n  dup1\n  swap2\n  sub\n  swap1\n  log1\n    /* \"Voting.sol\":2613:2807  function addCandidate (uint _id, string memory _name) private {... */\n  pop\n  pop\n  jump\t// out\n    /* \"#utility.yul\":7:82   */\ntag_26:\n    /* \"#utility.yul\":40:46   */\n  0x00\n    /* \"#utility.yul\":73:75   */\n  0x40\n    /* \"#utility.yul\":67:76   */\n  mload\n    /* \"#utility.yul\":57:76   */\n  swap1\n  pop\n    /* \"#utility.yul\":7:82   */\n  swap1\n  jump\t// out\n    /* \"#utility.yul\":88:205   */\ntag_27:\n    /* \"#utility.yul\":197:198   */\n  0x00\n    /* \"#utility.yul\":194:195   */\n  dup1\n    /* \"#utility.yul\":187:199   */\n  revert\n    /* \"#utility.yul\":211:328   */\ntag_28:\n    /* \"#utility.yul\":320:321   */\n  0x00\n    /* \"#utility.yul\":317:318   */\n  dup1\n    /* \"#utility.yul\":310:322   */\n  revert\n    /* \"#utility.yul\":334:411   */\ntag_29:\n    /* \"#utility.yul\":371:378   */\n  0x00\n    /* \"#utility.yul\":400:405   */\n  dup2\n    /* \"#utility.yul\":389:405   */\n  swap1\n  pop\n    /* \"#utility.yul\":334:411   */\n  swap2\n  swap1\n  pop\n  jump\t// out\n    /* \"#utility.yul\":417:539   */\ntag_30:\n    /* \"#utility.yul\":490:514   */\n  tag_77\n    /* \"#utility.yul\":508:513   */\n  dup2\n    /* \"#utility.yul\":490:514   */\n  tag_29\n  jump\t// in\ntag_77:\n    /* \"#utility.yul\":483:488   */\n  dup2\n    /* \"#utility.yul\":480:515   */\n  eq\n    /* \"#utility.yul\":470:533   */\n  tag_78\n  jumpi\n    /* \"#utility.yul\":529:530   */\n  0x00\n    /* \"#utility.yul\":526:527   */\n  dup1\n    /* \"#utility.yul\":519:531   */\n  revert\n    /* \"#utility.yul\":470:533   */\ntag_78:\n    /* \"#utility.yul\":417:539   */\n  pop\n  jump\t// out\n    /* \"#utility.yul\":545:688   */\ntag_31:\n    /* \"#utility.yul\":602:607   */\n  0x00\n    /* \"#utility.yul\":633:639   */\n  dup2\n    /* \"#utility.yul\":627:640   */\n  mload\n    /* \"#utility.yul\":618:640   */\n  swap1\n  pop\n    /* \"#utility.yul\":649:682   */\n  tag_80\n    /* \"#utility.yul\":676:681   */\n  dup2\n    /* \"#utility.yul\":649:682   */\n  tag_30\n  jump\t// in\ntag_80:\n    /* \"#utility.yul\":545:688   */\n  swap3\n  swap2\n  pop\n  pop\n  jump\t// out\n    /* \"#utility.yul\":694:811   */\ntag_32:\n    /* \"#utility.yul\":803:804   */\n  0x00\n    /* \"#utility.yul\":800:801   */\n  dup1\n    /* \"#utility.yul\":793:805   */\n  revert\n    /* \"#utility.yul\":817:919   */\ntag_33:\n    /* \"#utility.yul\":858:864   */\n  0x00\n    /* \"#utility.yul\":909:911   */\n  0x1f\n    /* \"#utility.yul\":905:912   */\n  not\n    /* \"#utility.yul\":900:902   */\n  0x1f\n    /* \"#utility.yul\":893:898   */\n  dup4\n    /* \"#utility.yul\":889:903   */\n  add\n    /* \"#utility.yul\":885:913   */\n  and\n    /* \"#utility.yul\":875:913   */\n  swap1\n  pop\n    /* \"#utility.yul\":817:919   */\n  swap2\n  swap1\n  pop\n  jump\t// out\n    /* \"#utility.yul\":925:1105   */\ntag_34:\n    /* \"#utility.yul\":973:1050   */\n  0x4e487b7100000000000000000000000000000000000000000000000000000000\n    /* \"#utility.yul\":970:971   */\n  0x00\n    /* \"#utility.yul\":963:1051   */\n  mstore\n    /* \"#utility.yul\":1070:1074   */\n  0x41\n    /* \"#utility.yul\":1067:1068   */\n  0x04\n    /* \"#utility.yul\":1060:1075   */\n  mstore\n    /* \"#utility.yul\":1094:1098   */\n  0x24\n    /* \"#utility.yul\":1091:1092   */\n  0x00\n    /* \"#utility.yul\":1084:1099   */\n  revert\n    /* \"#utility.yul\":1111:1392   */\ntag_35:\n    /* \"#utility.yul\":1194:1221   */\n  tag_85\n    /* \"#utility.yul\":1216:1220   */\n  dup3\n    /* \"#utility.yul\":1194:1221   */\n  tag_33\n  jump\t// in\ntag_85:\n    /* \"#utility.yul\":1186:1192   */\n  dup2\n    /* \"#utility.yul\":1182:1222   */\n  add\n    /* \"#utility.yul\":1324:1330   */\n  dup2\n    /* \"#utility.yul\":1312:1322   */\n  dup2\n    /* \"#utility.yul\":1309:1331   */\n  lt\n    /* \"#utility.yul\":1288:1306   */\n  0xffffffffffffffff\n    /* \"#utility.yul\":1276:1286   */\n  dup3\n    /* \"#utility.yul\":1273:1307   */\n  gt\n    /* \"#utility.yul\":1270:1332   */\n  or\n    /* \"#utility.yul\":1267:1355   */\n  iszero\n  tag_86\n  jumpi\n    /* \"#utility.yul\":1335:1353   */\n  tag_87\n  tag_34\n  jump\t// in\ntag_87:\n    /* \"#utility.yul\":1267:1355   */\ntag_86:\n    /* \"#utility.yul\":1375:1385   */\n  dup1\n    /* \"#utility.yul\":1371:1373   */\n  0x40\n    /* \"#utility.yul\":1364:1386   */\n  mstore\n    /* \"#utility.yul\":1154:1392   */\n  pop\n    /* \"#utility.yul\":1111:1392   */\n  pop\n  pop\n  jump\t// out\n    /* \"#utility.yul\":1398:1527   */\ntag_36:\n    /* \"#utility.yul\":1432:1438   */\n  0x00\n    /* \"#utility.yul\":1459:1479   */\n  tag_89\n  tag_26\n  jump\t// in\ntag_89:\n    /* \"#utility.yul\":1449:1479   */\n  swap1\n  pop\n    /* \"#utility.yul\":1488:1521   */\n  tag_90\n    /* \"#utility.yul\":1516:1520   */\n  dup3\n    /* \"#utility.yul\":1508:1514   */\n  dup3\n    /* \"#utility.yul\":1488:1521   */\n  tag_35\n  jump\t// in\ntag_90:\n    /* \"#utility.yul\":1398:1527   */\n  swap2\n  swap1\n  pop\n  jump\t// out\n    /* \"#utility.yul\":1533:1844   */\ntag_37:\n    /* \"#utility.yul\":1610:1614   */\n  0x00\n    /* \"#utility.yul\":1700:1718   */\n  0xffffffffffffffff\n    /* \"#utility.yul\":1692:1698   */\n  dup3\n    /* \"#utility.yul\":1689:1719   */\n  gt\n    /* \"#utility.yul\":1686:1742   */\n  iszero\n  tag_92\n  jumpi\n    /* \"#utility.yul\":1722:1740   */\n  tag_93\n  tag_34\n  jump\t// in\ntag_93:\n    /* \"#utility.yul\":1686:1742   */\ntag_92:\n    /* \"#utility.yul\":1772:1776   */\n  0x20\n    /* \"#utility.yul\":1764:1770   */\n  dup3\n    /* \"#utility.yul\":1760:1777   */\n  mul\n    /* \"#utility.yul\":1752:1777   */\n  swap1\n  pop\n    /* \"#utility.yul\":1832:1836   */\n  0x20\n    /* \"#utility.yul\":1826:1830   */\n  dup2\n    /* \"#utility.yul\":1822:1837   */\n  add\n    /* \"#utility.yul\":1814:1837   */\n  swap1\n  pop\n    /* \"#utility.yul\":1533:1844   */\n  swap2\n  swap1\n  pop\n  jump\t// out\n    /* \"#utility.yul\":1850:1967   */\ntag_38:\n    /* \"#utility.yul\":1959:1960   */\n  0x00\n    /* \"#utility.yul\":1956:1957   */\n  dup1\n    /* \"#utility.yul\":1949:1961   */\n  revert\n    /* \"#utility.yul\":1990:2722   */\ntag_39:\n    /* \"#utility.yul\":2097:2102   */\n  0x00\n    /* \"#utility.yul\":2122:2203   */\n  tag_96\n    /* \"#utility.yul\":2138:2202   */\n  tag_97\n    /* \"#utility.yul\":2195:2201   */\n  dup5\n    /* \"#utility.yul\":2138:2202   */\n  tag_37\n  jump\t// in\ntag_97:\n    /* \"#utility.yul\":2122:2203   */\n  tag_36\n  jump\t// in\ntag_96:\n    /* \"#utility.yul\":2113:2203   */\n  swap1\n  pop\n    /* \"#utility.yul\":2223:2228   */\n  dup1\n    /* \"#utility.yul\":2252:2258   */\n  dup4\n    /* \"#utility.yul\":2245:2250   */\n  dup3\n    /* \"#utility.yul\":2238:2259   */\n  mstore\n    /* \"#utility.yul\":2286:2290   */\n  0x20\n    /* \"#utility.yul\":2279:2284   */\n  dup3\n    /* \"#utility.yul\":2275:2291   */\n  add\n    /* \"#utility.yul\":2268:2291   */\n  swap1\n  pop\n    /* \"#utility.yul\":2339:2343   */\n  0x20\n    /* \"#utility.yul\":2331:2337   */\n  dup5\n    /* \"#utility.yul\":2327:2344   */\n  mul\n    /* \"#utility.yul\":2319:2325   */\n  dup4\n    /* \"#utility.yul\":2315:2345   */\n  add\n    /* \"#utility.yul\":2368:2371   */\n  dup6\n    /* \"#utility.yul\":2360:2366   */\n  dup2\n    /* \"#utility.yul\":2357:2372   */\n  gt\n    /* \"#utility.yul\":2354:2476   */\n  iszero\n  tag_98\n  jumpi\n    /* \"#utility.yul\":2387:2466   */\n  tag_99\n  tag_38\n  jump\t// in\ntag_99:\n    /* \"#utility.yul\":2354:2476   */\ntag_98:\n    /* \"#utility.yul\":2502:2508   */\n  dup4\n    /* \"#utility.yul\":2485:2716   */\ntag_100:\n    /* \"#utility.yul\":2519:2525   */\n  dup2\n    /* \"#utility.yul\":2514:2517   */\n  dup2\n    /* \"#utility.yul\":2511:2526   */\n  lt\n    /* \"#utility.yul\":2485:2716   */\n  iszero\n  tag_102\n  jumpi\n    /* \"#utility.yul\":2594:2597   */\n  dup1\n    /* \"#utility.yul\":2623:2671   */\n  tag_103\n    /* \"#utility.yul\":2667:2670   */\n  dup9\n    /* \"#utility.yul\":2655:2665   */\n  dup3\n    /* \"#utility.yul\":2623:2671   */\n  tag_31\n  jump\t// in\ntag_103:\n    /* \"#utility.yul\":2618:2621   */\n  dup5\n    /* \"#utility.yul\":2611:2672   */\n  mstore\n    /* \"#utility.yul\":2701:2705   */\n  0x20\n    /* \"#utility.yul\":2696:2699   */\n  dup5\n    /* \"#utility.yul\":2692:2706   */\n  add\n    /* \"#utility.yul\":2685:2706   */\n  swap4\n  pop\n    /* \"#utility.yul\":2561:2716   */\n  pop\n    /* \"#utility.yul\":2545:2549   */\n  0x20\n    /* \"#utility.yul\":2540:2543   */\n  dup2\n    /* \"#utility.yul\":2536:2550   */\n  add\n    /* \"#utility.yul\":2529:2550   */\n  swap1\n  pop\n    /* \"#utility.yul\":2485:2716   */\n  jump(tag_100)\ntag_102:\n    /* \"#utility.yul\":2489:2510   */\n  pop\n    /* \"#utility.yul\":2103:2722   */\n  pop\n  pop\n    /* \"#utility.yul\":1990:2722   */\n  swap4\n  swap3\n  pop\n  pop\n  pop\n  jump\t// out\n    /* \"#utility.yul\":2745:3130   */\ntag_40:\n    /* \"#utility.yul\":2827:2832   */\n  0x00\n    /* \"#utility.yul\":2876:2879   */\n  dup3\n    /* \"#utility.yul\":2869:2873   */\n  0x1f\n    /* \"#utility.yul\":2861:2867   */\n  dup4\n    /* \"#utility.yul\":2857:2874   */\n  add\n    /* \"#utility.yul\":2853:2880   */\n  slt\n    /* \"#utility.yul\":2843:2965   */\n  tag_105\n  jumpi\n    /* \"#utility.yul\":2884:2963   */\n  tag_106\n  tag_32\n  jump\t// in\ntag_106:\n    /* \"#utility.yul\":2843:2965   */\ntag_105:\n    /* \"#utility.yul\":2994:3000   */\n  dup2\n    /* \"#utility.yul\":2988:3001   */\n  mload\n    /* \"#utility.yul\":3019:3124   */\n  tag_107\n    /* \"#utility.yul\":3120:3123   */\n  dup5\n    /* \"#utility.yul\":3112:3118   */\n  dup3\n    /* \"#utility.yul\":3105:3109   */\n  0x20\n    /* \"#utility.yul\":3097:3103   */\n  dup7\n    /* \"#utility.yul\":3093:3110   */\n  add\n    /* \"#utility.yul\":3019:3124   */\n  tag_39\n  jump\t// in\ntag_107:\n    /* \"#utility.yul\":3010:3124   */\n  swap2\n  pop\n    /* \"#utility.yul\":2833:3130   */\n  pop\n    /* \"#utility.yul\":2745:3130   */\n  swap3\n  swap2\n  pop\n  pop\n  jump\t// out\n    /* \"#utility.yul\":3136:3457   */\ntag_41:\n    /* \"#utility.yul\":3223:3227   */\n  0x00\n    /* \"#utility.yul\":3313:3331   */\n  0xffffffffffffffff\n    /* \"#utility.yul\":3305:3311   */\n  dup3\n    /* \"#utility.yul\":3302:3332   */\n  gt\n    /* \"#utility.yul\":3299:3355   */\n  iszero\n  tag_109\n  jumpi\n    /* \"#utility.yul\":3335:3353   */\n  tag_110\n  tag_34\n  jump\t// in\ntag_110:\n    /* \"#utility.yul\":3299:3355   */\ntag_109:\n    /* \"#utility.yul\":3385:3389   */\n  0x20\n    /* \"#utility.yul\":3377:3383   */\n  dup3\n    /* \"#utility.yul\":3373:3390   */\n  mul\n    /* \"#utility.yul\":3365:3390   */\n  swap1\n  pop\n    /* \"#utility.yul\":3445:3449   */\n  0x20\n    /* \"#utility.yul\":3439:3443   */\n  dup2\n    /* \"#utility.yul\":3435:3450   */\n  add\n    /* \"#utility.yul\":3427:3450   */\n  swap1\n  pop\n    /* \"#utility.yul\":3136:3457   */\n  swap2\n  swap1\n  pop\n  jump\t// out\n    /* \"#utility.yul\":3463:3580   */\ntag_42:\n    /* \"#utility.yul\":3572:3573   */\n  0x00\n    /* \"#utility.yul\":3569:3570   */\n  dup1\n    /* \"#utility.yul\":3562:3574   */\n  revert\n    /* \"#utility.yul\":3586:3894   */\ntag_43:\n    /* \"#utility.yul\":3648:3652   */\n  0x00\n    /* \"#utility.yul\":3738:3756   */\n  0xffffffffffffffff\n    /* \"#utility.yul\":3730:3736   */\n  dup3\n    /* \"#utility.yul\":3727:3757   */\n  gt\n    /* \"#utility.yul\":3724:3780   */\n  iszero\n  tag_113\n  jumpi\n    /* \"#utility.yul\":3760:3778   */\n  tag_114\n  tag_34\n  jump\t// in\ntag_114:\n    /* \"#utility.yul\":3724:3780   */\ntag_113:\n    /* \"#utility.yul\":3798:3827   */\n  tag_115\n    /* \"#utility.yul\":3820:3826   */\n  dup3\n    /* \"#utility.yul\":3798:3827   */\n  tag_33\n  jump\t// in\ntag_115:\n    /* \"#utility.yul\":3790:3827   */\n  swap1\n  pop\n    /* \"#utility.yul\":3882:3886   */\n  0x20\n    /* \"#utility.yul\":3876:3880   */\n  dup2\n    /* \"#utility.yul\":3872:3887   */\n  add\n    /* \"#utility.yul\":3864:3887   */\n  swap1\n  pop\n    /* \"#utility.yul\":3586:3894   */\n  swap2\n  swap1\n  pop\n  jump\t// out\n    /* \"#utility.yul\":3900:4146   */\ntag_44:\n    /* \"#utility.yul\":3981:3982   */\n  0x00\n    /* \"#utility.yul\":3991:4104   */\ntag_117:\n    /* \"#utility.yul\":4005:4011   */\n  dup4\n    /* \"#utility.yul\":4002:4003   */\n  dup2\n    /* \"#utility.yul\":3999:4012   */\n  lt\n    /* \"#utility.yul\":3991:4104   */\n  iszero\n  tag_119\n  jumpi\n    /* \"#utility.yul\":4090:4091   */\n  dup1\n    /* \"#utility.yul\":4085:4088   */\n  dup3\n    /* \"#utility.yul\":4081:4092   */\n  add\n    /* \"#utility.yul\":4075:4093   */\n  mload\n    /* \"#utility.yul\":4071:4072   */\n  dup2\n    /* \"#utility.yul\":4066:4069   */\n  dup5\n    /* \"#utility.yul\":4062:4073   */\n  add\n    /* \"#utility.yul\":4055:4094   */\n  mstore\n    /* \"#utility.yul\":4027:4029   */\n  0x20\n    /* \"#utility.yul\":4024:4025   */\n  dup2\n    /* \"#utility.yul\":4020:4030   */\n  add\n    /* \"#utility.yul\":4015:4030   */\n  swap1\n  pop\n    /* \"#utility.yul\":3991:4104   */\n  jump(tag_117)\ntag_119:\n    /* \"#utility.yul\":4138:4139   */\n  0x00\n    /* \"#utility.yul\":4129:4135   */\n  dup5\n    /* \"#utility.yul\":4124:4127   */\n  dup5\n    /* \"#utility.yul\":4120:4136   */\n  add\n    /* \"#utility.yul\":4113:4140   */\n  mstore\n    /* \"#utility.yul\":3962:4146   */\n  pop\n    /* \"#utility.yul\":3900:4146   */\n  pop\n  pop\n  pop\n  jump\t// out\n    /* \"#utility.yul\":4152:4586   */\ntag_45:\n    /* \"#utility.yul\":4241:4246   */\n  0x00\n    /* \"#utility.yul\":4266:4332   */\n  tag_121\n    /* \"#utility.yul\":4282:4331   */\n  tag_122\n    /* \"#utility.yul\":4324:4330   */\n  dup5\n    /* \"#utility.yul\":4282:4331   */\n  tag_43\n  jump\t// in\ntag_122:\n    /* \"#utility.yul\":4266:4332   */\n  tag_36\n  jump\t// in\ntag_121:\n    /* \"#utility.yul\":4257:4332   */\n  swap1\n  pop\n    /* \"#utility.yul\":4355:4361   */\n  dup3\n    /* \"#utility.yul\":4348:4353   */\n  dup2\n    /* \"#utility.yul\":4341:4362   */\n  mstore\n    /* \"#utility.yul\":4393:4397   */\n  0x20\n    /* \"#utility.yul\":4386:4391   */\n  dup2\n    /* \"#utility.yul\":4382:4398   */\n  add\n    /* \"#utility.yul\":4431:4434   */\n  dup5\n    /* \"#utility.yul\":4422:4428   */\n  dup5\n    /* \"#utility.yul\":4417:4420   */\n  dup5\n    /* \"#utility.yul\":4413:4429   */\n  add\n    /* \"#utility.yul\":4410:4435   */\n  gt\n    /* \"#utility.yul\":4407:4519   */\n  iszero\n  tag_123\n  jumpi\n    /* \"#utility.yul\":4438:4517   */\n  tag_124\n  tag_42\n  jump\t// in\ntag_124:\n    /* \"#utility.yul\":4407:4519   */\ntag_123:\n    /* \"#utility.yul\":4528:4580   */\n  tag_125\n    /* \"#utility.yul\":4573:4579   */\n  dup5\n    /* \"#utility.yul\":4568:4571   */\n  dup3\n    /* \"#utility.yul\":4563:4566   */\n  dup6\n    /* \"#utility.yul\":4528:4580   */\n  tag_44\n  jump\t// in\ntag_125:\n    /* \"#utility.yul\":4247:4586   */\n  pop\n    /* \"#utility.yul\":4152:4586   */\n  swap4\n  swap3\n  pop\n  pop\n  pop\n  jump\t// out\n    /* \"#utility.yul\":4606:4961   */\ntag_46:\n    /* \"#utility.yul\":4673:4678   */\n  0x00\n    /* \"#utility.yul\":4722:4725   */\n  dup3\n    /* \"#utility.yul\":4715:4719   */\n  0x1f\n    /* \"#utility.yul\":4707:4713   */\n  dup4\n    /* \"#utility.yul\":4703:4720   */\n  add\n    /* \"#utility.yul\":4699:4726   */\n  slt\n    /* \"#utility.yul\":4689:4811   */\n  tag_127\n  jumpi\n    /* \"#utility.yul\":4730:4809   */\n  tag_128\n  tag_32\n  jump\t// in\ntag_128:\n    /* \"#utility.yul\":4689:4811   */\ntag_127:\n    /* \"#utility.yul\":4840:4846   */\n  dup2\n    /* \"#utility.yul\":4834:4847   */\n  mload\n    /* \"#utility.yul\":4865:4955   */\n  tag_129\n    /* \"#utility.yul\":4951:4954   */\n  dup5\n    /* \"#utility.yul\":4943:4949   */\n  dup3\n    /* \"#utility.yul\":4936:4940   */\n  0x20\n    /* \"#utility.yul\":4928:4934   */\n  dup7\n    /* \"#utility.yul\":4924:4941   */\n  add\n    /* \"#utility.yul\":4865:4955   */\n  tag_45\n  jump\t// in\ntag_129:\n    /* \"#utility.yul\":4856:4955   */\n  swap2\n  pop\n    /* \"#utility.yul\":4679:4961   */\n  pop\n    /* \"#utility.yul\":4606:4961   */\n  swap3\n  swap2\n  pop\n  pop\n  jump\t// out\n    /* \"#utility.yul\":4983:5943   */\ntag_47:\n    /* \"#utility.yul\":5100:5105   */\n  0x00\n    /* \"#utility.yul\":5125:5216   */\n  tag_131\n    /* \"#utility.yul\":5141:5215   */\n  tag_132\n    /* \"#utility.yul\":5208:5214   */\n  dup5\n    /* \"#utility.yul\":5141:5215   */\n  tag_41\n  jump\t// in\ntag_132:\n    /* \"#utility.yul\":5125:5216   */\n  tag_36\n  jump\t// in\ntag_131:\n    /* \"#utility.yul\":5116:5216   */\n  swap1\n  pop\n    /* \"#utility.yul\":5236:5241   */\n  dup1\n    /* \"#utility.yul\":5265:5271   */\n  dup4\n    /* \"#utility.yul\":5258:5263   */\n  dup3\n    /* \"#utility.yul\":5251:5272   */\n  mstore\n    /* \"#utility.yul\":5299:5303   */\n  0x20\n    /* \"#utility.yul\":5292:5297   */\n  dup3\n    /* \"#utility.yul\":5288:5304   */\n  add\n    /* \"#utility.yul\":5281:5304   */\n  swap1\n  pop\n    /* \"#utility.yul\":5352:5356   */\n  0x20\n    /* \"#utility.yul\":5344:5350   */\n  dup5\n    /* \"#utility.yul\":5340:5357   */\n  mul\n    /* \"#utility.yul\":5332:5338   */\n  dup4\n    /* \"#utility.yul\":5328:5358   */\n  add\n    /* \"#utility.yul\":5381:5384   */\n  dup6\n    /* \"#utility.yul\":5373:5379   */\n  dup2\n    /* \"#utility.yul\":5370:5385   */\n  gt\n    /* \"#utility.yul\":5367:5489   */\n  iszero\n  tag_133\n  jumpi\n    /* \"#utility.yul\":5400:5479   */\n  tag_134\n  tag_38\n  jump\t// in\ntag_134:\n    /* \"#utility.yul\":5367:5489   */\ntag_133:\n    /* \"#utility.yul\":5515:5521   */\n  dup4\n    /* \"#utility.yul\":5498:5937   */\ntag_135:\n    /* \"#utility.yul\":5532:5538   */\n  dup2\n    /* \"#utility.yul\":5527:5530   */\n  dup2\n    /* \"#utility.yul\":5524:5539   */\n  lt\n    /* \"#utility.yul\":5498:5937   */\n  iszero\n  tag_137\n  jumpi\n    /* \"#utility.yul\":5614:5617   */\n  dup1\n    /* \"#utility.yul\":5608:5618   */\n  mload\n    /* \"#utility.yul\":5650:5668   */\n  0xffffffffffffffff\n    /* \"#utility.yul\":5637:5648   */\n  dup2\n    /* \"#utility.yul\":5634:5669   */\n  gt\n    /* \"#utility.yul\":5631:5753   */\n  iszero\n  tag_138\n  jumpi\n    /* \"#utility.yul\":5672:5751   */\n  tag_139\n  tag_32\n  jump\t// in\ntag_139:\n    /* \"#utility.yul\":5631:5753   */\ntag_138:\n    /* \"#utility.yul\":5796:5807   */\n  dup1\n    /* \"#utility.yul\":5788:5794   */\n  dup7\n    /* \"#utility.yul\":5784:5808   */\n  add\n    /* \"#utility.yul\":5834:5892   */\n  tag_140\n    /* \"#utility.yul\":5888:5891   */\n  dup10\n    /* \"#utility.yul\":5876:5886   */\n  dup3\n    /* \"#utility.yul\":5834:5892   */\n  tag_46\n  jump\t// in\ntag_140:\n    /* \"#utility.yul\":5829:5832   */\n  dup6\n    /* \"#utility.yul\":5822:5893   */\n  mstore\n    /* \"#utility.yul\":5922:5926   */\n  0x20\n    /* \"#utility.yul\":5917:5920   */\n  dup6\n    /* \"#utility.yul\":5913:5927   */\n  add\n    /* \"#utility.yul\":5906:5927   */\n  swap5\n  pop\n    /* \"#utility.yul\":5574:5937   */\n  pop\n  pop\n    /* \"#utility.yul\":5558:5562   */\n  0x20\n    /* \"#utility.yul\":5553:5556   */\n  dup2\n    /* \"#utility.yul\":5549:5563   */\n  add\n    /* \"#utility.yul\":5542:5563   */\n  swap1\n  pop\n    /* \"#utility.yul\":5498:5937   */\n  jump(tag_135)\ntag_137:\n    /* \"#utility.yul\":5502:5523   */\n  pop\n    /* \"#utility.yul\":5106:5943   */\n  pop\n  pop\n    /* \"#utility.yul\":4983:5943   */\n  swap4\n  swap3\n  pop\n  pop\n  pop\n  jump\t// out\n    /* \"#utility.yul\":5965:6370   */\ntag_48:\n    /* \"#utility.yul\":6057:6062   */\n  0x00\n    /* \"#utility.yul\":6106:6109   */\n  dup3\n    /* \"#utility.yul\":6099:6103   */\n  0x1f\n    /* \"#utility.yul\":6091:6097   */\n  dup4\n    /* \"#utility.yul\":6087:6104   */\n  add\n    /* \"#utility.yul\":6083:6110   */\n  slt\n    /* \"#utility.yul\":6073:6195   */\n  tag_142\n  jumpi\n    /* \"#utility.yul\":6114:6193   */\n  tag_143\n  tag_32\n  jump\t// in\ntag_143:\n    /* \"#utility.yul\":6073:6195   */\ntag_142:\n    /* \"#utility.yul\":6224:6230   */\n  dup2\n    /* \"#utility.yul\":6218:6231   */\n  mload\n    /* \"#utility.yul\":6249:6364   */\n  tag_144\n    /* \"#utility.yul\":6360:6363   */\n  dup5\n    /* \"#utility.yul\":6352:6358   */\n  dup3\n    /* \"#utility.yul\":6345:6349   */\n  0x20\n    /* \"#utility.yul\":6337:6343   */\n  dup7\n    /* \"#utility.yul\":6333:6350   */\n  add\n    /* \"#utility.yul\":6249:6364   */\n  tag_47\n  jump\t// in\ntag_144:\n    /* \"#utility.yul\":6240:6364   */\n  swap2\n  pop\n    /* \"#utility.yul\":6063:6370   */\n  pop\n    /* \"#utility.yul\":5965:6370   */\n  swap3\n  swap2\n  pop\n  pop\n  jump\t// out\n    /* \"#utility.yul\":6376:7622   */\ntag_3:\n    /* \"#utility.yul\":6533:6539   */\n  0x00\n    /* \"#utility.yul\":6541:6547   */\n  dup1\n    /* \"#utility.yul\":6549:6555   */\n  0x00\n    /* \"#utility.yul\":6557:6563   */\n  dup1\n    /* \"#utility.yul\":6606:6609   */\n  0x80\n    /* \"#utility.yul\":6594:6603   */\n  dup6\n    /* \"#utility.yul\":6585:6592   */\n  dup8\n    /* \"#utility.yul\":6581:6604   */\n  sub\n    /* \"#utility.yul\":6577:6610   */\n  slt\n    /* \"#utility.yul\":6574:6694   */\n  iszero\n  tag_146\n  jumpi\n    /* \"#utility.yul\":6613:6692   */\n  tag_147\n  tag_27\n  jump\t// in\ntag_147:\n    /* \"#utility.yul\":6574:6694   */\ntag_146:\n    /* \"#utility.yul\":6733:6734   */\n  0x00\n    /* \"#utility.yul\":6758:6822   */\n  tag_148\n    /* \"#utility.yul\":6814:6821   */\n  dup8\n    /* \"#utility.yul\":6805:6811   */\n  dup3\n    /* \"#utility.yul\":6794:6803   */\n  dup9\n    /* \"#utility.yul\":6790:6812   */\n  add\n    /* \"#utility.yul\":6758:6822   */\n  tag_31\n  jump\t// in\ntag_148:\n    /* \"#utility.yul\":6748:6822   */\n  swap5\n  pop\n    /* \"#utility.yul\":6704:6832   */\n  pop\n    /* \"#utility.yul\":6871:6873   */\n  0x20\n    /* \"#utility.yul\":6897:6961   */\n  tag_149\n    /* \"#utility.yul\":6953:6960   */\n  dup8\n    /* \"#utility.yul\":6944:6950   */\n  dup3\n    /* \"#utility.yul\":6933:6942   */\n  dup9\n    /* \"#utility.yul\":6929:6951   */\n  add\n    /* \"#utility.yul\":6897:6961   */\n  tag_31\n  jump\t// in\ntag_149:\n    /* \"#utility.yul\":6887:6961   */\n  swap4\n  pop\n    /* \"#utility.yul\":6842:6971   */\n  pop\n    /* \"#utility.yul\":7031:7033   */\n  0x40\n    /* \"#utility.yul\":7020:7029   */\n  dup6\n    /* \"#utility.yul\":7016:7034   */\n  add\n    /* \"#utility.yul\":7010:7035   */\n  mload\n    /* \"#utility.yul\":7062:7080   */\n  0xffffffffffffffff\n    /* \"#utility.yul\":7054:7060   */\n  dup2\n    /* \"#utility.yul\":7051:7081   */\n  gt\n    /* \"#utility.yul\":7048:7165   */\n  iszero\n  tag_150\n  jumpi\n    /* \"#utility.yul\":7084:7163   */\n  tag_151\n  tag_28\n  jump\t// in\ntag_151:\n    /* \"#utility.yul\":7048:7165   */\ntag_150:\n    /* \"#utility.yul\":7189:7278   */\n  tag_152\n    /* \"#utility.yul\":7270:7277   */\n  dup8\n    /* \"#utility.yul\":7261:7267   */\n  dup3\n    /* \"#utility.yul\":7250:7259   */\n  dup9\n    /* \"#utility.yul\":7246:7268   */\n  add\n    /* \"#utility.yul\":7189:7278   */\n  tag_40\n  jump\t// in\ntag_152:\n    /* \"#utility.yul\":7179:7278   */\n  swap3\n  pop\n    /* \"#utility.yul\":6981:7288   */\n  pop\n    /* \"#utility.yul\":7348:7350   */\n  0x60\n    /* \"#utility.yul\":7337:7346   */\n  dup6\n    /* \"#utility.yul\":7333:7351   */\n  add\n    /* \"#utility.yul\":7327:7352   */\n  mload\n    /* \"#utility.yul\":7379:7397   */\n  0xffffffffffffffff\n    /* \"#utility.yul\":7371:7377   */\n  dup2\n    /* \"#utility.yul\":7368:7398   */\n  gt\n    /* \"#utility.yul\":7365:7482   */\n  iszero\n  tag_153\n  jumpi\n    /* \"#utility.yul\":7401:7480   */\n  tag_154\n  tag_28\n  jump\t// in\ntag_154:\n    /* \"#utility.yul\":7365:7482   */\ntag_153:\n    /* \"#utility.yul\":7506:7605   */\n  tag_155\n    /* \"#utility.yul\":7597:7604   */\n  dup8\n    /* \"#utility.yul\":7588:7594   */\n  dup3\n    /* \"#utility.yul\":7577:7586   */\n  dup9\n    /* \"#utility.yul\":7573:7595   */\n  add\n    /* \"#utility.yul\":7506:7605   */\n  tag_48\n  jump\t// in\ntag_155:\n    /* \"#utility.yul\":7496:7605   */\n  swap2\n  pop\n    /* \"#utility.yul\":7298:7615   */\n  pop\n    /* \"#utility.yul\":6376:7622   */\n  swap3\n  swap6\n  swap2\n  swap5\n  pop\n  swap3\n  pop\n  jump\t// out\n    /* \"#utility.yul\":7628:7808   */\ntag_13:\n    /* \"#utility.yul\":7676:7753   */\n  0x4e487b7100000000000000000000000000000000000000000000000000000000\n    /* \"#utility.yul\":7673:7674   */\n  0x00\n    /* \"#utility.yul\":7666:7754   */\n  mstore\n    /* \"#utility.yul\":7773:7777   */\n  0x32\n    /* \"#utility.yul\":7770:7771   */\n  0x04\n    /* \"#utility.yul\":7763:7778   */\n  mstore\n    /* \"#utility.yul\":7797:7801   */\n  0x24\n    /* \"#utility.yul\":7794:7795   */\n  0x00\n    /* \"#utility.yul\":7787:7802   */\n  revert\n    /* \"#utility.yul\":7814:7994   */\ntag_49:\n    /* \"#utility.yul\":7862:7939   */\n  0x4e487b7100000000000000000000000000000000000000000000000000000000\n    /* \"#utility.yul\":7859:7860   */\n  0x00\n    /* \"#utility.yul\":7852:7940   */\n  mstore\n    /* \"#utility.yul\":7959:7963   */\n  0x11\n    /* \"#utility.yul\":7956:7957   */\n  0x04\n    /* \"#utility.yul\":7949:7964   */\n  mstore\n    /* \"#utility.yul\":7983:7987   */\n  0x24\n    /* \"#utility.yul\":7980:7981   */\n  0x00\n    /* \"#utility.yul\":7973:7988   */\n  revert\n    /* \"#utility.yul\":8000:8233   */\ntag_18:\n    /* \"#utility.yul\":8039:8042   */\n  0x00\n    /* \"#utility.yul\":8062:8086   */\n  tag_159\n    /* \"#utility.yul\":8080:8085   */\n  dup3\n    /* \"#utility.yul\":8062:8086   */\n  tag_29\n  jump\t// in\ntag_159:\n    /* \"#utility.yul\":8053:8086   */\n  swap2\n  pop\n    /* \"#utility.yul\":8108:8174   */\n  0xffffffffffffffffffffffffffffffffffffffffffffffffffffffffffffffff\n    /* \"#utility.yul\":8101:8106   */\n  dup3\n    /* \"#utility.yul\":8098:8175   */\n  sub\n    /* \"#utility.yul\":8095:8198   */\n  tag_160\n  jumpi\n    /* \"#utility.yul\":8178:8196   */\n  tag_161\n  tag_49\n  jump\t// in\ntag_161:\n    /* \"#utility.yul\":8095:8198   */\ntag_160:\n    /* \"#utility.yul\":8225:8226   */\n  0x01\n    /* \"#utility.yul\":8218:8223   */\n  dup3\n    /* \"#utility.yul\":8214:8227   */\n  add\n    /* \"#utility.yul\":8207:8227   */\n  swap1\n  pop\n    /* \"#utility.yul\":8000:8233   */\n  swap2\n  swap1\n  pop\n  jump\t// out\n    /* \"#utility.yul\":8239:8338   */\ntag_50:\n    /* \"#utility.yul\":8291:8297   */\n  0x00\n    /* \"#utility.yul\":8325:8330   */\n  dup2\n    /* \"#utility.yul\":8319:8331   */\n  mload\n    /* \"#utility.yul\":8309:8331   */\n  swap1\n  pop\n    /* \"#utility.yul\":8239:8338   */\n  swap2\n  swap1\n  pop\n  jump\t// out\n    /* \"#utility.yul\":8344:8524   */\ntag_51:\n    /* \"#utility.yul\":8392:8469   */\n  0x4e487b7100000000000000000000000000000000000000000000000000000000\n    /* \"#utility.yul\":8389:8390   */\n  0x00\n    /* \"#utility.yul\":8382:8470   */\n  mstore\n    /* \"#utility.yul\":8489:8493   */\n  0x22\n    /* \"#utility.yul\":8486:8487   */\n  0x04\n    /* \"#utility.yul\":8479:8494   */\n  mstore\n    /* \"#utility.yul\":8513:8517   */\n  0x24\n    /* \"#utility.yul\":8510:8511   */\n  0x00\n    /* \"#utility.yul\":8503:8518   */\n  revert\n    /* \"#utility.yul\":8530:8850   */\ntag_52:\n    /* \"#utility.yul\":8574:8580   */\n  0x00\n    /* \"#utility.yul\":8611:8612   */\n  0x02\n    /* \"#utility.yul\":8605:8609   */\n  dup3\n    /* \"#utility.yul\":8601:8613   */\n  div\n    /* \"#utility.yul\":8591:8613   */\n  swap1\n  pop\n    /* \"#utility.yul\":8658:8659   */\n  0x01\n    /* \"#utility.yul\":8652:8656   */\n  dup3\n    /* \"#utility.yul\":8648:8660   */\n  and\n    /* \"#utility.yul\":8679:8697   */\n  dup1\n    /* \"#utility.yul\":8669:8750   */\n  tag_165\n  jumpi\n    /* \"#utility.yul\":8735:8739   */\n  0x7f\n    /* \"#utility.yul\":8727:8733   */\n  dup3\n    /* \"#utility.yul\":8723:8740   */\n  and\n    /* \"#utility.yul\":8713:8740   */\n  swap2\n  pop\n    /* \"#utility.yul\":8669:8750   */\ntag_165:\n    /* \"#utility.yul\":8797:8799   */\n  0x20\n    /* \"#utility.yul\":8789:8795   */\n  dup3\n    /* \"#utility.yul\":8786:8800   */\n  lt\n    /* \"#utility.yul\":8766:8784   */\n  dup2\n    /* \"#utility.yul\":8763:8801   */\n  sub\n    /* \"#utility.yul\":8760:8844   */\n  tag_166\n  jumpi\n    /* \"#utility.yul\":8816:8834   */\n  tag_167\n  tag_51\n  jump\t// in\ntag_167:\n    /* \"#utility.yul\":8760:8844   */\ntag_166:\n    /* \"#utility.yul\":8581:8850   */\n  pop\n    /* \"#utility.yul\":8530:8850   */\n  swap2\n  swap1\n  pop\n  jump\t// out\n    /* \"#utility.yul\":8856:8997   */\ntag_53:\n    /* \"#utility.yul\":8905:8909   */\n  0x00\n    /* \"#utility.yul\":8928:8931   */\n  dup2\n    /* \"#utility.yul\":8920:8931   */\n  swap1\n  pop\n    /* \"#utility.yul\":8951:8954   */\n  dup2\n    /* \"#utility.yul\":8948:8949   */\n  0x00\n    /* \"#utility.yul\":8941:8955   */\n  mstore\n    /* \"#utility.yul\":8985:8989   */\n  0x20\n    /* \"#utility.yul\":8982:8983   */\n  0x00\n    /* \"#utility.yul\":8972:8990   */\n  keccak256\n    /* \"#utility.yul\":8964:8990   */\n  swap1\n  pop\n    /* \"#utility.yul\":8856:8997   */\n  swap2\n  swap1\n  pop\n  jump\t// out\n    /* \"#utility.yul\":9003:9096   */\ntag_54:\n    /* \"#utility.yul\":9040:9046   */\n  0x00\n    /* \"#utility.yul\":9087:9089   */\n  0x20\n    /* \"#utility.yul\":9082:9084   */\n  0x1f\n    /* \"#utility.yul\":9075:9080   */\n  dup4\n    /* \"#utility.yul\":9071:9085   */\n  add\n    /* \"#utility.yul\":9067:9090   */\n  div\n    /* \"#utility.yul\":9057:9090   */\n  swap1\n  pop\n    /* \"#utility.yul\":9003:9096   */\n  swap2\n  swap1\n  pop\n  jump\t// out\n    /* \"#utility.yul\":9102:9209   */\ntag_55:\n    /* \"#utility.yul\":9146:9154   */\n  0x00\n    /* \"#utility.yul\":9196:9201   */\n  dup3\n    /* \"#utility.yul\":9190:9194   */\n  dup3\n    /* \"#utility.yul\":9186:9202   */\n  shl\n    /* \"#utility.yul\":9165:9202   */\n  swap1\n  pop\n    /* \"#utility.yul\":9102:9209   */\n  swap3\n  swap2\n  pop\n  pop\n  jump\t// out\n    /* \"#utility.yul\":9215:9608   */\ntag_56:\n    /* \"#utility.yul\":9284:9290   */\n  0x00\n    /* \"#utility.yul\":9334:9335   */\n  0x08\n    /* \"#utility.yul\":9322:9332   */\n  dup4\n    /* \"#utility.yul\":9318:9336   */\n  mul\n    /* \"#utility.yul\":9357:9454   */\n  tag_172\n    /* \"#utility.yul\":9387:9453   */\n  0xffffffffffffffffffffffffffffffffffffffffffffffffffffffffffffffff\n    /* \"#utility.yul\":9376:9385   */\n  dup3\n    /* \"#utility.yul\":9357:9454   */\n  tag_55\n  jump\t// in\ntag_172:\n    /* \"#utility.yul\":9475:9514   */\n  tag_173\n    /* \"#utility.yul\":9505:9513   */\n  dup7\n    /* \"#utility.yul\":9494:9503   */\n  dup4\n    /* \"#utility.yul\":9475:9514   */\n  tag_55\n  jump\t// in\ntag_173:\n    /* \"#utility.yul\":9463:9514   */\n  swap6\n  pop\n    /* \"#utility.yul\":9547:9551   */\n  dup1\n    /* \"#utility.yul\":9543:9552   */\n  not\n    /* \"#utility.yul\":9536:9541   */\n  dup5\n    /* \"#utility.yul\":9532:9553   */\n  and\n    /* \"#utility.yul\":9523:9553   */\n  swap4\n  pop\n    /* \"#utility.yul\":9596:9600   */\n  dup1\n    /* \"#utility.yul\":9586:9594   */\n  dup7\n    /* \"#utility.yul\":9582:9601   */\n  and\n    /* \"#utility.yul\":9575:9580   */\n  dup5\n    /* \"#utility.yul\":9572:9602   */\n  or\n    /* \"#utility.yul\":9562:9602   */\n  swap3\n  pop\n    /* \"#utility.yul\":9291:9608   */\n  pop\n  pop\n    /* \"#utility.yul\":9215:9608   */\n  swap4\n  swap3\n  pop\n  pop\n  pop\n  jump\t// out\n    /* \"#utility.yul\":9614:9674   */\ntag_57:\n    /* \"#utility.yul\":9642:9645   */\n  0x00\n    /* \"#utility.yul\":9663:9668   */\n  dup2\n    /* \"#utility.yul\":9656:9668   */\n  swap1\n  pop\n    /* \"#utility.yul\":9614:9674   */\n  swap2\n  swap1\n  pop\n  jump\t// out\n    /* \"#utility.yul\":9680:9822   */\ntag_58:\n    /* \"#utility.yul\":9730:9739   */\n  0x00\n    /* \"#utility.yul\":9763:9816   */\n  tag_176\n    /* \"#utility.yul\":9781:9815   */\n  tag_177\n    /* \"#utility.yul\":9790:9814   */\n  tag_178\n    /* \"#utility.yul\":9808:9813   */\n  dup5\n    /* \"#utility.yul\":9790:9814   */\n  tag_29\n  jump\t// in\ntag_178:\n    /* \"#utility.yul\":9781:9815   */\n  tag_57\n  jump\t// in\ntag_177:\n    /* \"#utility.yul\":9763:9816   */\n  tag_29\n  jump\t// in\ntag_176:\n    /* \"#utility.yul\":9750:9816   */\n  swap1\n  pop\n    /* \"#utility.yul\":9680:9822   */\n  swap2\n  swap1\n  pop\n  jump\t// out\n    /* \"#utility.yul\":9828:9903   */\ntag_59:\n    /* \"#utility.yul\":9871:9874   */\n  0x00\n    /* \"#utility.yul\":9892:9897   */\n  dup2\n    /* \"#utility.yul\":9885:9897   */\n  swap1\n  pop\n    /* \"#utility.yul\":9828:9903   */\n  swap2\n  swap1\n  pop\n  jump\t// out\n    /* \"#utility.yul\":9909:10178   */\ntag_60:\n    /* \"#utility.yul\":10019:10058   */\n  tag_181\n    /* \"#utility.yul\":10050:10057   */\n  dup4\n    /* \"#utility.yul\":10019:10058   */\n  tag_58\n  jump\t// in\ntag_181:\n    /* \"#utility.yul\":10080:10171   */\n  tag_182\n    /* \"#utility.yul\":10129:10170   */\n  tag_183\n    /* \"#utility.yul\":10153:10169   */\n  dup3\n    /* \"#utility.yul\":10129:10170   */\n  tag_59\n  jump\t// in\ntag_183:\n    /* \"#utility.yul\":10121:10127   */\n  dup5\n    /* \"#utility.yul\":10114:10118   */\n  dup5\n    /* \"#utility.yul\":10108:10119   */\n  sload\n    /* \"#utility.yul\":10080:10171   */\n  tag_56\n  jump\t// in\ntag_182:\n    /* \"#utility.yul\":10074:10078   */\n  dup3\n    /* \"#utility.yul\":10067:10172   */\n  sstore\n    /* \"#utility.yul\":9985:10178   */\n  pop\n    /* \"#utility.yul\":9909:10178   */\n  pop\n  pop\n  pop\n  jump\t// out\n    /* \"#utility.yul\":10184:10257   */\ntag_61:\n    /* \"#utility.yul\":10229:10232   */\n  0x00\n    /* \"#utility.yul\":10184:10257   */\n  swap1\n  jump\t// out\n    /* \"#utility.yul\":10263:10452   */\ntag_62:\n    /* \"#utility.yul\":10340:10372   */\n  tag_186\n  tag_61\n  jump\t// in\ntag_186:\n    /* \"#utility.yul\":10381:10446   */\n  tag_187\n    /* \"#utility.yul\":10439:10445   */\n  dup2\n    /* \"#utility.yul\":10431:10437   */\n  dup5\n    /* \"#utility.yul\":10425:10429   */\n  dup5\n    /* \"#utility.yul\":10381:10446   */\n  tag_60\n  jump\t// in\ntag_187:\n    /* \"#utility.yul\":10316:10452   */\n  pop\n    /* \"#utility.yul\":10263:10452   */\n  pop\n  pop\n  jump\t// out\n    /* \"#utility.yul\":10458:10644   */\ntag_63:\n    /* \"#utility.yul\":10518:10638   */\ntag_189:\n    /* \"#utility.yul\":10535:10538   */\n  dup2\n    /* \"#utility.yul\":10528:10533   */\n  dup2\n    /* \"#utility.yul\":10525:10539   */\n  lt\n    /* \"#utility.yul\":10518:10638   */\n  iszero\n  tag_191\n  jumpi\n    /* \"#utility.yul\":10589:10628   */\n  tag_192\n    /* \"#utility.yul\":10626:10627   */\n  0x00\n    /* \"#utility.yul\":10619:10624   */\n  dup3\n    /* \"#utility.yul\":10589:10628   */\n  tag_62\n  jump\t// in\ntag_192:\n    /* \"#utility.yul\":10562:10563   */\n  0x01\n    /* \"#utility.yul\":10555:10560   */\n  dup2\n    /* \"#utility.yul\":10551:10564   */\n  add\n    /* \"#utility.yul\":10542:10564   */\n  swap1\n  pop\n    /* \"#utility.yul\":10518:10638   */\n  jump(tag_189)\ntag_191:\n    /* \"#utility.yul\":10458:10644   */\n  pop\n  pop\n  jump\t// out\n    /* \"#utility.yul\":10650:11193   */\ntag_64:\n    /* \"#utility.yul\":10751:10753   */\n  0x1f\n    /* \"#utility.yul\":10746:10749   */\n  dup3\n    /* \"#utility.yul\":10743:10754   */\n  gt\n    /* \"#utility.yul\":10740:11186   */\n  iszero\n  tag_194\n  jumpi\n    /* \"#utility.yul\":10785:10823   */\n  tag_195\n    /* \"#utility.yul\":10817:10822   */\n  dup2\n    /* \"#utility.yul\":10785:10823   */\n  tag_53\n  jump\t// in\ntag_195:\n    /* \"#utility.yul\":10869:10898   */\n  tag_196\n    /* \"#utility.yul\":10887:10897   */\n  dup5\n    /* \"#utility.yul\":10869:10898   */\n  tag_54\n  jump\t// in\ntag_196:\n    /* \"#utility.yul\":10859:10867   */\n  dup2\n    /* \"#utility.yul\":10855:10899   */\n  add\n    /* \"#utility.yul\":11052:11054   */\n  0x20\n    /* \"#utility.yul\":11040:11050   */\n  dup6\n    /* \"#utility.yul\":11037:11055   */\n  lt\n    /* \"#utility.yul\":11034:11083   */\n  iszero\n  tag_197\n  jumpi\n    /* \"#utility.yul\":11073:11081   */\n  dup2\n    /* \"#utility.yul\":11058:11081   */\n  swap1\n  pop\n    /* \"#utility.yul\":11034:11083   */\ntag_197:\n    /* \"#utility.yul\":11096:11176   */\n  tag_198\n    /* \"#utility.yul\":11152:11174   */\n  tag_199\n    /* \"#utility.yul\":11170:11173   */\n  dup6\n    /* \"#utility.yul\":11152:11174   */\n  tag_54\n  jump\t// in\ntag_199:\n    /* \"#utility.yul\":11142:11150   */\n  dup4\n    /* \"#utility.yul\":11138:11175   */\n  add\n    /* \"#utility.yul\":11125:11136   */\n  dup3\n    /* \"#utility.yul\":11096:11176   */\n  tag_63\n  jump\t// in\ntag_198:\n    /* \"#utility.yul\":10755:11186   */\n  pop\n  pop\n    /* \"#utility.yul\":10740:11186   */\ntag_194:\n    /* \"#utility.yul\":10650:11193   */\n  pop\n  pop\n  pop\n  jump\t// out\n    /* \"#utility.yul\":11199:11316   */\ntag_65:\n    /* \"#utility.yul\":11253:11261   */\n  0x00\n    /* \"#utility.yul\":11303:11308   */\n  dup3\n    /* \"#utility.yul\":11297:11301   */\n  dup3\n    /* \"#utility.yul\":11293:11309   */\n  shr\n    /* \"#utility.yul\":11272:11309   */\n  swap1\n  pop\n    /* \"#utility.yul\":11199:11316   */\n  swap3\n  swap2\n  pop\n  pop\n  jump\t// out\n    /* \"#utility.yul\":11322:11491   */\ntag_66:\n    /* \"#utility.yul\":11366:11372   */\n  0x00\n    /* \"#utility.yul\":11399:11450   */\n  tag_202\n    /* \"#utility.yul\":11447:11448   */\n  0x00\n    /* \"#utility.yul\":11443:11449   */\n  not\n    /* \"#utility.yul\":11435:11440   */\n  dup5\n    /* \"#utility.yul\":11432:11433   */\n  0x08\n    /* \"#utility.yul\":11428:11441   */\n  mul\n    /* \"#utility.yul\":11399:11450   */\n  tag_65\n  jump\t// in\ntag_202:\n    /* \"#utility.yul\":11395:11451   */\n  not\n    /* \"#utility.yul\":11480:11484   */\n  dup1\n    /* \"#utility.yul\":11474:11478   */\n  dup4\n    /* \"#utility.yul\":11470:11485   */\n  and\n    /* \"#utility.yul\":11460:11485   */\n  swap2\n  pop\n    /* \"#utility.yul\":11373:11491   */\n  pop\n    /* \"#utility.yul\":11322:11491   */\n  swap3\n  swap2\n  pop\n  pop\n  jump\t// out\n    /* \"#utility.yul\":11496:11791   */\ntag_67:\n    /* \"#utility.yul\":11572:11576   */\n  0x00\n    /* \"#utility.yul\":11718:11747   */\n  tag_204\n    /* \"#utility.yul\":11743:11746   */\n  dup4\n    /* \"#utility.yul\":11737:11741   */\n  dup4\n    /* \"#utility.yul\":11718:11747   */\n  tag_66\n  jump\t// in\ntag_204:\n    /* \"#utility.yul\":11710:11747   */\n  swap2\n  pop\n    /* \"#utility.yul\":11780:11783   */\n  dup3\n    /* \"#utility.yul\":11777:11778   */\n  0x02\n    /* \"#utility.yul\":11773:11784   */\n  mul\n    /* \"#utility.yul\":11767:11771   */\n  dup3\n    /* \"#utility.yul\":11764:11785   */\n  or\n    /* \"#utility.yul\":11756:11785   */\n  swap1\n  pop\n    /* \"#utility.yul\":11496:11791   */\n  swap3\n  swap2\n  pop\n  pop\n  jump\t// out\n    /* \"#utility.yul\":11796:13191   */\ntag_22:\n    /* \"#utility.yul\":11913:11950   */\n  tag_206\n    /* \"#utility.yul\":11946:11949   */\n  dup3\n    /* \"#utility.yul\":11913:11950   */\n  tag_50\n  jump\t// in\ntag_206:\n    /* \"#utility.yul\":12015:12033   */\n  0xffffffffffffffff\n    /* \"#utility.yul\":12007:12013   */\n  dup2\n    /* \"#utility.yul\":12004:12034   */\n  gt\n    /* \"#utility.yul\":12001:12057   */\n  iszero\n  tag_207\n  jumpi\n    /* \"#utility.yul\":12037:12055   */\n  tag_208\n  tag_34\n  jump\t// in\ntag_208:\n    /* \"#utility.yul\":12001:12057   */\ntag_207:\n    /* \"#utility.yul\":12081:12119   */\n  tag_209\n    /* \"#utility.yul\":12113:12117   */\n  dup3\n    /* \"#utility.yul\":12107:12118   */\n  sload\n    /* \"#utility.yul\":12081:12119   */\n  tag_52\n  jump\t// in\ntag_209:\n    /* \"#utility.yul\":12166:12233   */\n  tag_210\n    /* \"#utility.yul\":12226:12232   */\n  dup3\n    /* \"#utility.yul\":12218:12224   */\n  dup3\n    /* \"#utility.yul\":12212:12216   */\n  dup6\n    /* \"#utility.yul\":12166:12233   */\n  tag_64\n  jump\t// in\ntag_210:\n    /* \"#utility.yul\":12260:12261   */\n  0x00\n    /* \"#utility.yul\":12284:12288   */\n  0x20\n    /* \"#utility.yul\":12271:12288   */\n  swap1\n  pop\n    /* \"#utility.yul\":12316:12318   */\n  0x1f\n    /* \"#utility.yul\":12308:12314   */\n  dup4\n    /* \"#utility.yul\":12305:12319   */\n  gt\n    /* \"#utility.yul\":12333:12334   */\n  0x01\n    /* \"#utility.yul\":12328:12946   */\n  dup2\n  eq\n  tag_212\n  jumpi\n    /* \"#utility.yul\":12990:12991   */\n  0x00\n    /* \"#utility.yul\":13007:13013   */\n  dup5\n    /* \"#utility.yul\":13004:13081   */\n  iszero\n  tag_213\n  jumpi\n    /* \"#utility.yul\":13056:13065   */\n  dup3\n    /* \"#utility.yul\":13051:13054   */\n  dup8\n    /* \"#utility.yul\":13047:13066   */\n  add\n    /* \"#utility.yul\":13041:13067   */\n  mload\n    /* \"#utility.yul\":13032:13067   */\n  swap1\n  pop\n    /* \"#utility.yul\":13004:13081   */\ntag_213:\n    /* \"#utility.yul\":13107:13174   */\n  tag_214\n    /* \"#utility.yul\":13167:13173   */\n  dup6\n    /* \"#utility.yul\":13160:13165   */\n  dup3\n    /* \"#utility.yul\":13107:13174   */\n  tag_67\n  jump\t// in\ntag_214:\n    /* \"#utility.yul\":13101:13105   */\n  dup7\n    /* \"#utility.yul\":13094:13175   */\n  sstore\n    /* \"#utility.yul\":12963:13185   */\n  pop\n    /* \"#utility.yul\":12298:13185   */\n  jump(tag_211)\n    /* \"#utility.yul\":12328:12946   */\ntag_212:\n    /* \"#utility.yul\":12380:12384   */\n  0x1f\n    /* \"#utility.yul\":12376:12385   */\n  not\n    /* \"#utility.yul\":12368:12374   */\n  dup5\n    /* \"#utility.yul\":12364:12386   */\n  and\n    /* \"#utility.yul\":12414:12451   */\n  tag_215\n    /* \"#utility.yul\":12446:12450   */\n  dup7\n    /* \"#utility.yul\":12414:12451   */\n  tag_53\n  jump\t// in\ntag_215:\n    /* \"#utility.yul\":12473:12474   */\n  0x00\n    /* \"#utility.yul\":12487:12695   */\ntag_216:\n    /* \"#utility.yul\":12501:12508   */\n  dup3\n    /* \"#utility.yul\":12498:12499   */\n  dup2\n    /* \"#utility.yul\":12495:12509   */\n  lt\n    /* \"#utility.yul\":12487:12695   */\n  iszero\n  tag_218\n  jumpi\n    /* \"#utility.yul\":12580:12589   */\n  dup5\n    /* \"#utility.yul\":12575:12578   */\n  dup10\n    /* \"#utility.yul\":12571:12590   */\n  add\n    /* \"#utility.yul\":12565:12591   */\n  mload\n    /* \"#utility.yul\":12557:12563   */\n  dup3\n    /* \"#utility.yul\":12550:12592   */\n  sstore\n    /* \"#utility.yul\":12631:12632   */\n  0x01\n    /* \"#utility.yul\":12623:12629   */\n  dup3\n    /* \"#utility.yul\":12619:12633   */\n  add\n    /* \"#utility.yul\":12609:12633   */\n  swap2\n  pop\n    /* \"#utility.yul\":12678:12680   */\n  0x20\n    /* \"#utility.yul\":12667:12676   */\n  dup6\n    /* \"#utility.yul\":12663:12681   */\n  add\n    /* \"#utility.yul\":12650:12681   */\n  swap5\n  pop\n    /* \"#utility.yul\":12524:12528   */\n  0x20\n    /* \"#utility.yul\":12521:12522   */\n  dup2\n    /* \"#utility.yul\":12517:12529   */\n  add\n    /* \"#utility.yul\":12512:12529   */\n  swap1\n  pop\n    /* \"#utility.yul\":12487:12695   */\n  jump(tag_216)\ntag_218:\n    /* \"#utility.yul\":12723:12729   */\n  dup7\n    /* \"#utility.yul\":12714:12721   */\n  dup4\n    /* \"#utility.yul\":12711:12730   */\n  lt\n    /* \"#utility.yul\":12708:12887   */\n  iszero\n  tag_219\n  jumpi\n    /* \"#utility.yul\":12781:12790   */\n  dup5\n    /* \"#utility.yul\":12776:12779   */\n  dup10\n    /* \"#utility.yul\":12772:12791   */\n  add\n    /* \"#utility.yul\":12766:12792   */\n  mload\n    /* \"#utility.yul\":12824:12872   */\n  tag_220\n    /* \"#utility.yul\":12866:12870   */\n  0x1f\n    /* \"#utility.yul\":12858:12864   */\n  dup10\n    /* \"#utility.yul\":12854:12871   */\n  and\n    /* \"#utility.yul\":12843:12852   */\n  dup3\n    /* \"#utility.yul\":12824:12872   */\n  tag_66\n  jump\t// in\ntag_220:\n    /* \"#utility.yul\":12816:12822   */\n  dup4\n    /* \"#utility.yul\":12809:12873   */\n  sstore\n    /* \"#utility.yul\":12731:12887   */\n  pop\n    /* \"#utility.yul\":12708:12887   */\ntag_219:\n    /* \"#utility.yul\":12933:12934   */\n  0x01\n    /* \"#utility.yul\":12929:12930   */\n  0x02\n    /* \"#utility.yul\":12921:12927   */\n  dup9\n    /* \"#utility.yul\":12917:12931   */\n  mul\n    /* \"#utility.yul\":12913:12935   */\n  add\n    /* \"#utility.yul\":12907:12911   */\n  dup9\n    /* \"#utility.yul\":12900:12936   */\n  sstore\n    /* \"#utility.yul\":12335:12946   */\n  pop\n  pop\n  pop\n    /* \"#utility.yul\":12298:13185   */\ntag_211:\n  pop\n    /* \"#utility.yul\":11888:13191   */\n  pop\n  pop\n  pop\n    /* \"#utility.yul\":11796:13191   */\n  pop\n  pop\n  jump\t// out\n    /* \"#utility.yul\":13197:13366   */\ntag_68:\n    /* \"#utility.yul\":13281:13292   */\n  0x00\n    /* \"#utility.yul\":13315:13321   */\n  dup3\n    /* \"#utility.yul\":13310:13313   */\n  dup3\n    /* \"#utility.yul\":13303:13322   */\n  mstore\n    /* \"#utility.yul\":13355:13359   */\n  0x20\n    /* \"#utility.yul\":13350:13353   */\n  dup3\n    /* \"#utility.yul\":13346:13360   */\n  add\n    /* \"#utility.yul\":13331:13360   */\n  swap1\n  pop\n    /* \"#utility.yul\":13197:13366   */\n  swap3\n  swap2\n  pop\n  pop\n  jump\t// out\n    /* \"#utility.yul\":13372:13749   */\ntag_69:\n    /* \"#utility.yul\":13460:13463   */\n  0x00\n    /* \"#utility.yul\":13488:13527   */\n  tag_223\n    /* \"#utility.yul\":13521:13526   */\n  dup3\n    /* \"#utility.yul\":13488:13527   */\n  tag_50\n  jump\t// in\ntag_223:\n    /* \"#utility.yul\":13543:13614   */\n  tag_224\n    /* \"#utility.yul\":13607:13613   */\n  dup2\n    /* \"#utility.yul\":13602:13605   */\n  dup6\n    /* \"#utility.yul\":13543:13614   */\n  tag_68\n  jump\t// in\ntag_224:\n    /* \"#utility.yul\":13536:13614   */\n  swap4\n  pop\n    /* \"#utility.yul\":13623:13688   */\n  tag_225\n    /* \"#utility.yul\":13681:13687   */\n  dup2\n    /* \"#utility.yul\":13676:13679   */\n  dup6\n    /* \"#utility.yul\":13669:13673   */\n  0x20\n    /* \"#utility.yul\":13662:13667   */\n  dup7\n    /* \"#utility.yul\":13658:13674   */\n  add\n    /* \"#utility.yul\":13623:13688   */\n  tag_44\n  jump\t// in\ntag_225:\n    /* \"#utility.yul\":13713:13742   */\n  tag_226\n    /* \"#utility.yul\":13735:13741   */\n  dup2\n    /* \"#utility.yul\":13713:13742   */\n  tag_33\n  jump\t// in\ntag_226:\n    /* \"#utility.yul\":13708:13711   */\n  dup5\n    /* \"#utility.yul\":13704:13743   */\n  add\n    /* \"#utility.yul\":13697:13743   */\n  swap2\n  pop\n    /* \"#utility.yul\":13464:13749   */\n  pop\n    /* \"#utility.yul\":13372:13749   */\n  swap3\n  swap2\n  pop\n  pop\n  jump\t// out\n    /* \"#utility.yul\":13755:13873   */\ntag_70:\n    /* \"#utility.yul\":13842:13866   */\n  tag_228\n    /* \"#utility.yul\":13860:13865   */\n  dup2\n    /* \"#utility.yul\":13842:13866   */\n  tag_29\n  jump\t// in\ntag_228:\n    /* \"#utility.yul\":13837:13840   */\n  dup3\n    /* \"#utility.yul\":13830:13867   */\n  mstore\n    /* \"#utility.yul\":13755:13873   */\n  pop\n  pop\n  jump\t// out\n    /* \"#utility.yul\":13879:14302   */\ntag_25:\n    /* \"#utility.yul\":14020:14024   */\n  0x00\n    /* \"#utility.yul\":14058:14060   */\n  0x40\n    /* \"#utility.yul\":14047:14056   */\n  dup3\n    /* \"#utility.yul\":14043:14061   */\n  add\n    /* \"#utility.yul\":14035:14061   */\n  swap1\n  pop\n    /* \"#utility.yul\":14107:14116   */\n  dup2\n    /* \"#utility.yul\":14101:14105   */\n  dup2\n    /* \"#utility.yul\":14097:14117   */\n  sub\n    /* \"#utility.yul\":14093:14094   */\n  0x00\n    /* \"#utility.yul\":14082:14091   */\n  dup4\n    /* \"#utility.yul\":14078:14095   */\n  add\n    /* \"#utility.yul\":14071:14118   */\n  mstore\n    /* \"#utility.yul\":14135:14213   */\n  tag_230\n    /* \"#utility.yul\":14208:14212   */\n  dup2\n    /* \"#utility.yul\":14199:14205   */\n  dup6\n    /* \"#utility.yul\":14135:14213   */\n  tag_69\n  jump\t// in\ntag_230:\n    /* \"#utility.yul\":14127:14213   */\n  swap1\n  pop\n    /* \"#utility.yul\":14223:14295   */\n  tag_231\n    /* \"#utility.yul\":14291:14293   */\n  0x20\n    /* \"#utility.yul\":14280:14289   */\n  dup4\n    /* \"#utility.yul\":14276:14294   */\n  add\n    /* \"#utility.yul\":14267:14273   */\n  dup5\n    /* \"#utility.yul\":14223:14295   */\n  tag_70\n  jump\t// in\ntag_231:\n    /* \"#utility.yul\":13879:14302   */\n  swap4\n  swap3\n  pop\n  pop\n  pop\n  jump\t// out\n    /* \"Voting.sol\":65:6032  contract Voting {... */\ntag_19:\n  dataSize(sub_0)\n  dup1\n  dataOffset(sub_0)\n  0x00\n  codecopy\n  0x00\n  return\nstop\n\nsub_0: assembly {\n        /* \"Voting.sol\":65:6032  contract Voting {... */\n      mstore(0x40, 0x80)\n      callvalue\n      dup1\n      iszero\n      tag_1\n      jumpi\n      0x00\n      dup1\n      revert\n    tag_1:\n      pop\n      jumpi(tag_2, lt(calldatasize, 0x04))\n      shr(0xe0, calldataload(0x00))\n      dup1\n      0xb2c2f2e8\n      gt\n      tag_11\n      jumpi\n      dup1\n      0xb2c2f2e8\n      eq\n      tag_7\n      jumpi\n      dup1\n      0xb6f72071\n      eq\n      tag_8\n      jumpi\n      dup1\n      0xe13804a7\n      eq\n      tag_9\n      jumpi\n      dup1\n      0xf577a500\n      eq\n      tag_10\n      jumpi\n      jump(tag_2)\n    tag_11:\n      dup1\n      0x0121b93f\n      eq\n      tag_3\n      jumpi\n      dup1\n      0x06a49fce\n      eq\n      tag_4\n      jumpi\n      dup1\n      0x3192fd1b\n      eq\n      tag_5\n      jumpi\n      dup1\n      0x47535d7b\n      eq\n      tag_6\n      jumpi\n    tag_2:\n      0x00\n      dup1\n      revert\n        /* \"Voting.sol\":2840:3585  function vote (uint _candidateId) public {... */\n    tag_3:\n      tag_12\n      0x04\n      dup1\n      calldatasize\n      sub\n      dup2\n      add\n      swap1\n      tag_13\n      swap2\n      swap1\n      tag_14\n      jump\t// in\n    tag_13:\n      tag_15\n      jump\t// in\n    tag_12:\n      stop\n        /* \"Voting.sol\":4493:5173  function getCandidates() public view returns (string memory) {... */\n    tag_4:\n      tag_16\n      tag_17\n      jump\t// in\n    tag_16:\n      mload(0x40)\n      tag_18\n      swap2\n      swap1\n      tag_19\n      jump\t// in\n    tag_18:\n      mload(0x40)\n      dup1\n      swap2\n      sub\n      swap1\n      return\n        /* \"Voting.sol\":4227:4311  function getNullVotes() public view returns (uint) {... */\n    tag_5:\n      tag_20\n      tag_21\n      jump\t// in\n    tag_20:\n      mload(0x40)\n      tag_22\n      swap2\n      swap1\n      tag_23\n      jump\t// in\n    tag_22:\n      mload(0x40)\n      dup1\n      swap2\n      sub\n      swap1\n      return\n        /* \"Voting.sol\":3650:3777  function isOpen() public view returns (bool) {... */\n    tag_6:\n      tag_24\n      tag_25\n      jump\t// in\n    tag_24:\n      mload(0x40)\n      tag_26\n      swap2\n      swap1\n      tag_27\n      jump\t// in\n    tag_26:\n      mload(0x40)\n      dup1\n      swap2\n      sub\n      swap1\n      return\n        /* \"Voting.sol\":3849:4015  function getVoteCount(uint _candidateId) public view returns (uint) {... */\n    tag_7:\n      tag_28\n      0x04\n      dup1\n      calldatasize\n      sub\n      dup2\n      add\n      swap1\n      tag_29\n      swap2\n      swap1\n      tag_14\n      jump\t// in\n    tag_29:\n      tag_30\n      jump\t// in\n    tag_28:\n      mload(0x40)\n      tag_31\n      swap2\n      swap1\n      tag_23\n      jump\t// in\n    tag_31:\n      mload(0x40)\n      dup1\n      swap2\n      sub\n      swap1\n      return\n        /* \"Voting.sol\":4079:4165  function getBlankVotes() public view returns (uint) {... */\n    tag_8:\n      tag_32\n      tag_33\n      jump\t// in\n    tag_32:\n      mload(0x40)\n      tag_34\n      swap2\n      swap1\n      tag_23\n      jump\t// in\n    tag_34:\n      mload(0x40)\n      dup1\n      swap2\n      sub\n      swap1\n      return\n        /* \"Voting.sol\":4371:4487  function getCandidateName(uint _id) public view returns (string memory) {... */\n    tag_9:\n      tag_35\n      0x04\n      dup1\n      calldatasize\n      sub\n      dup2\n      add\n      swap1\n      tag_36\n      swap2\n      swap1\n      tag_14\n      jump\t// in\n    tag_36:\n      tag_37\n      jump\t// in\n    tag_35:\n      mload(0x40)\n      tag_38\n      swap2\n      swap1\n      tag_19\n      jump\t// in\n    tag_38:\n      mload(0x40)\n      dup1\n      swap2\n      sub\n      swap1\n      return\n        /* \"Voting.sol\":5236:5398  function isValid(uint _id) public view returns (bool) {... */\n    tag_10:\n      tag_39\n      0x04\n      dup1\n      calldatasize\n      sub\n      dup2\n      add\n      swap1\n      tag_40\n      swap2\n      swap1\n      tag_14\n      jump\t// in\n    tag_40:\n      tag_41\n      jump\t// in\n    tag_39:\n      mload(0x40)\n      tag_42\n      swap2\n      swap1\n      tag_27\n      jump\t// in\n    tag_42:\n      mload(0x40)\n      dup1\n      swap2\n      sub\n      swap1\n      return\n        /* \"Voting.sol\":2840:3585  function vote (uint _candidateId) public {... */\n    tag_15:\n        /* \"Voting.sol\":2948:2956  isOpen() */\n      tag_44\n        /* \"Voting.sol\":2948:2954  isOpen */\n      tag_25\n        /* \"Voting.sol\":2948:2956  isOpen() */\n      jump\t// in\n    tag_44:\n        /* \"Voting.sol\":2940:2957  require(isOpen()) */\n      tag_45\n      jumpi\n      0x00\n      dup1\n      revert\n    tag_45:\n        /* \"Voting.sol\":3020:3026  voters */\n      0x00\n        /* \"Voting.sol\":3020:3038  voters[msg.sender] */\n      dup1\n        /* \"Voting.sol\":3027:3037  msg.sender */\n      caller\n        /* \"Voting.sol\":3020:3038  voters[msg.sender] */\n      0xffffffffffffffffffffffffffffffffffffffff\n      and\n      0xffffffffffffffffffffffffffffffffffffffff\n      and\n      dup2\n      mstore\n      0x20\n      add\n      swap1\n      dup2\n      mstore\n      0x20\n      add\n      0x00\n      keccak256\n      0x00\n      swap1\n      sload\n      swap1\n      0x0100\n      exp\n      swap1\n      div\n      0xff\n      and\n        /* \"Voting.sol\":3019:3038  !voters[msg.sender] */\n      iszero\n        /* \"Voting.sol\":3011:3039  require(!voters[msg.sender]) */\n      tag_46\n      jumpi\n      0x00\n      dup1\n      revert\n    tag_46:\n        /* \"Voting.sol\":3110:3111  0 */\n      0x00\n        /* \"Voting.sol\":3094:3106  _candidateId */\n      dup2\n        /* \"Voting.sol\":3094:3111  _candidateId == 0 */\n      sub\n        /* \"Voting.sol\":3090:3170  if (_candidateId == 0) {... */\n      tag_47\n      jumpi\n        /* \"Voting.sol\":3127:3137  blankVotes */\n      0x04\n      0x00\n        /* \"Voting.sol\":3127:3139  blankVotes++ */\n      dup2\n      sload\n      dup1\n      swap3\n      swap2\n      swap1\n      tag_48\n      swap1\n      tag_49\n      jump\t// in\n    tag_48:\n      swap2\n      swap1\n      pop\n      sstore\n      pop\n        /* \"Voting.sol\":3153:3160  return; */\n      jump(tag_43)\n        /* \"Voting.sol\":3090:3170  if (_candidateId == 0) {... */\n    tag_47:\n        /* \"Voting.sol\":3223:3244  isValid(_candidateId) */\n      tag_50\n        /* \"Voting.sol\":3231:3243  _candidateId */\n      dup2\n        /* \"Voting.sol\":3223:3230  isValid */\n      tag_41\n        /* \"Voting.sol\":3223:3244  isValid(_candidateId) */\n      jump\t// in\n    tag_50:\n        /* \"Voting.sol\":3218:3302  if (!isValid(_candidateId)) {... */\n      tag_51\n      jumpi\n        /* \"Voting.sol\":3260:3269  nullVotes */\n      0x03\n      0x00\n        /* \"Voting.sol\":3260:3271  nullVotes++ */\n      dup2\n      sload\n      dup1\n      swap3\n      swap2\n      swap1\n      tag_52\n      swap1\n      tag_49\n      jump\t// in\n    tag_52:\n      swap2\n      swap1\n      pop\n      sstore\n      pop\n        /* \"Voting.sol\":3285:3292  return; */\n      jump(tag_43)\n        /* \"Voting.sol\":3218:3302  if (!isValid(_candidateId)) {... */\n    tag_51:\n        /* \"Voting.sol\":3317:3330  IsValid(true) */\n      0x8abc02d87b9bd0c57b0b90286d8d023455310d7406afe4bcd25eff1079813dda\n        /* \"Voting.sol\":3325:3329  true */\n      0x01\n        /* \"Voting.sol\":3317:3330  IsValid(true) */\n      mload(0x40)\n      tag_53\n      swap2\n      swap1\n      tag_27\n      jump\t// in\n    tag_53:\n      mload(0x40)\n      dup1\n      swap2\n      sub\n      swap1\n      log1\n        /* \"Voting.sol\":3389:3393  true */\n      0x01\n        /* \"Voting.sol\":3368:3374  voters */\n      0x00\n        /* \"Voting.sol\":3368:3386  voters[msg.sender] */\n      dup1\n        /* \"Voting.sol\":3375:3385  msg.sender */\n      caller\n        /* \"Voting.sol\":3368:3386  voters[msg.sender] */\n      0xffffffffffffffffffffffffffffffffffffffff\n      and\n      0xffffffffffffffffffffffffffffffffffffffff\n      and\n      dup2\n      mstore\n      0x20\n      add\n      swap1\n      dup2\n      mstore\n      0x20\n      add\n      0x00\n      keccak256\n      0x00\n        /* \"Voting.sol\":3368:3393  voters[msg.sender] = true */\n      0x0100\n      exp\n      dup2\n      sload\n      dup2\n      0xff\n      mul\n      not\n      and\n      swap1\n      dup4\n      iszero\n      iszero\n      mul\n      or\n      swap1\n      sstore\n      pop\n        /* \"Voting.sol\":3403:3413  candidates */\n      0x01\n        /* \"Voting.sol\":3403:3427  candidates[_candidateId] */\n      0x00\n        /* \"Voting.sol\":3414:3426  _candidateId */\n      dup3\n        /* \"Voting.sol\":3403:3427  candidates[_candidateId] */\n      dup2\n      mstore\n      0x20\n      add\n      swap1\n      dup2\n      mstore\n      0x20\n      add\n      0x00\n      keccak256\n        /* \"Voting.sol\":3403:3437  candidates[_candidateId].voteCount */\n      0x02\n      add\n      0x00\n        /* \"Voting.sol\":3403:3439  candidates[_candidateId].voteCount++ */\n      dup2\n      sload\n      dup1\n      swap3\n      swap2\n      swap1\n      tag_54\n      swap1\n      tag_49\n      jump\t// in\n    tag_54:\n      swap2\n      swap1\n      pop\n      sstore\n      pop\n        /* \"Voting.sol\":3552:3578  VoteRegistered(msg.sender) */\n      0xc13d3f1b1493730c46add68f1ab21f9ffdc46a9d73fb17dc8647b0ceec258e88\n        /* \"Voting.sol\":3567:3577  msg.sender */\n      caller\n        /* \"Voting.sol\":3552:3578  VoteRegistered(msg.sender) */\n      mload(0x40)\n      tag_55\n      swap2\n      swap1\n      tag_56\n      jump\t// in\n    tag_55:\n      mload(0x40)\n      dup1\n      swap2\n      sub\n      swap1\n      log1\n        /* \"Voting.sol\":2840:3585  function vote (uint _candidateId) public {... */\n    tag_43:\n      pop\n      jump\t// out\n        /* \"Voting.sol\":4493:5173  function getCandidates() public view returns (string memory) {... */\n    tag_17:\n        /* \"Voting.sol\":4539:4552  string memory */\n      0x60\n        /* \"Voting.sol\":4660:4688  string memory candidatesJson */\n      0x00\n        /* \"Voting.sol\":4660:4694  string memory candidatesJson = '[' */\n      mload(0x40)\n      dup1\n      0x40\n      add\n      0x40\n      mstore\n      dup1\n      0x01\n      dup2\n      mstore\n      0x20\n      add\n      0x5b00000000000000000000000000000000000000000000000000000000000000\n      dup2\n      mstore\n      pop\n      swap1\n      pop\n        /* \"Voting.sol\":4709:4715  uint i */\n      0x00\n        /* \"Voting.sol\":4704:5064  for (uint i = 0; i < candidateIds.length; i++) {... */\n    tag_58:\n        /* \"Voting.sol\":4725:4737  candidateIds */\n      0x02\n        /* \"Voting.sol\":4725:4744  candidateIds.length */\n      dup1\n      sload\n      swap1\n      pop\n        /* \"Voting.sol\":4721:4722  i */\n      dup2\n        /* \"Voting.sol\":4721:4744  i < candidateIds.length */\n      lt\n        /* \"Voting.sol\":4704:5064  for (uint i = 0; i < candidateIds.length; i++) {... */\n      iszero\n      tag_59\n      jumpi\n        /* \"Voting.sol\":4806:4820  candidatesJson */\n      dup2\n        /* \"Voting.sol\":4832:4857  uint2str(candidateIds[i]) */\n      tag_61\n        /* \"Voting.sol\":4841:4853  candidateIds */\n      0x02\n        /* \"Voting.sol\":4854:4855  i */\n      dup4\n        /* \"Voting.sol\":4841:4856  candidateIds[i] */\n      dup2\n      sload\n      dup2\n      lt\n      tag_62\n      jumpi\n      tag_63\n      tag_64\n      jump\t// in\n    tag_63:\n    tag_62:\n      swap1\n      0x00\n      mstore\n      keccak256(0x00, 0x20)\n      add\n      sload\n        /* \"Voting.sol\":4832:4840  uint2str */\n      tag_66\n        /* \"Voting.sol\":4832:4857  uint2str(candidateIds[i]) */\n      jump\t// in\n    tag_61:\n        /* \"Voting.sol\":4872:4882  candidates */\n      0x01\n        /* \"Voting.sol\":4872:4899  candidates[candidateIds[i]] */\n      0x00\n        /* \"Voting.sol\":4883:4895  candidateIds */\n      0x02\n        /* \"Voting.sol\":4896:4897  i */\n      dup6\n        /* \"Voting.sol\":4883:4898  candidateIds[i] */\n      dup2\n      sload\n      dup2\n      lt\n      tag_67\n      jumpi\n      tag_68\n      tag_64\n      jump\t// in\n    tag_68:\n    tag_67:\n      swap1\n      0x00\n      mstore\n      keccak256(0x00, 0x20)\n      add\n      sload\n        /* \"Voting.sol\":4872:4899  candidates[candidateIds[i]] */\n      dup2\n      mstore\n      0x20\n      add\n      swap1\n      dup2\n      mstore\n      0x20\n      add\n      0x00\n      keccak256\n        /* \"Voting.sol\":4872:4904  candidates[candidateIds[i]].name */\n      0x01\n      add\n        /* \"Voting.sol\":4789:4911  abi.encodePacked(candidatesJson, '{\"id\":', uint2str(candidateIds[i]), ',\"name\":\"', candidates[candidateIds[i]].name, '\"}') */\n      add(0x20, mload(0x40))\n      tag_70\n      swap4\n      swap3\n      swap2\n      swap1\n      tag_71\n      jump\t// in\n    tag_70:\n      mload(0x40)\n      0x20\n      dup2\n      dup4\n      sub\n      sub\n      dup2\n      mstore\n      swap1\n      0x40\n      mstore\n        /* \"Voting.sol\":4765:4912  candidatesJson = string(abi.encodePacked(candidatesJson, '{\"id\":', uint2str(candidateIds[i]), ',\"name\":\"', candidates[candidateIds[i]].name, '\"}')) */\n      swap2\n      pop\n        /* \"Voting.sol\":4956:4957  1 */\n      0x01\n        /* \"Voting.sol\":4934:4946  candidateIds */\n      0x02\n        /* \"Voting.sol\":4934:4953  candidateIds.length */\n      dup1\n      sload\n      swap1\n      pop\n        /* \"Voting.sol\":4934:4957  candidateIds.length - 1 */\n      tag_72\n      swap2\n      swap1\n      tag_73\n      jump\t// in\n    tag_72:\n        /* \"Voting.sol\":4930:4931  i */\n      dup2\n        /* \"Voting.sol\":4930:4957  i < candidateIds.length - 1 */\n      lt\n        /* \"Voting.sol\":4926:5054  if (i < candidateIds.length - 1) {... */\n      iszero\n      tag_74\n      jumpi\n        /* \"Voting.sol\":5018:5032  candidatesJson */\n      dup2\n        /* \"Voting.sol\":5001:5038  abi.encodePacked(candidatesJson, ',') */\n      add(0x20, mload(0x40))\n      tag_75\n      swap2\n      swap1\n      tag_76\n      jump\t// in\n    tag_75:\n      mload(0x40)\n      0x20\n      dup2\n      dup4\n      sub\n      sub\n      dup2\n      mstore\n      swap1\n      0x40\n      mstore\n        /* \"Voting.sol\":4977:5039  candidatesJson = string(abi.encodePacked(candidatesJson, ',')) */\n      swap2\n      pop\n        /* \"Voting.sol\":4926:5054  if (i < candidateIds.length - 1) {... */\n    tag_74:\n        /* \"Voting.sol\":4746:4749  i++ */\n      dup1\n      dup1\n      tag_77\n      swap1\n      tag_49\n      jump\t// in\n    tag_77:\n      swap2\n      pop\n      pop\n        /* \"Voting.sol\":4704:5064  for (uint i = 0; i < candidateIds.length; i++) {... */\n      jump(tag_58)\n    tag_59:\n      pop\n        /* \"Voting.sol\":5114:5128  candidatesJson */\n      dup1\n        /* \"Voting.sol\":5097:5134  abi.encodePacked(candidatesJson, ']') */\n      add(0x20, mload(0x40))\n      tag_78\n      swap2\n      swap1\n      tag_79\n      jump\t// in\n    tag_78:\n      mload(0x40)\n      0x20\n      dup2\n      dup4\n      sub\n      sub\n      dup2\n      mstore\n      swap1\n      0x40\n      mstore\n        /* \"Voting.sol\":5073:5135  candidatesJson = string(abi.encodePacked(candidatesJson, ']')) */\n      swap1\n      pop\n        /* \"Voting.sol\":5152:5166  candidatesJson */\n      dup1\n        /* \"Voting.sol\":5145:5166  return candidatesJson */\n      swap2\n      pop\n      pop\n        /* \"Voting.sol\":4493:5173  function getCandidates() public view returns (string memory) {... */\n      swap1\n      jump\t// out\n        /* \"Voting.sol\":4227:4311  function getNullVotes() public view returns (uint) {... */\n    tag_21:\n        /* \"Voting.sol\":4272:4276  uint */\n      0x00\n        /* \"Voting.sol\":4295:4304  nullVotes */\n      sload(0x03)\n        /* \"Voting.sol\":4288:4304  return nullVotes */\n      swap1\n      pop\n        /* \"Voting.sol\":4227:4311  function getNullVotes() public view returns (uint) {... */\n      swap1\n      jump\t// out\n        /* \"Voting.sol\":3650:3777  function isOpen() public view returns (bool) {... */\n    tag_25:\n        /* \"Voting.sol\":3689:3693  bool */\n      0x00\n        /* \"Voting.sol\":3731:3740  startTime */\n      sload(0x05)\n        /* \"Voting.sol\":3712:3727  block.timestamp */\n      timestamp\n        /* \"Voting.sol\":3712:3740  block.timestamp >= startTime */\n      lt\n      iszero\n        /* \"Voting.sol\":3712:3770  block.timestamp >= startTime && block.timestamp <= endTime */\n      dup1\n      iszero\n      tag_82\n      jumpi\n      pop\n        /* \"Voting.sol\":3763:3770  endTime */\n      sload(0x06)\n        /* \"Voting.sol\":3744:3759  block.timestamp */\n      timestamp\n        /* \"Voting.sol\":3744:3770  block.timestamp <= endTime */\n      gt\n      iszero\n        /* \"Voting.sol\":3712:3770  block.timestamp >= startTime && block.timestamp <= endTime */\n    tag_82:\n        /* \"Voting.sol\":3705:3770  return block.timestamp >= startTime && block.timestamp <= endTime */\n      swap1\n      pop\n        /* \"Voting.sol\":3650:3777  function isOpen() public view returns (bool) {... */\n      swap1\n      jump\t// out\n        /* \"Voting.sol\":3849:4015  function getVoteCount(uint _candidateId) public view returns (uint) {... */\n    tag_30:\n        /* \"Voting.sol\":3911:3915  uint */\n      0x00\n        /* \"Voting.sol\":3935:3956  isValid(_candidateId) */\n      tag_84\n        /* \"Voting.sol\":3943:3955  _candidateId */\n      dup3\n        /* \"Voting.sol\":3935:3942  isValid */\n      tag_41\n        /* \"Voting.sol\":3935:3956  isValid(_candidateId) */\n      jump\t// in\n    tag_84:\n        /* \"Voting.sol\":3927:3957  require(isValid(_candidateId)) */\n      tag_85\n      jumpi\n      0x00\n      dup1\n      revert\n    tag_85:\n        /* \"Voting.sol\":3974:3984  candidates */\n      0x01\n        /* \"Voting.sol\":3974:3998  candidates[_candidateId] */\n      0x00\n        /* \"Voting.sol\":3985:3997  _candidateId */\n      dup4\n        /* \"Voting.sol\":3974:3998  candidates[_candidateId] */\n      dup2\n      mstore\n      0x20\n      add\n      swap1\n      dup2\n      mstore\n      0x20\n      add\n      0x00\n      keccak256\n        /* \"Voting.sol\":3974:4008  candidates[_candidateId].voteCount */\n      0x02\n      add\n      sload\n        /* \"Voting.sol\":3967:4008  return candidates[_candidateId].voteCount */\n      swap1\n      pop\n        /* \"Voting.sol\":3849:4015  function getVoteCount(uint _candidateId) public view returns (uint) {... */\n      swap2\n      swap1\n      pop\n      jump\t// out\n        /* \"Voting.sol\":4079:4165  function getBlankVotes() public view returns (uint) {... */\n    tag_33:\n        /* \"Voting.sol\":4125:4129  uint */\n      0x00\n        /* \"Voting.sol\":4148:4158  blankVotes */\n      sload(0x04)\n        /* \"Voting.sol\":4141:4158  return blankVotes */\n      swap1\n      pop\n        /* \"Voting.sol\":4079:4165  function getBlankVotes() public view returns (uint) {... */\n      swap1\n      jump\t// out\n        /* \"Voting.sol\":4371:4487  function getCandidateName(uint _id) public view returns (string memory) {... */\n    tag_37:\n        /* \"Voting.sol\":4428:4441  string memory */\n      0x60\n        /* \"Voting.sol\":4460:4470  candidates */\n      0x01\n        /* \"Voting.sol\":4460:4475  candidates[_id] */\n      0x00\n        /* \"Voting.sol\":4471:4474  _id */\n      dup4\n        /* \"Voting.sol\":4460:4475  candidates[_id] */\n      dup2\n      mstore\n      0x20\n      add\n      swap1\n      dup2\n      mstore\n      0x20\n      add\n      0x00\n      keccak256\n        /* \"Voting.sol\":4460:4480  candidates[_id].name */\n      0x01\n      add\n        /* \"Voting.sol\":4453:4480  return candidates[_id].name */\n      dup1\n      sload\n      tag_88\n      swap1\n      tag_89\n      jump\t// in\n    tag_88:\n      dup1\n      0x1f\n      add\n      0x20\n      dup1\n      swap2\n      div\n      mul\n      0x20\n      add\n      mload(0x40)\n      swap1\n      dup2\n      add\n      0x40\n      mstore\n      dup1\n      swap3\n      swap2\n      swap1\n      dup2\n      dup2\n      mstore\n      0x20\n      add\n      dup3\n      dup1\n      sload\n      tag_90\n      swap1\n      tag_89\n      jump\t// in\n    tag_90:\n      dup1\n      iszero\n      tag_91\n      jumpi\n      dup1\n      0x1f\n      lt\n      tag_92\n      jumpi\n      0x0100\n      dup1\n      dup4\n      sload\n      div\n      mul\n      dup4\n      mstore\n      swap2\n      0x20\n      add\n      swap2\n      jump(tag_91)\n    tag_92:\n      dup3\n      add\n      swap2\n      swap1\n      0x00\n      mstore\n      keccak256(0x00, 0x20)\n      swap1\n    tag_93:\n      dup2\n      sload\n      dup2\n      mstore\n      swap1\n      0x01\n      add\n      swap1\n      0x20\n      add\n      dup1\n      dup4\n      gt\n      tag_93\n      jumpi\n      dup3\n      swap1\n      sub\n      0x1f\n      and\n      dup3\n      add\n      swap2\n    tag_91:\n      pop\n      pop\n      pop\n      pop\n      pop\n      swap1\n      pop\n        /* \"Voting.sol\":4371:4487  function getCandidateName(uint _id) public view returns (string memory) {... */\n      swap2\n      swap1\n      pop\n      jump\t// out\n        /* \"Voting.sol\":5236:5398  function isValid(uint _id) public view returns (bool) {... */\n    tag_41:\n        /* \"Voting.sol\":5284:5288  bool */\n      0x00\n        /* \"Voting.sol\":5370:5390  abi.encodePacked(\"\") */\n      add(0x20, mload(0x40))\n      tag_95\n      swap1\n      tag_96\n      jump\t// in\n    tag_95:\n      mload(0x40)\n      0x20\n      dup2\n      dup4\n      sub\n      sub\n      dup2\n      mstore\n      swap1\n      0x40\n      mstore\n        /* \"Voting.sol\":5360:5391  keccak256(abi.encodePacked(\"\")) */\n      dup1\n      mload\n      swap1\n      0x20\n      add\n      keccak256\n        /* \"Voting.sol\":5334:5344  candidates */\n      0x01\n        /* \"Voting.sol\":5334:5349  candidates[_id] */\n      0x00\n        /* \"Voting.sol\":5345:5348  _id */\n      dup5\n        /* \"Voting.sol\":5334:5349  candidates[_id] */\n      dup2\n      mstore\n      0x20\n      add\n      swap1\n      dup2\n      mstore\n      0x20\n      add\n      0x00\n      keccak256\n        /* \"Voting.sol\":5334:5354  candidates[_id].name */\n      0x01\n      add\n        /* \"Voting.sol\":5317:5355  abi.encodePacked(candidates[_id].name) */\n      add(0x20, mload(0x40))\n      tag_97\n      swap2\n      swap1\n      tag_98\n      jump\t// in\n    tag_97:\n      mload(0x40)\n      0x20\n      dup2\n      dup4\n      sub\n      sub\n      dup2\n      mstore\n      swap1\n      0x40\n      mstore\n        /* \"Voting.sol\":5307:5356  keccak256(abi.encodePacked(candidates[_id].name)) */\n      dup1\n      mload\n      swap1\n      0x20\n      add\n      keccak256\n        /* \"Voting.sol\":5307:5391  keccak256(abi.encodePacked(candidates[_id].name)) != keccak256(abi.encodePacked(\"\")) */\n      eq\n      iszero\n        /* \"Voting.sol\":5300:5391  return keccak256(abi.encodePacked(candidates[_id].name)) != keccak256(abi.encodePacked(\"\")) */\n      swap1\n      pop\n        /* \"Voting.sol\":5236:5398  function isValid(uint _id) public view returns (bool) {... */\n      swap2\n      swap1\n      pop\n      jump\t// out\n        /* \"Voting.sol\":5405:6030  function uint2str(uint v) internal pure returns (string memory) {... */\n    tag_66:\n        /* \"Voting.sol\":5454:5467  string memory */\n      0x60\n        /* \"Voting.sol\":5479:5493  uint maxlength */\n      0x00\n        /* \"Voting.sol\":5496:5499  100 */\n      0x64\n        /* \"Voting.sol\":5479:5499  uint maxlength = 100 */\n      swap1\n      pop\n        /* \"Voting.sol\":5509:5530  bytes memory reversed */\n      0x00\n        /* \"Voting.sol\":5543:5552  maxlength */\n      dup2\n        /* \"Voting.sol\":5533:5553  new bytes(maxlength) */\n      0xffffffffffffffff\n      dup2\n      gt\n      iszero\n      tag_100\n      jumpi\n      tag_101\n      tag_102\n      jump\t// in\n    tag_101:\n    tag_100:\n      mload(0x40)\n      swap1\n      dup1\n      dup3\n      mstore\n      dup1\n      0x1f\n      add\n      not(0x1f)\n      and\n      0x20\n      add\n      dup3\n      add\n      0x40\n      mstore\n      dup1\n      iszero\n      tag_103\n      jumpi\n      dup2\n      0x20\n      add\n      0x01\n      dup3\n      mul\n      dup1\n      calldatasize\n      dup4\n      calldatacopy\n      dup1\n      dup3\n      add\n      swap2\n      pop\n      pop\n      swap1\n      pop\n    tag_103:\n      pop\n        /* \"Voting.sol\":5509:5553  bytes memory reversed = new bytes(maxlength) */\n      swap1\n      pop\n        /* \"Voting.sol\":5563:5569  uint i */\n      0x00\n        /* \"Voting.sol\":5583:5729  while (v != 0) {... */\n    tag_104:\n        /* \"Voting.sol\":5595:5596  0 */\n      0x00\n        /* \"Voting.sol\":5590:5591  v */\n      dup6\n        /* \"Voting.sol\":5590:5596  v != 0 */\n      eq\n        /* \"Voting.sol\":5583:5729  while (v != 0) {... */\n      tag_105\n      jumpi\n        /* \"Voting.sol\":5612:5626  uint remainder */\n      0x00\n        /* \"Voting.sol\":5633:5635  10 */\n      0x0a\n        /* \"Voting.sol\":5629:5630  v */\n      dup7\n        /* \"Voting.sol\":5629:5635  v % 10 */\n      tag_106\n      swap2\n      swap1\n      tag_107\n      jump\t// in\n    tag_106:\n        /* \"Voting.sol\":5612:5635  uint remainder = v % 10 */\n      swap1\n      pop\n        /* \"Voting.sol\":5657:5659  10 */\n      0x0a\n        /* \"Voting.sol\":5653:5654  v */\n      dup7\n        /* \"Voting.sol\":5653:5659  v / 10 */\n      tag_108\n      swap2\n      swap1\n      tag_109\n      jump\t// in\n    tag_108:\n        /* \"Voting.sol\":5649:5659  v = v / 10 */\n      swap6\n      pop\n        /* \"Voting.sol\":5707:5716  remainder */\n      dup1\n        /* \"Voting.sol\":5702:5704  48 */\n      0x30\n        /* \"Voting.sol\":5702:5716  48 + remainder */\n      tag_110\n      swap2\n      swap1\n      tag_111\n      jump\t// in\n    tag_110:\n        /* \"Voting.sol\":5689:5718  bytes1(uint8(48 + remainder)) */\n      0xf8\n      shl\n        /* \"Voting.sol\":5673:5681  reversed */\n      dup4\n        /* \"Voting.sol\":5682:5685  i++ */\n      dup4\n      dup1\n      tag_112\n      swap1\n      tag_49\n      jump\t// in\n    tag_112:\n      swap5\n      pop\n        /* \"Voting.sol\":5673:5686  reversed[i++] */\n      dup2\n      mload\n      dup2\n      lt\n      tag_113\n      jumpi\n      tag_114\n      tag_64\n      jump\t// in\n    tag_114:\n    tag_113:\n      0x20\n      add\n      add\n        /* \"Voting.sol\":5673:5718  reversed[i++] = bytes1(uint8(48 + remainder)) */\n      swap1\n      not(0xffffffffffffffffffffffffffffffffffffffffffffffffffffffffffffff)\n      and\n      swap1\n      dup2\n      0x00\n      byte\n      swap1\n      mstore8\n      pop\n        /* \"Voting.sol\":5598:5729  {... */\n      pop\n        /* \"Voting.sol\":5583:5729  while (v != 0) {... */\n      jump(tag_104)\n    tag_105:\n        /* \"Voting.sol\":5738:5752  bytes memory s */\n      0x00\n        /* \"Voting.sol\":5765:5766  i */\n      dup2\n        /* \"Voting.sol\":5755:5767  new bytes(i) */\n      0xffffffffffffffff\n      dup2\n      gt\n      iszero\n      tag_115\n      jumpi\n      tag_116\n      tag_102\n      jump\t// in\n    tag_116:\n    tag_115:\n      mload(0x40)\n      swap1\n      dup1\n      dup3\n      mstore\n      dup1\n      0x1f\n      add\n      not(0x1f)\n      and\n      0x20\n      add\n      dup3\n      add\n      0x40\n      mstore\n      dup1\n      iszero\n      tag_117\n      jumpi\n      dup2\n      0x20\n      add\n      0x01\n      dup3\n      mul\n      dup1\n      calldatasize\n      dup4\n      calldatacopy\n      dup1\n      dup3\n      add\n      swap2\n      pop\n      pop\n      swap1\n      pop\n    tag_117:\n      pop\n        /* \"Voting.sol\":5738:5767  bytes memory s = new bytes(i) */\n      swap1\n      pop\n        /* \"Voting.sol\":5806:5812  uint j */\n      0x00\n        /* \"Voting.sol\":5801:5914  for (uint j = 0; j < i; j++) {... */\n    tag_118:\n        /* \"Voting.sol\":5822:5823  i */\n      dup3\n        /* \"Voting.sol\":5818:5819  j */\n      dup2\n        /* \"Voting.sol\":5818:5823  j < i */\n      lt\n        /* \"Voting.sol\":5801:5914  for (uint j = 0; j < i; j++) {... */\n      iszero\n      tag_119\n      jumpi\n        /* \"Voting.sol\":5851:5859  reversed */\n      dup4\n        /* \"Voting.sol\":5868:5869  1 */\n      0x01\n        /* \"Voting.sol\":5864:5865  j */\n      dup3\n        /* \"Voting.sol\":5860:5861  i */\n      dup6\n        /* \"Voting.sol\":5860:5865  i - j */\n      tag_121\n      swap2\n      swap1\n      tag_73\n      jump\t// in\n    tag_121:\n        /* \"Voting.sol\":5860:5869  i - j - 1 */\n      tag_122\n      swap2\n      swap1\n      tag_73\n      jump\t// in\n    tag_122:\n        /* \"Voting.sol\":5851:5870  reversed[i - j - 1] */\n      dup2\n      mload\n      dup2\n      lt\n      tag_123\n      jumpi\n      tag_124\n      tag_64\n      jump\t// in\n    tag_124:\n    tag_123:\n      0x20\n      add\n      add\n      mload\n      0xf8\n      shr\n      0xf8\n      shl\n        /* \"Voting.sol\":5844:5845  s */\n      dup3\n        /* \"Voting.sol\":5846:5847  j */\n      dup3\n        /* \"Voting.sol\":5844:5848  s[j] */\n      dup2\n      mload\n      dup2\n      lt\n      tag_125\n      jumpi\n      tag_126\n      tag_64\n      jump\t// in\n    tag_126:\n    tag_125:\n      0x20\n      add\n      add\n        /* \"Voting.sol\":5844:5870  s[j] = reversed[i - j - 1] */\n      swap1\n      not(0xffffffffffffffffffffffffffffffffffffffffffffffffffffffffffffff)\n      and\n      swap1\n      dup2\n      0x00\n      byte\n      swap1\n      mstore8\n      pop\n        /* \"Voting.sol\":5825:5828  j++ */\n      dup1\n      dup1\n      tag_127\n      swap1\n      tag_49\n      jump\t// in\n    tag_127:\n      swap2\n      pop\n      pop\n        /* \"Voting.sol\":5801:5914  for (uint j = 0; j < i; j++) {... */\n      jump(tag_118)\n    tag_119:\n      pop\n        /* \"Voting.sol\":5923:5940  string memory str */\n      0x00\n        /* \"Voting.sol\":5950:5951  s */\n      dup2\n        /* \"Voting.sol\":5923:5952  string memory str = string(s) */\n      swap1\n      pop\n        /* \"Voting.sol\":6020:6023  str */\n      dup1\n        /* \"Voting.sol\":6013:6023  return str */\n      swap6\n      pop\n      pop\n      pop\n      pop\n      pop\n      pop\n        /* \"Voting.sol\":5405:6030  function uint2str(uint v) internal pure returns (string memory) {... */\n      swap2\n      swap1\n      pop\n      jump\t// out\n        /* \"#utility.yul\":88:205   */\n    tag_129:\n        /* \"#utility.yul\":197:198   */\n      0x00\n        /* \"#utility.yul\":194:195   */\n      dup1\n        /* \"#utility.yul\":187:199   */\n      revert\n        /* \"#utility.yul\":334:411   */\n    tag_131:\n        /* \"#utility.yul\":371:378   */\n      0x00\n        /* \"#utility.yul\":400:405   */\n      dup2\n        /* \"#utility.yul\":389:405   */\n      swap1\n      pop\n        /* \"#utility.yul\":334:411   */\n      swap2\n      swap1\n      pop\n      jump\t// out\n        /* \"#utility.yul\":417:539   */\n    tag_132:\n        /* \"#utility.yul\":490:514   */\n      tag_170\n        /* \"#utility.yul\":508:513   */\n      dup2\n        /* \"#utility.yul\":490:514   */\n      tag_131\n      jump\t// in\n    tag_170:\n        /* \"#utility.yul\":483:488   */\n      dup2\n        /* \"#utility.yul\":480:515   */\n      eq\n        /* \"#utility.yul\":470:533   */\n      tag_171\n      jumpi\n        /* \"#utility.yul\":529:530   */\n      0x00\n        /* \"#utility.yul\":526:527   */\n      dup1\n        /* \"#utility.yul\":519:531   */\n      revert\n        /* \"#utility.yul\":470:533   */\n    tag_171:\n        /* \"#utility.yul\":417:539   */\n      pop\n      jump\t// out\n        /* \"#utility.yul\":545:684   */\n    tag_133:\n        /* \"#utility.yul\":591:596   */\n      0x00\n        /* \"#utility.yul\":629:635   */\n      dup2\n        /* \"#utility.yul\":616:636   */\n      calldataload\n        /* \"#utility.yul\":607:636   */\n      swap1\n      pop\n        /* \"#utility.yul\":645:678   */\n      tag_173\n        /* \"#utility.yul\":672:677   */\n      dup2\n        /* \"#utility.yul\":645:678   */\n      tag_132\n      jump\t// in\n    tag_173:\n        /* \"#utility.yul\":545:684   */\n      swap3\n      swap2\n      pop\n      pop\n      jump\t// out\n        /* \"#utility.yul\":690:1019   */\n    tag_14:\n        /* \"#utility.yul\":749:755   */\n      0x00\n        /* \"#utility.yul\":798:800   */\n      0x20\n        /* \"#utility.yul\":786:795   */\n      dup3\n        /* \"#utility.yul\":777:784   */\n      dup5\n        /* \"#utility.yul\":773:796   */\n      sub\n        /* \"#utility.yul\":769:801   */\n      slt\n        /* \"#utility.yul\":766:885   */\n      iszero\n      tag_175\n      jumpi\n        /* \"#utility.yul\":804:883   */\n      tag_176\n      tag_129\n      jump\t// in\n    tag_176:\n        /* \"#utility.yul\":766:885   */\n    tag_175:\n        /* \"#utility.yul\":924:925   */\n      0x00\n        /* \"#utility.yul\":949:1002   */\n      tag_177\n        /* \"#utility.yul\":994:1001   */\n      dup5\n        /* \"#utility.yul\":985:991   */\n      dup3\n        /* \"#utility.yul\":974:983   */\n      dup6\n        /* \"#utility.yul\":970:992   */\n      add\n        /* \"#utility.yul\":949:1002   */\n      tag_133\n      jump\t// in\n    tag_177:\n        /* \"#utility.yul\":939:1002   */\n      swap2\n      pop\n        /* \"#utility.yul\":895:1012   */\n      pop\n        /* \"#utility.yul\":690:1019   */\n      swap3\n      swap2\n      pop\n      pop\n      jump\t// out\n        /* \"#utility.yul\":1025:1124   */\n    tag_134:\n        /* \"#utility.yul\":1077:1083   */\n      0x00\n        /* \"#utility.yul\":1111:1116   */\n      dup2\n        /* \"#utility.yul\":1105:1117   */\n      mload\n        /* \"#utility.yul\":1095:1117   */\n      swap1\n      pop\n        /* \"#utility.yul\":1025:1124   */\n      swap2\n      swap1\n      pop\n      jump\t// out\n        /* \"#utility.yul\":1130:1299   */\n    tag_135:\n        /* \"#utility.yul\":1214:1225   */\n      0x00\n        /* \"#utility.yul\":1248:1254   */\n      dup3\n        /* \"#utility.yul\":1243:1246   */\n      dup3\n        /* \"#utility.yul\":1236:1255   */\n      mstore\n        /* \"#utility.yul\":1288:1292   */\n      0x20\n        /* \"#utility.yul\":1283:1286   */\n      dup3\n        /* \"#utility.yul\":1279:1293   */\n      add\n        /* \"#utility.yul\":1264:1293   */\n      swap1\n      pop\n        /* \"#utility.yul\":1130:1299   */\n      swap3\n      swap2\n      pop\n      pop\n      jump\t// out\n        /* \"#utility.yul\":1305:1551   */\n    tag_136:\n        /* \"#utility.yul\":1386:1387   */\n      0x00\n        /* \"#utility.yul\":1396:1509   */\n    tag_181:\n        /* \"#utility.yul\":1410:1416   */\n      dup4\n        /* \"#utility.yul\":1407:1408   */\n      dup2\n        /* \"#utility.yul\":1404:1417   */\n      lt\n        /* \"#utility.yul\":1396:1509   */\n      iszero\n      tag_183\n      jumpi\n        /* \"#utility.yul\":1495:1496   */\n      dup1\n        /* \"#utility.yul\":1490:1493   */\n      dup3\n        /* \"#utility.yul\":1486:1497   */\n      add\n        /* \"#utility.yul\":1480:1498   */\n      mload\n        /* \"#utility.yul\":1476:1477   */\n      dup2\n        /* \"#utility.yul\":1471:1474   */\n      dup5\n        /* \"#utility.yul\":1467:1478   */\n      add\n        /* \"#utility.yul\":1460:1499   */\n      mstore\n        /* \"#utility.yul\":1432:1434   */\n      0x20\n        /* \"#utility.yul\":1429:1430   */\n      dup2\n        /* \"#utility.yul\":1425:1435   */\n      add\n        /* \"#utility.yul\":1420:1435   */\n      swap1\n      pop\n        /* \"#utility.yul\":1396:1509   */\n      jump(tag_181)\n    tag_183:\n        /* \"#utility.yul\":1543:1544   */\n      0x00\n        /* \"#utility.yul\":1534:1540   */\n      dup5\n        /* \"#utility.yul\":1529:1532   */\n      dup5\n        /* \"#utility.yul\":1525:1541   */\n      add\n        /* \"#utility.yul\":1518:1545   */\n      mstore\n        /* \"#utility.yul\":1367:1551   */\n      pop\n        /* \"#utility.yul\":1305:1551   */\n      pop\n      pop\n      pop\n      jump\t// out\n        /* \"#utility.yul\":1557:1659   */\n    tag_137:\n        /* \"#utility.yul\":1598:1604   */\n      0x00\n        /* \"#utility.yul\":1649:1651   */\n      0x1f\n        /* \"#utility.yul\":1645:1652   */\n      not\n        /* \"#utility.yul\":1640:1642   */\n      0x1f\n        /* \"#utility.yul\":1633:1638   */\n      dup4\n        /* \"#utility.yul\":1629:1643   */\n      add\n        /* \"#utility.yul\":1625:1653   */\n      and\n        /* \"#utility.yul\":1615:1653   */\n      swap1\n      pop\n        /* \"#utility.yul\":1557:1659   */\n      swap2\n      swap1\n      pop\n      jump\t// out\n        /* \"#utility.yul\":1665:2042   */\n    tag_138:\n        /* \"#utility.yul\":1753:1756   */\n      0x00\n        /* \"#utility.yul\":1781:1820   */\n      tag_186\n        /* \"#utility.yul\":1814:1819   */\n      dup3\n        /* \"#utility.yul\":1781:1820   */\n      tag_134\n      jump\t// in\n    tag_186:\n        /* \"#utility.yul\":1836:1907   */\n      tag_187\n        /* \"#utility.yul\":1900:1906   */\n      dup2\n        /* \"#utility.yul\":1895:1898   */\n      dup6\n        /* \"#utility.yul\":1836:1907   */\n      tag_135\n      jump\t// in\n    tag_187:\n        /* \"#utility.yul\":1829:1907   */\n      swap4\n      pop\n        /* \"#utility.yul\":1916:1981   */\n      tag_188\n        /* \"#utility.yul\":1974:1980   */\n      dup2\n        /* \"#utility.yul\":1969:1972   */\n      dup6\n        /* \"#utility.yul\":1962:1966   */\n      0x20\n        /* \"#utility.yul\":1955:1960   */\n      dup7\n        /* \"#utility.yul\":1951:1967   */\n      add\n        /* \"#utility.yul\":1916:1981   */\n      tag_136\n      jump\t// in\n    tag_188:\n        /* \"#utility.yul\":2006:2035   */\n      tag_189\n        /* \"#utility.yul\":2028:2034   */\n      dup2\n        /* \"#utility.yul\":2006:2035   */\n      tag_137\n      jump\t// in\n    tag_189:\n        /* \"#utility.yul\":2001:2004   */\n      dup5\n        /* \"#utility.yul\":1997:2036   */\n      add\n        /* \"#utility.yul\":1990:2036   */\n      swap2\n      pop\n        /* \"#utility.yul\":1757:2042   */\n      pop\n        /* \"#utility.yul\":1665:2042   */\n      swap3\n      swap2\n      pop\n      pop\n      jump\t// out\n        /* \"#utility.yul\":2048:2361   */\n    tag_19:\n        /* \"#utility.yul\":2161:2165   */\n      0x00\n        /* \"#utility.yul\":2199:2201   */\n      0x20\n        /* \"#utility.yul\":2188:2197   */\n      dup3\n        /* \"#utility.yul\":2184:2202   */\n      add\n        /* \"#utility.yul\":2176:2202   */\n      swap1\n      pop\n        /* \"#utility.yul\":2248:2257   */\n      dup2\n        /* \"#utility.yul\":2242:2246   */\n      dup2\n        /* \"#utility.yul\":2238:2258   */\n      sub\n        /* \"#utility.yul\":2234:2235   */\n      0x00\n        /* \"#utility.yul\":2223:2232   */\n      dup4\n        /* \"#utility.yul\":2219:2236   */\n      add\n        /* \"#utility.yul\":2212:2259   */\n      mstore\n        /* \"#utility.yul\":2276:2354   */\n      tag_191\n        /* \"#utility.yul\":2349:2353   */\n      dup2\n        /* \"#utility.yul\":2340:2346   */\n      dup5\n        /* \"#utility.yul\":2276:2354   */\n      tag_138\n      jump\t// in\n    tag_191:\n        /* \"#utility.yul\":2268:2354   */\n      swap1\n      pop\n        /* \"#utility.yul\":2048:2361   */\n      swap3\n      swap2\n      pop\n      pop\n      jump\t// out\n        /* \"#utility.yul\":2367:2485   */\n    tag_139:\n        /* \"#utility.yul\":2454:2478   */\n      tag_193\n        /* \"#utility.yul\":2472:2477   */\n      dup2\n        /* \"#utility.yul\":2454:2478   */\n      tag_131\n      jump\t// in\n    tag_193:\n        /* \"#utility.yul\":2449:2452   */\n      dup3\n        /* \"#utility.yul\":2442:2479   */\n      mstore\n        /* \"#utility.yul\":2367:2485   */\n      pop\n      pop\n      jump\t// out\n        /* \"#utility.yul\":2491:2713   */\n    tag_23:\n        /* \"#utility.yul\":2584:2588   */\n      0x00\n        /* \"#utility.yul\":2622:2624   */\n      0x20\n        /* \"#utility.yul\":2611:2620   */\n      dup3\n        /* \"#utility.yul\":2607:2625   */\n      add\n        /* \"#utility.yul\":2599:2625   */\n      swap1\n      pop\n        /* \"#utility.yul\":2635:2706   */\n      tag_195\n        /* \"#utility.yul\":2703:2704   */\n      0x00\n        /* \"#utility.yul\":2692:2701   */\n      dup4\n        /* \"#utility.yul\":2688:2705   */\n      add\n        /* \"#utility.yul\":2679:2685   */\n      dup5\n        /* \"#utility.yul\":2635:2706   */\n      tag_139\n      jump\t// in\n    tag_195:\n        /* \"#utility.yul\":2491:2713   */\n      swap3\n      swap2\n      pop\n      pop\n      jump\t// out\n        /* \"#utility.yul\":2719:2809   */\n    tag_140:\n        /* \"#utility.yul\":2753:2760   */\n      0x00\n        /* \"#utility.yul\":2796:2801   */\n      dup2\n        /* \"#utility.yul\":2789:2802   */\n      iszero\n        /* \"#utility.yul\":2782:2803   */\n      iszero\n        /* \"#utility.yul\":2771:2803   */\n      swap1\n      pop\n        /* \"#utility.yul\":2719:2809   */\n      swap2\n      swap1\n      pop\n      jump\t// out\n        /* \"#utility.yul\":2815:2924   */\n    tag_141:\n        /* \"#utility.yul\":2896:2917   */\n      tag_198\n        /* \"#utility.yul\":2911:2916   */\n      dup2\n        /* \"#utility.yul\":2896:2917   */\n      tag_140\n      jump\t// in\n    tag_198:\n        /* \"#utility.yul\":2891:2894   */\n      dup3\n        /* \"#utility.yul\":2884:2918   */\n      mstore\n        /* \"#utility.yul\":2815:2924   */\n      pop\n      pop\n      jump\t// out\n        /* \"#utility.yul\":2930:3140   */\n    tag_27:\n        /* \"#utility.yul\":3017:3021   */\n      0x00\n        /* \"#utility.yul\":3055:3057   */\n      0x20\n        /* \"#utility.yul\":3044:3053   */\n      dup3\n        /* \"#utility.yul\":3040:3058   */\n      add\n        /* \"#utility.yul\":3032:3058   */\n      swap1\n      pop\n        /* \"#utility.yul\":3068:3133   */\n      tag_200\n        /* \"#utility.yul\":3130:3131   */\n      0x00\n        /* \"#utility.yul\":3119:3128   */\n      dup4\n        /* \"#utility.yul\":3115:3132   */\n      add\n        /* \"#utility.yul\":3106:3112   */\n      dup5\n        /* \"#utility.yul\":3068:3133   */\n      tag_141\n      jump\t// in\n    tag_200:\n        /* \"#utility.yul\":2930:3140   */\n      swap3\n      swap2\n      pop\n      pop\n      jump\t// out\n        /* \"#utility.yul\":3146:3326   */\n    tag_142:\n        /* \"#utility.yul\":3194:3271   */\n      0x4e487b7100000000000000000000000000000000000000000000000000000000\n        /* \"#utility.yul\":3191:3192   */\n      0x00\n        /* \"#utility.yul\":3184:3272   */\n      mstore\n        /* \"#utility.yul\":3291:3295   */\n      0x11\n        /* \"#utility.yul\":3288:3289   */\n      0x04\n        /* \"#utility.yul\":3281:3296   */\n      mstore\n        /* \"#utility.yul\":3315:3319   */\n      0x24\n        /* \"#utility.yul\":3312:3313   */\n      0x00\n        /* \"#utility.yul\":3305:3320   */\n      revert\n        /* \"#utility.yul\":3332:3565   */\n    tag_49:\n        /* \"#utility.yul\":3371:3374   */\n      0x00\n        /* \"#utility.yul\":3394:3418   */\n      tag_203\n        /* \"#utility.yul\":3412:3417   */\n      dup3\n        /* \"#utility.yul\":3394:3418   */\n      tag_131\n      jump\t// in\n    tag_203:\n        /* \"#utility.yul\":3385:3418   */\n      swap2\n      pop\n        /* \"#utility.yul\":3440:3506   */\n      0xffffffffffffffffffffffffffffffffffffffffffffffffffffffffffffffff\n        /* \"#utility.yul\":3433:3438   */\n      dup3\n        /* \"#utility.yul\":3430:3507   */\n      sub\n        /* \"#utility.yul\":3427:3530   */\n      tag_204\n      jumpi\n        /* \"#utility.yul\":3510:3528   */\n      tag_205\n      tag_142\n      jump\t// in\n    tag_205:\n        /* \"#utility.yul\":3427:3530   */\n    tag_204:\n        /* \"#utility.yul\":3557:3558   */\n      0x01\n        /* \"#utility.yul\":3550:3555   */\n      dup3\n        /* \"#utility.yul\":3546:3559   */\n      add\n        /* \"#utility.yul\":3539:3559   */\n      swap1\n      pop\n        /* \"#utility.yul\":3332:3565   */\n      swap2\n      swap1\n      pop\n      jump\t// out\n        /* \"#utility.yul\":3571:3697   */\n    tag_143:\n        /* \"#utility.yul\":3608:3615   */\n      0x00\n        /* \"#utility.yul\":3648:3690   */\n      0xffffffffffffffffffffffffffffffffffffffff\n        /* \"#utility.yul\":3641:3646   */\n      dup3\n        /* \"#utility.yul\":3637:3691   */\n      and\n        /* \"#utility.yul\":3626:3691   */\n      swap1\n      pop\n        /* \"#utility.yul\":3571:3697   */\n      swap2\n      swap1\n      pop\n      jump\t// out\n        /* \"#utility.yul\":3703:3799   */\n    tag_144:\n        /* \"#utility.yul\":3740:3747   */\n      0x00\n        /* \"#utility.yul\":3769:3793   */\n      tag_208\n        /* \"#utility.yul\":3787:3792   */\n      dup3\n        /* \"#utility.yul\":3769:3793   */\n      tag_143\n      jump\t// in\n    tag_208:\n        /* \"#utility.yul\":3758:3793   */\n      swap1\n      pop\n        /* \"#utility.yul\":3703:3799   */\n      swap2\n      swap1\n      pop\n      jump\t// out\n        /* \"#utility.yul\":3805:3923   */\n    tag_145:\n        /* \"#utility.yul\":3892:3916   */\n      tag_210\n        /* \"#utility.yul\":3910:3915   */\n      dup2\n        /* \"#utility.yul\":3892:3916   */\n      tag_144\n      jump\t// in\n    tag_210:\n        /* \"#utility.yul\":3887:3890   */\n      dup3\n        /* \"#utility.yul\":3880:3917   */\n      mstore\n        /* \"#utility.yul\":3805:3923   */\n      pop\n      pop\n      jump\t// out\n        /* \"#utility.yul\":3929:4151   */\n    tag_56:\n        /* \"#utility.yul\":4022:4026   */\n      0x00\n        /* \"#utility.yul\":4060:4062   */\n      0x20\n        /* \"#utility.yul\":4049:4058   */\n      dup3\n        /* \"#utility.yul\":4045:4063   */\n      add\n        /* \"#utility.yul\":4037:4063   */\n      swap1\n      pop\n        /* \"#utility.yul\":4073:4144   */\n      tag_212\n        /* \"#utility.yul\":4141:4142   */\n      0x00\n        /* \"#utility.yul\":4130:4139   */\n      dup4\n        /* \"#utility.yul\":4126:4143   */\n      add\n        /* \"#utility.yul\":4117:4123   */\n      dup5\n        /* \"#utility.yul\":4073:4144   */\n      tag_145\n      jump\t// in\n    tag_212:\n        /* \"#utility.yul\":3929:4151   */\n      swap3\n      swap2\n      pop\n      pop\n      jump\t// out\n        /* \"#utility.yul\":4157:4337   */\n    tag_64:\n        /* \"#utility.yul\":4205:4282   */\n      0x4e487b7100000000000000000000000000000000000000000000000000000000\n        /* \"#utility.yul\":4202:4203   */\n      0x00\n        /* \"#utility.yul\":4195:4283   */\n      mstore\n        /* \"#utility.yul\":4302:4306   */\n      0x32\n        /* \"#utility.yul\":4299:4300   */\n      0x04\n        /* \"#utility.yul\":4292:4307   */\n      mstore\n        /* \"#utility.yul\":4326:4330   */\n      0x24\n        /* \"#utility.yul\":4323:4324   */\n      0x00\n        /* \"#utility.yul\":4316:4331   */\n      revert\n        /* \"#utility.yul\":4343:4491   */\n    tag_146:\n        /* \"#utility.yul\":4445:4456   */\n      0x00\n        /* \"#utility.yul\":4482:4485   */\n      dup2\n        /* \"#utility.yul\":4467:4485   */\n      swap1\n      pop\n        /* \"#utility.yul\":4343:4491   */\n      swap3\n      swap2\n      pop\n      pop\n      jump\t// out\n        /* \"#utility.yul\":4497:4887   */\n    tag_147:\n        /* \"#utility.yul\":4603:4606   */\n      0x00\n        /* \"#utility.yul\":4631:4670   */\n      tag_216\n        /* \"#utility.yul\":4664:4669   */\n      dup3\n        /* \"#utility.yul\":4631:4670   */\n      tag_134\n      jump\t// in\n    tag_216:\n        /* \"#utility.yul\":4686:4775   */\n      tag_217\n        /* \"#utility.yul\":4768:4774   */\n      dup2\n        /* \"#utility.yul\":4763:4766   */\n      dup6\n        /* \"#utility.yul\":4686:4775   */\n      tag_146\n      jump\t// in\n    tag_217:\n        /* \"#utility.yul\":4679:4775   */\n      swap4\n      pop\n        /* \"#utility.yul\":4784:4849   */\n      tag_218\n        /* \"#utility.yul\":4842:4848   */\n      dup2\n        /* \"#utility.yul\":4837:4840   */\n      dup6\n        /* \"#utility.yul\":4830:4834   */\n      0x20\n        /* \"#utility.yul\":4823:4828   */\n      dup7\n        /* \"#utility.yul\":4819:4835   */\n      add\n        /* \"#utility.yul\":4784:4849   */\n      tag_136\n      jump\t// in\n    tag_218:\n        /* \"#utility.yul\":4874:4880   */\n      dup1\n        /* \"#utility.yul\":4869:4872   */\n      dup5\n        /* \"#utility.yul\":4865:4881   */\n      add\n        /* \"#utility.yul\":4858:4881   */\n      swap2\n      pop\n        /* \"#utility.yul\":4607:4887   */\n      pop\n        /* \"#utility.yul\":4497:4887   */\n      swap3\n      swap2\n      pop\n      pop\n      jump\t// out\n        /* \"#utility.yul\":4893:5107   */\n    tag_148:\n        /* \"#utility.yul\":5033:5099   */\n      0x7b226964223a0000000000000000000000000000000000000000000000000000\n        /* \"#utility.yul\":5029:5030   */\n      0x00\n        /* \"#utility.yul\":5021:5027   */\n      dup3\n        /* \"#utility.yul\":5017:5031   */\n      add\n        /* \"#utility.yul\":5010:5100   */\n      mstore\n        /* \"#utility.yul\":4893:5107   */\n      pop\n      jump\t// out\n        /* \"#utility.yul\":5113:5513   */\n    tag_149:\n        /* \"#utility.yul\":5273:5276   */\n      0x00\n        /* \"#utility.yul\":5294:5378   */\n      tag_221\n        /* \"#utility.yul\":5376:5377   */\n      0x06\n        /* \"#utility.yul\":5371:5374   */\n      dup4\n        /* \"#utility.yul\":5294:5378   */\n      tag_146\n      jump\t// in\n    tag_221:\n        /* \"#utility.yul\":5287:5378   */\n      swap2\n      pop\n        /* \"#utility.yul\":5387:5480   */\n      tag_222\n        /* \"#utility.yul\":5476:5479   */\n      dup3\n        /* \"#utility.yul\":5387:5480   */\n      tag_148\n      jump\t// in\n    tag_222:\n        /* \"#utility.yul\":5505:5506   */\n      0x06\n        /* \"#utility.yul\":5500:5503   */\n      dup3\n        /* \"#utility.yul\":5496:5507   */\n      add\n        /* \"#utility.yul\":5489:5507   */\n      swap1\n      pop\n        /* \"#utility.yul\":5113:5513   */\n      swap2\n      swap1\n      pop\n      jump\t// out\n        /* \"#utility.yul\":5519:5733   */\n    tag_150:\n        /* \"#utility.yul\":5659:5725   */\n      0x2c226e616d65223a220000000000000000000000000000000000000000000000\n        /* \"#utility.yul\":5655:5656   */\n      0x00\n        /* \"#utility.yul\":5647:5653   */\n      dup3\n        /* \"#utility.yul\":5643:5657   */\n      add\n        /* \"#utility.yul\":5636:5726   */\n      mstore\n        /* \"#utility.yul\":5519:5733   */\n      pop\n      jump\t// out\n        /* \"#utility.yul\":5739:6139   */\n    tag_151:\n        /* \"#utility.yul\":5899:5902   */\n      0x00\n        /* \"#utility.yul\":5920:6004   */\n      tag_225\n        /* \"#utility.yul\":6002:6003   */\n      0x09\n        /* \"#utility.yul\":5997:6000   */\n      dup4\n        /* \"#utility.yul\":5920:6004   */\n      tag_146\n      jump\t// in\n    tag_225:\n        /* \"#utility.yul\":5913:6004   */\n      swap2\n      pop\n        /* \"#utility.yul\":6013:6106   */\n      tag_226\n        /* \"#utility.yul\":6102:6105   */\n      dup3\n        /* \"#utility.yul\":6013:6106   */\n      tag_150\n      jump\t// in\n    tag_226:\n        /* \"#utility.yul\":6131:6132   */\n      0x09\n        /* \"#utility.yul\":6126:6129   */\n      dup3\n        /* \"#utility.yul\":6122:6133   */\n      add\n        /* \"#utility.yul\":6115:6133   */\n      swap1\n      pop\n        /* \"#utility.yul\":5739:6139   */\n      swap2\n      swap1\n      pop\n      jump\t// out\n        /* \"#utility.yul\":6145:6325   */\n    tag_152:\n        /* \"#utility.yul\":6193:6270   */\n      0x4e487b7100000000000000000000000000000000000000000000000000000000\n        /* \"#utility.yul\":6190:6191   */\n      0x00\n        /* \"#utility.yul\":6183:6271   */\n      mstore\n        /* \"#utility.yul\":6290:6294   */\n      0x22\n        /* \"#utility.yul\":6287:6288   */\n      0x04\n        /* \"#utility.yul\":6280:6295   */\n      mstore\n        /* \"#utility.yul\":6314:6318   */\n      0x24\n        /* \"#utility.yul\":6311:6312   */\n      0x00\n        /* \"#utility.yul\":6304:6319   */\n      revert\n        /* \"#utility.yul\":6331:6651   */\n    tag_89:\n        /* \"#utility.yul\":6375:6381   */\n      0x00\n        /* \"#utility.yul\":6412:6413   */\n      0x02\n        /* \"#utility.yul\":6406:6410   */\n      dup3\n        /* \"#utility.yul\":6402:6414   */\n      div\n        /* \"#utility.yul\":6392:6414   */\n      swap1\n      pop\n        /* \"#utility.yul\":6459:6460   */\n      0x01\n        /* \"#utility.yul\":6453:6457   */\n      dup3\n        /* \"#utility.yul\":6449:6461   */\n      and\n        /* \"#utility.yul\":6480:6498   */\n      dup1\n        /* \"#utility.yul\":6470:6551   */\n      tag_229\n      jumpi\n        /* \"#utility.yul\":6536:6540   */\n      0x7f\n        /* \"#utility.yul\":6528:6534   */\n      dup3\n        /* \"#utility.yul\":6524:6541   */\n      and\n        /* \"#utility.yul\":6514:6541   */\n      swap2\n      pop\n        /* \"#utility.yul\":6470:6551   */\n    tag_229:\n        /* \"#utility.yul\":6598:6600   */\n      0x20\n        /* \"#utility.yul\":6590:6596   */\n      dup3\n        /* \"#utility.yul\":6587:6601   */\n      lt\n        /* \"#utility.yul\":6567:6585   */\n      dup2\n        /* \"#utility.yul\":6564:6602   */\n      sub\n        /* \"#utility.yul\":6561:6645   */\n      tag_230\n      jumpi\n        /* \"#utility.yul\":6617:6635   */\n      tag_231\n      tag_152\n      jump\t// in\n    tag_231:\n        /* \"#utility.yul\":6561:6645   */\n    tag_230:\n        /* \"#utility.yul\":6382:6651   */\n      pop\n        /* \"#utility.yul\":6331:6651   */\n      swap2\n      swap1\n      pop\n      jump\t// out\n        /* \"#utility.yul\":6657:6798   */\n    tag_153:\n        /* \"#utility.yul\":6706:6710   */\n      0x00\n        /* \"#utility.yul\":6729:6732   */\n      dup2\n        /* \"#utility.yul\":6721:6732   */\n      swap1\n      pop\n        /* \"#utility.yul\":6752:6755   */\n      dup2\n        /* \"#utility.yul\":6749:6750   */\n      0x00\n        /* \"#utility.yul\":6742:6756   */\n      mstore\n        /* \"#utility.yul\":6786:6790   */\n      0x20\n        /* \"#utility.yul\":6783:6784   */\n      0x00\n        /* \"#utility.yul\":6773:6791   */\n      keccak256\n        /* \"#utility.yul\":6765:6791   */\n      swap1\n      pop\n        /* \"#utility.yul\":6657:6798   */\n      swap2\n      swap1\n      pop\n      jump\t// out\n        /* \"#utility.yul\":6828:7702   */\n    tag_154:\n        /* \"#utility.yul\":6931:6934   */\n      0x00\n        /* \"#utility.yul\":6968:6973   */\n      dup2\n        /* \"#utility.yul\":6962:6974   */\n      sload\n        /* \"#utility.yul\":6997:7033   */\n      tag_234\n        /* \"#utility.yul\":7023:7032   */\n      dup2\n        /* \"#utility.yul\":6997:7033   */\n      tag_89\n      jump\t// in\n    tag_234:\n        /* \"#utility.yul\":7049:7138   */\n      tag_235\n        /* \"#utility.yul\":7131:7137   */\n      dup2\n        /* \"#utility.yul\":7126:7129   */\n      dup7\n        /* \"#utility.yul\":7049:7138   */\n      tag_146\n      jump\t// in\n    tag_235:\n        /* \"#utility.yul\":7042:7138   */\n      swap5\n      pop\n        /* \"#utility.yul\":7169:7170   */\n      0x01\n        /* \"#utility.yul\":7158:7167   */\n      dup3\n        /* \"#utility.yul\":7154:7171   */\n      and\n        /* \"#utility.yul\":7185:7186   */\n      0x00\n        /* \"#utility.yul\":7180:7346   */\n      dup2\n      eq\n      tag_237\n      jumpi\n        /* \"#utility.yul\":7360:7361   */\n      0x01\n        /* \"#utility.yul\":7355:7696   */\n      dup2\n      eq\n      tag_238\n      jumpi\n        /* \"#utility.yul\":7147:7696   */\n      jump(tag_236)\n        /* \"#utility.yul\":7180:7346   */\n    tag_237:\n        /* \"#utility.yul\":7264:7268   */\n      0xff\n        /* \"#utility.yul\":7260:7269   */\n      not\n        /* \"#utility.yul\":7249:7258   */\n      dup4\n        /* \"#utility.yul\":7245:7270   */\n      and\n        /* \"#utility.yul\":7240:7243   */\n      dup7\n        /* \"#utility.yul\":7233:7271   */\n      mstore\n        /* \"#utility.yul\":7326:7332   */\n      dup2\n        /* \"#utility.yul\":7319:7333   */\n      iszero\n        /* \"#utility.yul\":7312:7334   */\n      iszero\n        /* \"#utility.yul\":7304:7310   */\n      dup3\n        /* \"#utility.yul\":7300:7335   */\n      mul\n        /* \"#utility.yul\":7295:7298   */\n      dup7\n        /* \"#utility.yul\":7291:7336   */\n      add\n        /* \"#utility.yul\":7284:7336   */\n      swap4\n      pop\n        /* \"#utility.yul\":7180:7346   */\n      jump(tag_236)\n        /* \"#utility.yul\":7355:7696   */\n    tag_238:\n        /* \"#utility.yul\":7422:7460   */\n      tag_239\n        /* \"#utility.yul\":7454:7459   */\n      dup6\n        /* \"#utility.yul\":7422:7460   */\n      tag_153\n      jump\t// in\n    tag_239:\n        /* \"#utility.yul\":7482:7483   */\n      0x00\n        /* \"#utility.yul\":7496:7650   */\n    tag_240:\n        /* \"#utility.yul\":7510:7516   */\n      dup4\n        /* \"#utility.yul\":7507:7508   */\n      dup2\n        /* \"#utility.yul\":7504:7517   */\n      lt\n        /* \"#utility.yul\":7496:7650   */\n      iszero\n      tag_242\n      jumpi\n        /* \"#utility.yul\":7584:7591   */\n      dup2\n        /* \"#utility.yul\":7578:7592   */\n      sload\n        /* \"#utility.yul\":7574:7575   */\n      dup2\n        /* \"#utility.yul\":7569:7572   */\n      dup10\n        /* \"#utility.yul\":7565:7576   */\n      add\n        /* \"#utility.yul\":7558:7593   */\n      mstore\n        /* \"#utility.yul\":7634:7635   */\n      0x01\n        /* \"#utility.yul\":7625:7632   */\n      dup3\n        /* \"#utility.yul\":7621:7636   */\n      add\n        /* \"#utility.yul\":7610:7636   */\n      swap2\n      pop\n        /* \"#utility.yul\":7532:7536   */\n      0x20\n        /* \"#utility.yul\":7529:7530   */\n      dup2\n        /* \"#utility.yul\":7525:7537   */\n      add\n        /* \"#utility.yul\":7520:7537   */\n      swap1\n      pop\n        /* \"#utility.yul\":7496:7650   */\n      jump(tag_240)\n    tag_242:\n        /* \"#utility.yul\":7679:7685   */\n      dup4\n        /* \"#utility.yul\":7674:7677   */\n      dup9\n        /* \"#utility.yul\":7670:7686   */\n      add\n        /* \"#utility.yul\":7663:7686   */\n      swap6\n      pop\n        /* \"#utility.yul\":7362:7696   */\n      pop\n      pop\n        /* \"#utility.yul\":7147:7696   */\n    tag_236:\n      pop\n        /* \"#utility.yul\":6935:7702   */\n      pop\n      pop\n        /* \"#utility.yul\":6828:7702   */\n      swap3\n      swap2\n      pop\n      pop\n      jump\t// out\n        /* \"#utility.yul\":7708:7922   */\n    tag_155:\n        /* \"#utility.yul\":7848:7914   */\n      0x227d000000000000000000000000000000000000000000000000000000000000\n        /* \"#utility.yul\":7844:7845   */\n      0x00\n        /* \"#utility.yul\":7836:7842   */\n      dup3\n        /* \"#utility.yul\":7832:7846   */\n      add\n        /* \"#utility.yul\":7825:7915   */\n      mstore\n        /* \"#utility.yul\":7708:7922   */\n      pop\n      jump\t// out\n        /* \"#utility.yul\":7928:8328   */\n    tag_156:\n        /* \"#utility.yul\":8088:8091   */\n      0x00\n        /* \"#utility.yul\":8109:8193   */\n      tag_245\n        /* \"#utility.yul\":8191:8192   */\n      0x02\n        /* \"#utility.yul\":8186:8189   */\n      dup4\n        /* \"#utility.yul\":8109:8193   */\n      tag_146\n      jump\t// in\n    tag_245:\n        /* \"#utility.yul\":8102:8193   */\n      swap2\n      pop\n        /* \"#utility.yul\":8202:8295   */\n      tag_246\n        /* \"#utility.yul\":8291:8294   */\n      dup3\n        /* \"#utility.yul\":8202:8295   */\n      tag_155\n      jump\t// in\n    tag_246:\n        /* \"#utility.yul\":8320:8321   */\n      0x02\n        /* \"#utility.yul\":8315:8318   */\n      dup3\n        /* \"#utility.yul\":8311:8322   */\n      add\n        /* \"#utility.yul\":8304:8322   */\n      swap1\n      pop\n        /* \"#utility.yul\":7928:8328   */\n      swap2\n      swap1\n      pop\n      jump\t// out\n        /* \"#utility.yul\":8334:9721   */\n    tag_71:\n        /* \"#utility.yul\":8862:8865   */\n      0x00\n        /* \"#utility.yul\":8884:8979   */\n      tag_248\n        /* \"#utility.yul\":8975:8978   */\n      dup3\n        /* \"#utility.yul\":8966:8972   */\n      dup7\n        /* \"#utility.yul\":8884:8979   */\n      tag_147\n      jump\t// in\n    tag_248:\n        /* \"#utility.yul\":8877:8979   */\n      swap2\n      pop\n        /* \"#utility.yul\":8996:9144   */\n      tag_249\n        /* \"#utility.yul\":9140:9143   */\n      dup3\n        /* \"#utility.yul\":8996:9144   */\n      tag_149\n      jump\t// in\n    tag_249:\n        /* \"#utility.yul\":8989:9144   */\n      swap2\n      pop\n        /* \"#utility.yul\":9161:9256   */\n      tag_250\n        /* \"#utility.yul\":9252:9255   */\n      dup3\n        /* \"#utility.yul\":9243:9249   */\n      dup6\n        /* \"#utility.yul\":9161:9256   */\n      tag_147\n      jump\t// in\n    tag_250:\n        /* \"#utility.yul\":9154:9256   */\n      swap2\n      pop\n        /* \"#utility.yul\":9273:9421   */\n      tag_251\n        /* \"#utility.yul\":9417:9420   */\n      dup3\n        /* \"#utility.yul\":9273:9421   */\n      tag_151\n      jump\t// in\n    tag_251:\n        /* \"#utility.yul\":9266:9421   */\n      swap2\n      pop\n        /* \"#utility.yul\":9438:9530   */\n      tag_252\n        /* \"#utility.yul\":9526:9529   */\n      dup3\n        /* \"#utility.yul\":9517:9523   */\n      dup5\n        /* \"#utility.yul\":9438:9530   */\n      tag_154\n      jump\t// in\n    tag_252:\n        /* \"#utility.yul\":9431:9530   */\n      swap2\n      pop\n        /* \"#utility.yul\":9547:9695   */\n      tag_253\n        /* \"#utility.yul\":9691:9694   */\n      dup3\n        /* \"#utility.yul\":9547:9695   */\n      tag_156\n      jump\t// in\n    tag_253:\n        /* \"#utility.yul\":9540:9695   */\n      swap2\n      pop\n        /* \"#utility.yul\":9712:9715   */\n      dup2\n        /* \"#utility.yul\":9705:9715   */\n      swap1\n      pop\n        /* \"#utility.yul\":8334:9721   */\n      swap5\n      swap4\n      pop\n      pop\n      pop\n      pop\n      jump\t// out\n        /* \"#utility.yul\":9727:9921   */\n    tag_73:\n        /* \"#utility.yul\":9767:9771   */\n      0x00\n        /* \"#utility.yul\":9787:9807   */\n      tag_255\n        /* \"#utility.yul\":9805:9806   */\n      dup3\n        /* \"#utility.yul\":9787:9807   */\n      tag_131\n      jump\t// in\n    tag_255:\n        /* \"#utility.yul\":9782:9807   */\n      swap2\n      pop\n        /* \"#utility.yul\":9821:9841   */\n      tag_256\n        /* \"#utility.yul\":9839:9840   */\n      dup4\n        /* \"#utility.yul\":9821:9841   */\n      tag_131\n      jump\t// in\n    tag_256:\n        /* \"#utility.yul\":9816:9841   */\n      swap3\n      pop\n        /* \"#utility.yul\":9865:9866   */\n      dup3\n        /* \"#utility.yul\":9862:9863   */\n      dup3\n        /* \"#utility.yul\":9858:9867   */\n      sub\n        /* \"#utility.yul\":9850:9867   */\n      swap1\n      pop\n        /* \"#utility.yul\":9889:9890   */\n      dup2\n        /* \"#utility.yul\":9883:9887   */\n      dup2\n        /* \"#utility.yul\":9880:9891   */\n      gt\n        /* \"#utility.yul\":9877:9914   */\n      iszero\n      tag_257\n      jumpi\n        /* \"#utility.yul\":9894:9912   */\n      tag_258\n      tag_142\n      jump\t// in\n    tag_258:\n        /* \"#utility.yul\":9877:9914   */\n    tag_257:\n        /* \"#utility.yul\":9727:9921   */\n      swap3\n      swap2\n      pop\n      pop\n      jump\t// out\n        /* \"#utility.yul\":9927:10078   */\n    tag_157:\n        /* \"#utility.yul\":10067:10070   */\n      0x2c00000000000000000000000000000000000000000000000000000000000000\n        /* \"#utility.yul\":10063:10064   */\n      0x00\n        /* \"#utility.yul\":10055:10061   */\n      dup3\n        /* \"#utility.yul\":10051:10065   */\n      add\n        /* \"#utility.yul\":10044:10071   */\n      mstore\n        /* \"#utility.yul\":9927:10078   */\n      pop\n      jump\t// out\n        /* \"#utility.yul\":10084:10484   */\n    tag_158:\n        /* \"#utility.yul\":10244:10247   */\n      0x00\n        /* \"#utility.yul\":10265:10349   */\n      tag_261\n        /* \"#utility.yul\":10347:10348   */\n      0x01\n        /* \"#utility.yul\":10342:10345   */\n      dup4\n        /* \"#utility.yul\":10265:10349   */\n      tag_146\n      jump\t// in\n    tag_261:\n        /* \"#utility.yul\":10258:10349   */\n      swap2\n      pop\n        /* \"#utility.yul\":10358:10451   */\n      tag_262\n        /* \"#utility.yul\":10447:10450   */\n      dup3\n        /* \"#utility.yul\":10358:10451   */\n      tag_157\n      jump\t// in\n    tag_262:\n        /* \"#utility.yul\":10476:10477   */\n      0x01\n        /* \"#utility.yul\":10471:10474   */\n      dup3\n        /* \"#utility.yul\":10467:10478   */\n      add\n        /* \"#utility.yul\":10460:10478   */\n      swap1\n      pop\n        /* \"#utility.yul\":10084:10484   */\n      swap2\n      swap1\n      pop\n      jump\t// out\n        /* \"#utility.yul\":10490:11031   */\n    tag_76:\n        /* \"#utility.yul\":10723:10726   */\n      0x00\n        /* \"#utility.yul\":10745:10840   */\n      tag_264\n        /* \"#utility.yul\":10836:10839   */\n      dup3\n        /* \"#utility.yul\":10827:10833   */\n      dup5\n        /* \"#utility.yul\":10745:10840   */\n      tag_147\n      jump\t// in\n    tag_264:\n        /* \"#utility.yul\":10738:10840   */\n      swap2\n      pop\n        /* \"#utility.yul\":10857:11005   */\n      tag_265\n        /* \"#utility.yul\":11001:11004   */\n      dup3\n        /* \"#utility.yul\":10857:11005   */\n      tag_158\n      jump\t// in\n    tag_265:\n        /* \"#utility.yul\":10850:11005   */\n      swap2\n      pop\n        /* \"#utility.yul\":11022:11025   */\n      dup2\n        /* \"#utility.yul\":11015:11025   */\n      swap1\n      pop\n        /* \"#utility.yul\":10490:11031   */\n      swap3\n      swap2\n      pop\n      pop\n      jump\t// out\n        /* \"#utility.yul\":11037:11188   */\n    tag_159:\n        /* \"#utility.yul\":11177:11180   */\n      0x5d00000000000000000000000000000000000000000000000000000000000000\n        /* \"#utility.yul\":11173:11174   */\n      0x00\n        /* \"#utility.yul\":11165:11171   */\n      dup3\n        /* \"#utility.yul\":11161:11175   */\n      add\n        /* \"#utility.yul\":11154:11181   */\n      mstore\n        /* \"#utility.yul\":11037:11188   */\n      pop\n      jump\t// out\n        /* \"#utility.yul\":11194:11594   */\n    tag_160:\n        /* \"#utility.yul\":11354:11357   */\n      0x00\n        /* \"#utility.yul\":11375:11459   */\n      tag_268\n        /* \"#utility.yul\":11457:11458   */\n      0x01\n        /* \"#utility.yul\":11452:11455   */\n      dup4\n        /* \"#utility.yul\":11375:11459   */\n      tag_146\n      jump\t// in\n    tag_268:\n        /* \"#utility.yul\":11368:11459   */\n      swap2\n      pop\n        /* \"#utility.yul\":11468:11561   */\n      tag_269\n        /* \"#utility.yul\":11557:11560   */\n      dup3\n        /* \"#utility.yul\":11468:11561   */\n      tag_159\n      jump\t// in\n    tag_269:\n        /* \"#utility.yul\":11586:11587   */\n      0x01\n        /* \"#utility.yul\":11581:11584   */\n      dup3\n        /* \"#utility.yul\":11577:11588   */\n      add\n        /* \"#utility.yul\":11570:11588   */\n      swap1\n      pop\n        /* \"#utility.yul\":11194:11594   */\n      swap2\n      swap1\n      pop\n      jump\t// out\n        /* \"#utility.yul\":11600:12141   */\n    tag_79:\n        /* \"#utility.yul\":11833:11836   */\n      0x00\n        /* \"#utility.yul\":11855:11950   */\n      tag_271\n        /* \"#utility.yul\":11946:11949   */\n      dup3\n        /* \"#utility.yul\":11937:11943   */\n      dup5\n        /* \"#utility.yul\":11855:11950   */\n      tag_147\n      jump\t// in\n    tag_271:\n        /* \"#utility.yul\":11848:11950   */\n      swap2\n      pop\n        /* \"#utility.yul\":11967:12115   */\n      tag_272\n        /* \"#utility.yul\":12111:12114   */\n      dup3\n        /* \"#utility.yul\":11967:12115   */\n      tag_160\n      jump\t// in\n    tag_272:\n        /* \"#utility.yul\":11960:12115   */\n      swap2\n      pop\n        /* \"#utility.yul\":12132:12135   */\n      dup2\n        /* \"#utility.yul\":12125:12135   */\n      swap1\n      pop\n        /* \"#utility.yul\":11600:12141   */\n      swap3\n      swap2\n      pop\n      pop\n      jump\t// out\n        /* \"#utility.yul\":12147:12261   */\n    tag_161:\n      pop\n      jump\t// out\n        /* \"#utility.yul\":12267:12667   */\n    tag_162:\n        /* \"#utility.yul\":12427:12430   */\n      0x00\n        /* \"#utility.yul\":12448:12532   */\n      tag_275\n        /* \"#utility.yul\":12530:12531   */\n      0x00\n        /* \"#utility.yul\":12525:12528   */\n      dup4\n        /* \"#utility.yul\":12448:12532   */\n      tag_146\n      jump\t// in\n    tag_275:\n        /* \"#utility.yul\":12441:12532   */\n      swap2\n      pop\n        /* \"#utility.yul\":12541:12634   */\n      tag_276\n        /* \"#utility.yul\":12630:12633   */\n      dup3\n        /* \"#utility.yul\":12541:12634   */\n      tag_161\n      jump\t// in\n    tag_276:\n        /* \"#utility.yul\":12659:12660   */\n      0x00\n        /* \"#utility.yul\":12654:12657   */\n      dup3\n        /* \"#utility.yul\":12650:12661   */\n      add\n        /* \"#utility.yul\":12643:12661   */\n      swap1\n      pop\n        /* \"#utility.yul\":12267:12667   */\n      swap2\n      swap1\n      pop\n      jump\t// out\n        /* \"#utility.yul\":12673:13054   */\n    tag_96:\n        /* \"#utility.yul\":12858:12861   */\n      0x00\n        /* \"#utility.yul\":12880:13028   */\n      tag_278\n        /* \"#utility.yul\":13024:13027   */\n      dup3\n        /* \"#utility.yul\":12880:13028   */\n      tag_162\n      jump\t// in\n    tag_278:\n        /* \"#utility.yul\":12873:13028   */\n      swap2\n      pop\n        /* \"#utility.yul\":13045:13048   */\n      dup2\n        /* \"#utility.yul\":13038:13048   */\n      swap1\n      pop\n        /* \"#utility.yul\":12673:13054   */\n      swap2\n      swap1\n      pop\n      jump\t// out\n        /* \"#utility.yul\":13060:13329   */\n    tag_98:\n        /* \"#utility.yul\":13189:13192   */\n      0x00\n        /* \"#utility.yul\":13211:13303   */\n      tag_280\n        /* \"#utility.yul\":13299:13302   */\n      dup3\n        /* \"#utility.yul\":13290:13296   */\n      dup5\n        /* \"#utility.yul\":13211:13303   */\n      tag_154\n      jump\t// in\n    tag_280:\n        /* \"#utility.yul\":13204:13303   */\n      swap2\n      pop\n        /* \"#utility.yul\":13320:13323   */\n      dup2\n        /* \"#utility.yul\":13313:13323   */\n      swap1\n      pop\n        /* \"#utility.yul\":13060:13329   */\n      swap3\n      swap2\n      pop\n      pop\n      jump\t// out\n        /* \"#utility.yul\":13335:13515   */\n    tag_102:\n        /* \"#utility.yul\":13383:13460   */\n      0x4e487b7100000000000000000000000000000000000000000000000000000000\n        /* \"#utility.yul\":13380:13381   */\n      0x00\n        /* \"#utility.yul\":13373:13461   */\n      mstore\n        /* \"#utility.yul\":13480:13484   */\n      0x41\n        /* \"#utility.yul\":13477:13478   */\n      0x04\n        /* \"#utility.yul\":13470:13485   */\n      mstore\n        /* \"#utility.yul\":13504:13508   */\n      0x24\n        /* \"#utility.yul\":13501:13502   */\n      0x00\n        /* \"#utility.yul\":13494:13509   */\n      revert\n        /* \"#utility.yul\":13521:13701   */\n    tag_163:\n        /* \"#utility.yul\":13569:13646   */\n      0x4e487b7100000000000000000000000000000000000000000000000000000000\n        /* \"#utility.yul\":13566:13567   */\n      0x00\n        /* \"#utility.yul\":13559:13647   */\n      mstore\n        /* \"#utility.yul\":13666:13670   */\n      0x12\n        /* \"#utility.yul\":13663:13664   */\n      0x04\n        /* \"#utility.yul\":13656:13671   */\n      mstore\n        /* \"#utility.yul\":13690:13694   */\n      0x24\n        /* \"#utility.yul\":13687:13688   */\n      0x00\n        /* \"#utility.yul\":13680:13695   */\n      revert\n        /* \"#utility.yul\":13707:13883   */\n    tag_107:\n        /* \"#utility.yul\":13739:13740   */\n      0x00\n        /* \"#utility.yul\":13756:13776   */\n      tag_284\n        /* \"#utility.yul\":13774:13775   */\n      dup3\n        /* \"#utility.yul\":13756:13776   */\n      tag_131\n      jump\t// in\n    tag_284:\n        /* \"#utility.yul\":13751:13776   */\n      swap2\n      pop\n        /* \"#utility.yul\":13790:13810   */\n      tag_285\n        /* \"#utility.yul\":13808:13809   */\n      dup4\n        /* \"#utility.yul\":13790:13810   */\n      tag_131\n      jump\t// in\n    tag_285:\n        /* \"#utility.yul\":13785:13810   */\n      swap3\n      pop\n        /* \"#utility.yul\":13829:13830   */\n      dup3\n        /* \"#utility.yul\":13819:13854   */\n      tag_286\n      jumpi\n        /* \"#utility.yul\":13834:13852   */\n      tag_287\n      tag_163\n      jump\t// in\n    tag_287:\n        /* \"#utility.yul\":13819:13854   */\n    tag_286:\n        /* \"#utility.yul\":13875:13876   */\n      dup3\n        /* \"#utility.yul\":13872:13873   */\n      dup3\n        /* \"#utility.yul\":13868:13877   */\n      mod\n        /* \"#utility.yul\":13863:13877   */\n      swap1\n      pop\n        /* \"#utility.yul\":13707:13883   */\n      swap3\n      swap2\n      pop\n      pop\n      jump\t// out\n        /* \"#utility.yul\":13889:14074   */\n    tag_109:\n        /* \"#utility.yul\":13929:13930   */\n      0x00\n        /* \"#utility.yul\":13946:13966   */\n      tag_289\n        /* \"#utility.yul\":13964:13965   */\n      dup3\n        /* \"#utility.yul\":13946:13966   */\n      tag_131\n      jump\t// in\n    tag_289:\n        /* \"#utility.yul\":13941:13966   */\n      swap2\n      pop\n        /* \"#utility.yul\":13980:14000   */\n      tag_290\n        /* \"#utility.yul\":13998:13999   */\n      dup4\n        /* \"#utility.yul\":13980:14000   */\n      tag_131\n      jump\t// in\n    tag_290:\n        /* \"#utility.yul\":13975:14000   */\n      swap3\n      pop\n        /* \"#utility.yul\":14019:14020   */\n      dup3\n        /* \"#utility.yul\":14009:14044   */\n      tag_291\n      jumpi\n        /* \"#utility.yul\":14024:14042   */\n      tag_292\n      tag_163\n      jump\t// in\n    tag_292:\n        /* \"#utility.yul\":14009:14044   */\n    tag_291:\n        /* \"#utility.yul\":14066:14067   */\n      dup3\n        /* \"#utility.yul\":14063:14064   */\n      dup3\n        /* \"#utility.yul\":14059:14068   */\n      div\n        /* \"#utility.yul\":14054:14068   */\n      swap1\n      pop\n        /* \"#utility.yul\":13889:14074   */\n      swap3\n      swap2\n      pop\n      pop\n      jump\t// out\n        /* \"#utility.yul\":14080:14271   */\n    tag_111:\n        /* \"#utility.yul\":14120:14123   */\n      0x00\n        /* \"#utility.yul\":14139:14159   */\n      tag_294\n        /* \"#utility.yul\":14157:14158   */\n      dup3\n        /* \"#utility.yul\":14139:14159   */\n      tag_131\n      jump\t// in\n    tag_294:\n        /* \"#utility.yul\":14134:14159   */\n      swap2\n      pop\n        /* \"#utility.yul\":14173:14193   */\n      tag_295\n        /* \"#utility.yul\":14191:14192   */\n      dup4\n        /* \"#utility.yul\":14173:14193   */\n      tag_131\n      jump\t// in\n    tag_295:\n        /* \"#utility.yul\":14168:14193   */\n      swap3\n      pop\n        /* \"#utility.yul\":14216:14217   */\n      dup3\n        /* \"#utility.yul\":14213:14214   */\n      dup3\n        /* \"#utility.yul\":14209:14218   */\n      add\n        /* \"#utility.yul\":14202:14218   */\n      swap1\n      pop\n        /* \"#utility.yul\":14237:14240   */\n      dup1\n        /* \"#utility.yul\":14234:14235   */\n      dup3\n        /* \"#utility.yul\":14231:14241   */\n      gt\n        /* \"#utility.yul\":14228:14264   */\n      iszero\n      tag_296\n      jumpi\n        /* \"#utility.yul\":14244:14262   */\n      tag_297\n      tag_142\n      jump\t// in\n    tag_297:\n        /* \"#utility.yul\":14228:14264   */\n    tag_296:\n        /* \"#utility.yul\":14080:14271   */\n      swap3\n      swap2\n      pop\n      pop\n      jump\t// out\n\n    auxdata: 0xa264697066735822122005872dfabf85c99e74b3c72eceb29b610b13e7e911786b10e173b91520cd58f164736f6c63430008120033\n}\n",
				"bytecode": {
					"linkReferences": {},
					"object": "60806040523480156200001157600080fd5b50604051620019c7380380620019c7833981810160405281019062000037919062000534565b80518251146200004657600080fd5b836005819055508260068190555060005b8251811015620000c357620000ad8382815181106200007b576200007a620005e4565b5b6020026020010151838381518110620000995762000098620005e4565b5b6020026020010151620000ce60201b60201c565b8080620000ba9062000642565b91505062000057565b505050505062000a4e565b60405180606001604052808381526020018281526020016000815250600160008481526020019081526020016000206000820151816000015560208201518160010190816200011e9190620008d0565b506040820151816002015590505060028290806001815401808255809150506001900390600052602060002001600090919091909150557fa89e28469fa9e15d5149634a9ce8d8dd59ec42c18ba2d281b08c305f2095acef81836040516200018892919062000a1a565b60405180910390a15050565b6000604051905090565b600080fd5b600080fd5b6000819050919050565b620001bd81620001a8565b8114620001c957600080fd5b50565b600081519050620001dd81620001b2565b92915050565b600080fd5b6000601f19601f8301169050919050565b7f4e487b7100000000000000000000000000000000000000000000000000000000600052604160045260246000fd5b6200023382620001e8565b810181811067ffffffffffffffff82111715620002555762000254620001f9565b5b80604052505050565b60006200026a62000194565b905062000278828262000228565b919050565b600067ffffffffffffffff8211156200029b576200029a620001f9565b5b602082029050602081019050919050565b600080fd5b6000620002c8620002c2846200027d565b6200025e565b90508083825260208201905060208402830185811115620002ee57620002ed620002ac565b5b835b818110156200031b5780620003068882620001cc565b845260208401935050602081019050620002f0565b5050509392505050565b600082601f8301126200033d576200033c620001e3565b5b81516200034f848260208601620002b1565b91505092915050565b600067ffffffffffffffff821115620003765762000375620001f9565b5b602082029050602081019050919050565b600080fd5b600067ffffffffffffffff821115620003aa57620003a9620001f9565b5b620003b582620001e8565b9050602081019050919050565b60005b83811015620003e2578082015181840152602081019050620003c5565b60008484015250505050565b600062000405620003ff846200038c565b6200025e565b90508281526020810184848401111562000424576200042362000387565b5b62000431848285620003c2565b509392505050565b600082601f830112620004515762000450620001e3565b5b815162000463848260208601620003ee565b91505092915050565b6000620004836200047d8462000358565b6200025e565b90508083825260208201905060208402830185811115620004a957620004a8620002ac565b5b835b81811015620004f757805167ffffffffffffffff811115620004d257620004d1620001e3565b5b808601620004e1898262000439565b85526020850194505050602081019050620004ab565b5050509392505050565b600082601f830112620005195762000518620001e3565b5b81516200052b8482602086016200046c565b91505092915050565b600080600080608085870312156200055157620005506200019e565b5b60006200056187828801620001cc565b94505060206200057487828801620001cc565b935050604085015167ffffffffffffffff811115620005985762000597620001a3565b5b620005a68782880162000325565b925050606085015167ffffffffffffffff811115620005ca57620005c9620001a3565b5b620005d88782880162000501565b91505092959194509250565b7f4e487b7100000000000000000000000000000000000000000000000000000000600052603260045260246000fd5b7f4e487b7100000000000000000000000000000000000000000000000000000000600052601160045260246000fd5b60006200064f82620001a8565b91507fffffffffffffffffffffffffffffffffffffffffffffffffffffffffffffffff820362000684576200068362000613565b5b600182019050919050565b600081519050919050565b7f4e487b7100000000000000000000000000000000000000000000000000000000600052602260045260246000fd5b60006002820490506001821680620006e257607f821691505b602082108103620006f857620006f76200069a565b5b50919050565b60008190508160005260206000209050919050565b60006020601f8301049050919050565b600082821b905092915050565b600060088302620007627fffffffffffffffffffffffffffffffffffffffffffffffffffffffffffffffff8262000723565b6200076e868362000723565b95508019841693508086168417925050509392505050565b6000819050919050565b6000620007b1620007ab620007a584620001a8565b62000786565b620001a8565b9050919050565b6000819050919050565b620007cd8362000790565b620007e5620007dc82620007b8565b84845462000730565b825550505050565b600090565b620007fc620007ed565b62000809818484620007c2565b505050565b5b81811015620008315762000825600082620007f2565b6001810190506200080f565b5050565b601f82111562000880576200084a81620006fe565b620008558462000713565b8101602085101562000865578190505b6200087d620008748562000713565b8301826200080e565b50505b505050565b600082821c905092915050565b6000620008a56000198460080262000885565b1980831691505092915050565b6000620008c0838362000892565b9150826002028217905092915050565b620008db826200068f565b67ffffffffffffffff811115620008f757620008f6620001f9565b5b620009038254620006c9565b6200091082828562000835565b600060209050601f83116001811462000948576000841562000933578287015190505b6200093f8582620008b2565b865550620009af565b601f1984166200095886620006fe565b60005b8281101562000982578489015182556001820191506020850194506020810190506200095b565b86831015620009a257848901516200099e601f89168262000892565b8355505b6001600288020188555050505b505050505050565b600082825260208201905092915050565b6000620009d5826200068f565b620009e18185620009b7565b9350620009f3818560208601620003c2565b620009fe81620001e8565b840191505092915050565b62000a1481620001a8565b82525050565b6000604082019050818103600083015262000a368185620009c8565b905062000a47602083018462000a09565b9392505050565b610f698062000a5e6000396000f3fe608060405234801561001057600080fd5b50600436106100885760003560e01c8063b2c2f2e81161005b578063b2c2f2e814610103578063b6f7207114610133578063e13804a714610151578063f577a5001461018157610088565b80630121b93f1461008d57806306a49fce146100a95780633192fd1b146100c757806347535d7b146100e5575b600080fd5b6100a760048036038101906100a29190610832565b6101b1565b005b6100b161035d565b6040516100be91906108ef565b60405180910390f35b6100cf6104a1565b6040516100dc9190610920565b60405180910390f35b6100ed6104ab565b6040516100fa9190610956565b60405180910390f35b61011d60048036038101906101189190610832565b6104c6565b60405161012a9190610920565b60405180910390f35b61013b6104f8565b6040516101489190610920565b60405180910390f35b61016b60048036038101906101669190610832565b610502565b60405161017891906108ef565b60405180910390f35b61019b60048036038101906101969190610832565b6105aa565b6040516101a89190610956565b60405180910390f35b6101b96104ab565b6101c257600080fd5b6000803373ffffffffffffffffffffffffffffffffffffffff1673ffffffffffffffffffffffffffffffffffffffff16815260200190815260200160002060009054906101000a900460ff161561021857600080fd5b6000810361023d5760046000815480929190610233906109a0565b919050555061035a565b610246816105aa565b610267576003600081548092919061025d906109a0565b919050555061035a565b7f8abc02d87b9bd0c57b0b90286d8d023455310d7406afe4bcd25eff1079813dda60016040516102979190610956565b60405180910390a160016000803373ffffffffffffffffffffffffffffffffffffffff1673ffffffffffffffffffffffffffffffffffffffff16815260200190815260200160002060006101000a81548160ff02191690831515021790555060016000828152602001908152602001600020600201600081548092919061031d906109a0565b91905055507fc13d3f1b1493730c46add68f1ab21f9ffdc46a9d73fb17dc8647b0ceec258e88336040516103519190610a29565b60405180910390a15b50565b606060006040518060400160405280600181526020017f5b00000000000000000000000000000000000000000000000000000000000000815250905060005b60028054905081101561047757816103d1600283815481106103c1576103c0610a44565b5b9060005260206000200154610616565b60016000600285815481106103e9576103e8610a44565b5b9060005260206000200154815260200190815260200160002060010160405160200161041793929190610c8b565b6040516020818303038152906040529150600160028054905061043a9190610cdd565b81101561046457816040516020016104529190610d5d565b60405160208183030381529060405291505b808061046f906109a0565b91505061039c565b50806040516020016104899190610dcb565b60405160208183030381529060405290508091505090565b6000600354905090565b600060055442101580156104c157506006544211155b905090565b60006104d1826105aa565b6104da57600080fd5b60016000838152602001908152602001600020600201549050919050565b6000600454905090565b606060016000838152602001908152602001600020600101805461052590610b76565b80601f016020809104026020016040519081016040528092919081815260200182805461055190610b76565b801561059e5780601f106105735761010080835404028352916020019161059e565b820191906000526020600020905b81548152906001019060200180831161058157829003601f168201915b50505050509050919050565b60006040516020016105bb90610e13565b60405160208183030381529060405280519060200120600160008481526020019081526020016000206001016040516020016105f79190610e28565b6040516020818303038152906040528051906020012014159050919050565b606060006064905060008167ffffffffffffffff81111561063a57610639610e3f565b5b6040519080825280601f01601f19166020018201604052801561066c5781602001600182028036833780820191505090505b50905060005b600085146106fe576000600a866106899190610e9d565b9050600a866106989190610ece565b95508060306106a79190610eff565b60f81b8383806106b6906109a0565b9450815181106106c9576106c8610a44565b5b60200101907effffffffffffffffffffffffffffffffffffffffffffffffffffffffffffff1916908160001a90535050610672565b60008167ffffffffffffffff81111561071a57610719610e3f565b5b6040519080825280601f01601f19166020018201604052801561074c5781602001600182028036833780820191505090505b50905060005b828110156107e45783600182856107699190610cdd565b6107739190610cdd565b8151811061078457610783610a44565b5b602001015160f81c60f81b8282815181106107a2576107a1610a44565b5b60200101907effffffffffffffffffffffffffffffffffffffffffffffffffffffffffffff1916908160001a90535080806107dc906109a0565b915050610752565b5060008190508095505050505050919050565b600080fd5b6000819050919050565b61080f816107fc565b811461081a57600080fd5b50565b60008135905061082c81610806565b92915050565b600060208284031215610848576108476107f7565b5b60006108568482850161081d565b91505092915050565b600081519050919050565b600082825260208201905092915050565b60005b8381101561089957808201518184015260208101905061087e565b60008484015250505050565b6000601f19601f8301169050919050565b60006108c18261085f565b6108cb818561086a565b93506108db81856020860161087b565b6108e4816108a5565b840191505092915050565b6000602082019050818103600083015261090981846108b6565b905092915050565b61091a816107fc565b82525050565b60006020820190506109356000830184610911565b92915050565b60008115159050919050565b6109508161093b565b82525050565b600060208201905061096b6000830184610947565b92915050565b7f4e487b7100000000000000000000000000000000000000000000000000000000600052601160045260246000fd5b60006109ab826107fc565b91507fffffffffffffffffffffffffffffffffffffffffffffffffffffffffffffffff82036109dd576109dc610971565b5b600182019050919050565b600073ffffffffffffffffffffffffffffffffffffffff82169050919050565b6000610a13826109e8565b9050919050565b610a2381610a08565b82525050565b6000602082019050610a3e6000830184610a1a565b92915050565b7f4e487b7100000000000000000000000000000000000000000000000000000000600052603260045260246000fd5b600081905092915050565b6000610a898261085f565b610a938185610a73565b9350610aa381856020860161087b565b80840191505092915050565b7f7b226964223a0000000000000000000000000000000000000000000000000000600082015250565b6000610ae5600683610a73565b9150610af082610aaf565b600682019050919050565b7f2c226e616d65223a220000000000000000000000000000000000000000000000600082015250565b6000610b31600983610a73565b9150610b3c82610afb565b600982019050919050565b7f4e487b7100000000000000000000000000000000000000000000000000000000600052602260045260246000fd5b60006002820490506001821680610b8e57607f821691505b602082108103610ba157610ba0610b47565b5b50919050565b60008190508160005260206000209050919050565b60008154610bc981610b76565b610bd38186610a73565b94506001821660008114610bee5760018114610c0357610c36565b60ff1983168652811515820286019350610c36565b610c0c85610ba7565b60005b83811015610c2e57815481890152600182019150602081019050610c0f565b838801955050505b50505092915050565b7f227d000000000000000000000000000000000000000000000000000000000000600082015250565b6000610c75600283610a73565b9150610c8082610c3f565b600282019050919050565b6000610c978286610a7e565b9150610ca282610ad8565b9150610cae8285610a7e565b9150610cb982610b24565b9150610cc58284610bbc565b9150610cd082610c68565b9150819050949350505050565b6000610ce8826107fc565b9150610cf3836107fc565b9250828203905081811115610d0b57610d0a610971565b5b92915050565b7f2c00000000000000000000000000000000000000000000000000000000000000600082015250565b6000610d47600183610a73565b9150610d5282610d11565b600182019050919050565b6000610d698284610a7e565b9150610d7482610d3a565b915081905092915050565b7f5d00000000000000000000000000000000000000000000000000000000000000600082015250565b6000610db5600183610a73565b9150610dc082610d7f565b600182019050919050565b6000610dd78284610a7e565b9150610de282610da8565b915081905092915050565b50565b6000610dfd600083610a73565b9150610e0882610ded565b600082019050919050565b6000610e1e82610df0565b9150819050919050565b6000610e348284610bbc565b915081905092915050565b7f4e487b7100000000000000000000000000000000000000000000000000000000600052604160045260246000fd5b7f4e487b7100000000000000000000000000000000000000000000000000000000600052601260045260246000fd5b6000610ea8826107fc565b9150610eb3836107fc565b925082610ec357610ec2610e6e565b5b828206905092915050565b6000610ed9826107fc565b9150610ee4836107fc565b925082610ef457610ef3610e6e565b5b828204905092915050565b6000610f0a826107fc565b9150610f15836107fc565b9250828201905080821115610f2d57610f2c610971565b5b9291505056fea264697066735822122005872dfabf85c99e74b3c72eceb29b610b13e7e911786b10e173b91520cd58f164736f6c63430008120033",
					"opcodes": "PUSH1 0x80 PUSH1 0x40 MSTORE CALLVALUE DUP1 ISZERO PUSH3 0x11 JUMPI PUSH1 0x0 DUP1 REVERT JUMPDEST POP PUSH1 0x40 MLOAD PUSH3 0x19C7 CODESIZE SUB DUP1 PUSH3 0x19C7 DUP4 CODECOPY DUP2 DUP2 ADD PUSH1 0x40 MSTORE DUP2 ADD SWAP1 PUSH3 0x37 SWAP2 SWAP1 PUSH3 0x534 JUMP JUMPDEST DUP1 MLOAD DUP3 MLOAD EQ PUSH3 0x46 JUMPI PUSH1 0x0 DUP1 REVERT JUMPDEST DUP4 PUSH1 0x5 DUP2 SWAP1 SSTORE POP DUP3 PUSH1 0x6 DUP2 SWAP1 SSTORE POP PUSH1 0x0 JUMPDEST DUP3 MLOAD DUP2 LT ISZERO PUSH3 0xC3 JUMPI PUSH3 0xAD DUP4 DUP3 DUP2 MLOAD DUP2 LT PUSH3 0x7B JUMPI PUSH3 0x7A PUSH3 0x5E4 JUMP JUMPDEST JUMPDEST PUSH1 0x20 MUL PUSH1 0x20 ADD ADD MLOAD DUP4 DUP4 DUP2 MLOAD DUP2 LT PUSH3 0x99 JUMPI PUSH3 0x98 PUSH3 0x5E4 JUMP JUMPDEST JUMPDEST PUSH1 0x20 MUL PUSH1 0x20 ADD ADD MLOAD PUSH3 0xCE PUSH1 0x20 SHL PUSH1 0x20 SHR JUMP JUMPDEST DUP1 DUP1 PUSH3 0xBA SWAP1 PUSH3 0x642 JUMP JUMPDEST SWAP2 POP POP PUSH3 0x57 JUMP JUMPDEST POP POP POP POP POP PUSH3 0xA4E JUMP JUMPDEST PUSH1 0x40 MLOAD DUP1 PUSH1 0x60 ADD PUSH1 0x40 MSTORE DUP1 DUP4 DUP2 MSTORE PUSH1 0x20 ADD DUP3 DUP2 MSTORE PUSH1 0x20 ADD PUSH1 0x0 DUP2 MSTORE POP PUSH1 0x1 PUSH1 0x0 DUP5 DUP2 MSTORE PUSH1 0x20 ADD SWAP1 DUP2 MSTORE PUSH1 0x20 ADD PUSH1 0x0 KECCAK256 PUSH1 0x0 DUP3 ADD MLOAD DUP2 PUSH1 0x0 ADD SSTORE PUSH1 0x20 DUP3 ADD MLOAD DUP2 PUSH1 0x1 ADD SWAP1 DUP2 PUSH3 0x11E SWAP2 SWAP1 PUSH3 0x8D0 JUMP JUMPDEST POP PUSH1 0x40 DUP3 ADD MLOAD DUP2 PUSH1 0x2 ADD SSTORE SWAP1 POP POP PUSH1 0x2 DUP3 SWAP1 DUP1 PUSH1 0x1 DUP2 SLOAD ADD DUP1 DUP3 SSTORE DUP1 SWAP2 POP POP PUSH1 0x1 SWAP1 SUB SWAP1 PUSH1 0x0 MSTORE PUSH1 0x20 PUSH1 0x0 KECCAK256 ADD PUSH1 0x0 SWAP1 SWAP2 SWAP1 SWAP2 SWAP1 SWAP2 POP SSTORE PUSH32 0xA89E28469FA9E15D5149634A9CE8D8DD59EC42C18BA2D281B08C305F2095ACEF DUP2 DUP4 PUSH1 0x40 MLOAD PUSH3 0x188 SWAP3 SWAP2 SWAP1 PUSH3 0xA1A JUMP JUMPDEST PUSH1 0x40 MLOAD DUP1 SWAP2 SUB SWAP1 LOG1 POP POP JUMP JUMPDEST PUSH1 0x0 PUSH1 0x40 MLOAD SWAP1 POP SWAP1 JUMP JUMPDEST PUSH1 0x0 DUP1 REVERT JUMPDEST PUSH1 0x0 DUP1 REVERT JUMPDEST PUSH1 0x0 DUP2 SWAP1 POP SWAP2 SWAP1 POP JUMP JUMPDEST PUSH3 0x1BD DUP2 PUSH3 0x1A8 JUMP JUMPDEST DUP2 EQ PUSH3 0x1C9 JUMPI PUSH1 0x0 DUP1 REVERT JUMPDEST POP JUMP JUMPDEST PUSH1 0x0 DUP2 MLOAD SWAP1 POP PUSH3 0x1DD DUP2 PUSH3 0x1B2 JUMP JUMPDEST SWAP3 SWAP2 POP POP JUMP JUMPDEST PUSH1 0x0 DUP1 REVERT JUMPDEST PUSH1 0x0 PUSH1 0x1F NOT PUSH1 0x1F DUP4 ADD AND SWAP1 POP SWAP2 SWAP1 POP JUMP JUMPDEST PUSH32 0x4E487B7100000000000000000000000000000000000000000000000000000000 PUSH1 0x0 MSTORE PUSH1 0x41 PUSH1 0x4 MSTORE PUSH1 0x24 PUSH1 0x0 REVERT JUMPDEST PUSH3 0x233 DUP3 PUSH3 0x1E8 JUMP JUMPDEST DUP2 ADD DUP2 DUP2 LT PUSH8 0xFFFFFFFFFFFFFFFF DUP3 GT OR ISZERO PUSH3 0x255 JUMPI PUSH3 0x254 PUSH3 0x1F9 JUMP JUMPDEST JUMPDEST DUP1 PUSH1 0x40 MSTORE POP POP POP JUMP JUMPDEST PUSH1 0x0 PUSH3 0x26A PUSH3 0x194 JUMP JUMPDEST SWAP1 POP PUSH3 0x278 DUP3 DUP3 PUSH3 0x228 JUMP JUMPDEST SWAP2 SWAP1 POP JUMP JUMPDEST PUSH1 0x0 PUSH8 0xFFFFFFFFFFFFFFFF DUP3 GT ISZERO PUSH3 0x29B JUMPI PUSH3 0x29A PUSH3 0x1F9 JUMP JUMPDEST JUMPDEST PUSH1 0x20 DUP3 MUL SWAP1 POP PUSH1 0x20 DUP2 ADD SWAP1 POP SWAP2 SWAP1 POP JUMP JUMPDEST PUSH1 0x0 DUP1 REVERT JUMPDEST PUSH1 0x0 PUSH3 0x2C8 PUSH3 0x2C2 DUP5 PUSH3 0x27D JUMP JUMPDEST PUSH3 0x25E JUMP JUMPDEST SWAP1 POP DUP1 DUP4 DUP3 MSTORE PUSH1 0x20 DUP3 ADD SWAP1 POP PUSH1 0x20 DUP5 MUL DUP4 ADD DUP6 DUP2 GT ISZERO PUSH3 0x2EE JUMPI PUSH3 0x2ED PUSH3 0x2AC JUMP JUMPDEST JUMPDEST DUP4 JUMPDEST DUP2 DUP2 LT ISZERO PUSH3 0x31B JUMPI DUP1 PUSH3 0x306 DUP9 DUP3 PUSH3 0x1CC JUMP JUMPDEST DUP5 MSTORE PUSH1 0x20 DUP5 ADD SWAP4 POP POP PUSH1 0x20 DUP2 ADD SWAP1 POP PUSH3 0x2F0 JUMP JUMPDEST POP POP POP SWAP4 SWAP3 POP POP POP JUMP JUMPDEST PUSH1 0x0 DUP3 PUSH1 0x1F DUP4 ADD SLT PUSH3 0x33D JUMPI PUSH3 0x33C PUSH3 0x1E3 JUMP JUMPDEST JUMPDEST DUP2 MLOAD PUSH3 0x34F DUP5 DUP3 PUSH1 0x20 DUP7 ADD PUSH3 0x2B1 JUMP JUMPDEST SWAP2 POP POP SWAP3 SWAP2 POP POP JUMP JUMPDEST PUSH1 0x0 PUSH8 0xFFFFFFFFFFFFFFFF DUP3 GT ISZERO PUSH3 0x376 JUMPI PUSH3 0x375 PUSH3 0x1F9 JUMP JUMPDEST JUMPDEST PUSH1 0x20 DUP3 MUL SWAP1 POP PUSH1 0x20 DUP2 ADD SWAP1 POP SWAP2 SWAP1 POP JUMP JUMPDEST PUSH1 0x0 DUP1 REVERT JUMPDEST PUSH1 0x0 PUSH8 0xFFFFFFFFFFFFFFFF DUP3 GT ISZERO PUSH3 0x3AA JUMPI PUSH3 0x3A9 PUSH3 0x1F9 JUMP JUMPDEST JUMPDEST PUSH3 0x3B5 DUP3 PUSH3 0x1E8 JUMP JUMPDEST SWAP1 POP PUSH1 0x20 DUP2 ADD SWAP1 POP SWAP2 SWAP1 POP JUMP JUMPDEST PUSH1 0x0 JUMPDEST DUP4 DUP2 LT ISZERO PUSH3 0x3E2 JUMPI DUP1 DUP3 ADD MLOAD DUP2 DUP5 ADD MSTORE PUSH1 0x20 DUP2 ADD SWAP1 POP PUSH3 0x3C5 JUMP JUMPDEST PUSH1 0x0 DUP5 DUP5 ADD MSTORE POP POP POP POP JUMP JUMPDEST PUSH1 0x0 PUSH3 0x405 PUSH3 0x3FF DUP5 PUSH3 0x38C JUMP JUMPDEST PUSH3 0x25E JUMP JUMPDEST SWAP1 POP DUP3 DUP2 MSTORE PUSH1 0x20 DUP2 ADD DUP5 DUP5 DUP5 ADD GT ISZERO PUSH3 0x424 JUMPI PUSH3 0x423 PUSH3 0x387 JUMP JUMPDEST JUMPDEST PUSH3 0x431 DUP5 DUP3 DUP6 PUSH3 0x3C2 JUMP JUMPDEST POP SWAP4 SWAP3 POP POP POP JUMP JUMPDEST PUSH1 0x0 DUP3 PUSH1 0x1F DUP4 ADD SLT PUSH3 0x451 JUMPI PUSH3 0x450 PUSH3 0x1E3 JUMP JUMPDEST JUMPDEST DUP2 MLOAD PUSH3 0x463 DUP5 DUP3 PUSH1 0x20 DUP7 ADD PUSH3 0x3EE JUMP JUMPDEST SWAP2 POP POP SWAP3 SWAP2 POP POP JUMP JUMPDEST PUSH1 0x0 PUSH3 0x483 PUSH3 0x47D DUP5 PUSH3 0x358 JUMP JUMPDEST PUSH3 0x25E JUMP JUMPDEST SWAP1 POP DUP1 DUP4 DUP3 MSTORE PUSH1 0x20 DUP3 ADD SWAP1 POP PUSH1 0x20 DUP5 MUL DUP4 ADD DUP6 DUP2 GT ISZERO PUSH3 0x4A9 JUMPI PUSH3 0x4A8 PUSH3 0x2AC JUMP JUMPDEST JUMPDEST DUP4 JUMPDEST DUP2 DUP2 LT ISZERO PUSH3 0x4F7 JUMPI DUP1 MLOAD PUSH8 0xFFFFFFFFFFFFFFFF DUP2 GT ISZERO PUSH3 0x4D2 JUMPI PUSH3 0x4D1 PUSH3 0x1E3 JUMP JUMPDEST JUMPDEST DUP1 DUP7 ADD PUSH3 0x4E1 DUP10 DUP3 PUSH3 0x439 JUMP JUMPDEST DUP6 MSTORE PUSH1 0x20 DUP6 ADD SWAP5 POP POP POP PUSH1 0x20 DUP2 ADD SWAP1 POP PUSH3 0x4AB JUMP JUMPDEST POP POP POP SWAP4 SWAP3 POP POP POP JUMP JUMPDEST PUSH1 0x0 DUP3 PUSH1 0x1F DUP4 ADD SLT PUSH3 0x519 JUMPI PUSH3 0x518 PUSH3 0x1E3 JUMP JUMPDEST JUMPDEST DUP2 MLOAD PUSH3 0x52B DUP5 DUP3 PUSH1 0x20 DUP7 ADD PUSH3 0x46C JUMP JUMPDEST SWAP2 POP POP SWAP3 SWAP2 POP POP JUMP JUMPDEST PUSH1 0x0 DUP1 PUSH1 0x0 DUP1 PUSH1 0x80 DUP6 DUP8 SUB SLT ISZERO PUSH3 0x551 JUMPI PUSH3 0x550 PUSH3 0x19E JUMP JUMPDEST JUMPDEST PUSH1 0x0 PUSH3 0x561 DUP8 DUP3 DUP9 ADD PUSH3 0x1CC JUMP JUMPDEST SWAP5 POP POP PUSH1 0x20 PUSH3 0x574 DUP8 DUP3 DUP9 ADD PUSH3 0x1CC JUMP JUMPDEST SWAP4 POP POP PUSH1 0x40 DUP6 ADD MLOAD PUSH8 0xFFFFFFFFFFFFFFFF DUP2 GT ISZERO PUSH3 0x598 JUMPI PUSH3 0x597 PUSH3 0x1A3 JUMP JUMPDEST JUMPDEST PUSH3 0x5A6 DUP8 DUP3 DUP9 ADD PUSH3 0x325 JUMP JUMPDEST SWAP3 POP POP PUSH1 0x60 DUP6 ADD MLOAD PUSH8 0xFFFFFFFFFFFFFFFF DUP2 GT ISZERO PUSH3 0x5CA JUMPI PUSH3 0x5C9 PUSH3 0x1A3 JUMP JUMPDEST JUMPDEST PUSH3 0x5D8 DUP8 DUP3 DUP9 ADD PUSH3 0x501 JUMP JUMPDEST SWAP2 POP POP SWAP3 SWAP6 SWAP2 SWAP5 POP SWAP3 POP JUMP JUMPDEST PUSH32 0x4E487B7100000000000000000000000000000000000000000000000000000000 PUSH1 0x0 MSTORE PUSH1 0x32 PUSH1 0x4 MSTORE PUSH1 0x24 PUSH1 0x0 REVERT JUMPDEST PUSH32 0x4E487B7100000000000000000000000000000000000000000000000000000000 PUSH1 0x0 MSTORE PUSH1 0x11 PUSH1 0x4 MSTORE PUSH1 0x24 PUSH1 0x0 REVERT JUMPDEST PUSH1 0x0 PUSH3 0x64F DUP3 PUSH3 0x1A8 JUMP JUMPDEST SWAP2 POP PUSH32 0xFFFFFFFFFFFFFFFFFFFFFFFFFFFFFFFFFFFFFFFFFFFFFFFFFFFFFFFFFFFFFFFF DUP3 SUB PUSH3 0x684 JUMPI PUSH3 0x683 PUSH3 0x613 JUMP JUMPDEST JUMPDEST PUSH1 0x1 DUP3 ADD SWAP1 POP SWAP2 SWAP1 POP JUMP JUMPDEST PUSH1 0x0 DUP2 MLOAD SWAP1 POP SWAP2 SWAP1 POP JUMP JUMPDEST PUSH32 0x4E487B7100000000000000000000000000000000000000000000000000000000 PUSH1 0x0 MSTORE PUSH1 0x22 PUSH1 0x4 MSTORE PUSH1 0x24 PUSH1 0x0 REVERT JUMPDEST PUSH1 0x0 PUSH1 0x2 DUP3 DIV SWAP1 POP PUSH1 0x1 DUP3 AND DUP1 PUSH3 0x6E2 JUMPI PUSH1 0x7F DUP3 AND SWAP2 POP JUMPDEST PUSH1 0x20 DUP3 LT DUP2 SUB PUSH3 0x6F8 JUMPI PUSH3 0x6F7 PUSH3 0x69A JUMP JUMPDEST JUMPDEST POP SWAP2 SWAP1 POP JUMP JUMPDEST PUSH1 0x0 DUP2 SWAP1 POP DUP2 PUSH1 0x0 MSTORE PUSH1 0x20 PUSH1 0x0 KECCAK256 SWAP1 POP SWAP2 SWAP1 POP JUMP JUMPDEST PUSH1 0x0 PUSH1 0x20 PUSH1 0x1F DUP4 ADD DIV SWAP1 POP SWAP2 SWAP1 POP JUMP JUMPDEST PUSH1 0x0 DUP3 DUP3 SHL SWAP1 POP SWAP3 SWAP2 POP POP JUMP JUMPDEST PUSH1 0x0 PUSH1 0x8 DUP4 MUL PUSH3 0x762 PUSH32 0xFFFFFFFFFFFFFFFFFFFFFFFFFFFFFFFFFFFFFFFFFFFFFFFFFFFFFFFFFFFFFFFF DUP3 PUSH3 0x723 JUMP JUMPDEST PUSH3 0x76E DUP7 DUP4 PUSH3 0x723 JUMP JUMPDEST SWAP6 POP DUP1 NOT DUP5 AND SWAP4 POP DUP1 DUP7 AND DUP5 OR SWAP3 POP POP POP SWAP4 SWAP3 POP POP POP JUMP JUMPDEST PUSH1 0x0 DUP2 SWAP1 POP SWAP2 SWAP1 POP JUMP JUMPDEST PUSH1 0x0 PUSH3 0x7B1 PUSH3 0x7AB PUSH3 0x7A5 DUP5 PUSH3 0x1A8 JUMP JUMPDEST PUSH3 0x786 JUMP JUMPDEST PUSH3 0x1A8 JUMP JUMPDEST SWAP1 POP SWAP2 SWAP1 POP JUMP JUMPDEST PUSH1 0x0 DUP2 SWAP1 POP SWAP2 SWAP1 POP JUMP JUMPDEST PUSH3 0x7CD DUP4 PUSH3 0x790 JUMP JUMPDEST PUSH3 0x7E5 PUSH3 0x7DC DUP3 PUSH3 0x7B8 JUMP JUMPDEST DUP5 DUP5 SLOAD PUSH3 0x730 JUMP JUMPDEST DUP3 SSTORE POP POP POP POP JUMP JUMPDEST PUSH1 0x0 SWAP1 JUMP JUMPDEST PUSH3 0x7FC PUSH3 0x7ED JUMP JUMPDEST PUSH3 0x809 DUP2 DUP5 DUP5 PUSH3 0x7C2 JUMP JUMPDEST POP POP POP JUMP JUMPDEST JUMPDEST DUP2 DUP2 LT ISZERO PUSH3 0x831 JUMPI PUSH3 0x825 PUSH1 0x0 DUP3 PUSH3 0x7F2 JUMP JUMPDEST PUSH1 0x1 DUP2 ADD SWAP1 POP PUSH3 0x80F JUMP JUMPDEST POP POP JUMP JUMPDEST PUSH1 0x1F DUP3 GT ISZERO PUSH3 0x880 JUMPI PUSH3 0x84A DUP2 PUSH3 0x6FE JUMP JUMPDEST PUSH3 0x855 DUP5 PUSH3 0x713 JUMP JUMPDEST DUP2 ADD PUSH1 0x20 DUP6 LT ISZERO PUSH3 0x865 JUMPI DUP2 SWAP1 POP JUMPDEST PUSH3 0x87D PUSH3 0x874 DUP6 PUSH3 0x713 JUMP JUMPDEST DUP4 ADD DUP3 PUSH3 0x80E JUMP JUMPDEST POP POP JUMPDEST POP POP POP JUMP JUMPDEST PUSH1 0x0 DUP3 DUP3 SHR SWAP1 POP SWAP3 SWAP2 POP POP JUMP JUMPDEST PUSH1 0x0 PUSH3 0x8A5 PUSH1 0x0 NOT DUP5 PUSH1 0x8 MUL PUSH3 0x885 JUMP JUMPDEST NOT DUP1 DUP4 AND SWAP2 POP POP SWAP3 SWAP2 POP POP JUMP JUMPDEST PUSH1 0x0 PUSH3 0x8C0 DUP4 DUP4 PUSH3 0x892 JUMP JUMPDEST SWAP2 POP DUP3 PUSH1 0x2 MUL DUP3 OR SWAP1 POP SWAP3 SWAP2 POP POP JUMP JUMPDEST PUSH3 0x8DB DUP3 PUSH3 0x68F JUMP JUMPDEST PUSH8 0xFFFFFFFFFFFFFFFF DUP2 GT ISZERO PUSH3 0x8F7 JUMPI PUSH3 0x8F6 PUSH3 0x1F9 JUMP JUMPDEST JUMPDEST PUSH3 0x903 DUP3 SLOAD PUSH3 0x6C9 JUMP JUMPDEST PUSH3 0x910 DUP3 DUP3 DUP6 PUSH3 0x835 JUMP JUMPDEST PUSH1 0x0 PUSH1 0x20 SWAP1 POP PUSH1 0x1F DUP4 GT PUSH1 0x1 DUP2 EQ PUSH3 0x948 JUMPI PUSH1 0x0 DUP5 ISZERO PUSH3 0x933 JUMPI DUP3 DUP8 ADD MLOAD SWAP1 POP JUMPDEST PUSH3 0x93F DUP6 DUP3 PUSH3 0x8B2 JUMP JUMPDEST DUP7 SSTORE POP PUSH3 0x9AF JUMP JUMPDEST PUSH1 0x1F NOT DUP5 AND PUSH3 0x958 DUP7 PUSH3 0x6FE JUMP JUMPDEST PUSH1 0x0 JUMPDEST DUP3 DUP2 LT ISZERO PUSH3 0x982 JUMPI DUP5 DUP10 ADD MLOAD DUP3 SSTORE PUSH1 0x1 DUP3 ADD SWAP2 POP PUSH1 0x20 DUP6 ADD SWAP5 POP PUSH1 0x20 DUP2 ADD SWAP1 POP PUSH3 0x95B JUMP JUMPDEST DUP7 DUP4 LT ISZERO PUSH3 0x9A2 JUMPI DUP5 DUP10 ADD MLOAD PUSH3 0x99E PUSH1 0x1F DUP10 AND DUP3 PUSH3 0x892 JUMP JUMPDEST DUP4 SSTORE POP JUMPDEST PUSH1 0x1 PUSH1 0x2 DUP9 MUL ADD DUP9 SSTORE POP POP POP JUMPDEST POP POP POP POP POP POP JUMP JUMPDEST PUSH1 0x0 DUP3 DUP3 MSTORE PUSH1 0x20 DUP3 ADD SWAP1 POP SWAP3 SWAP2 POP POP JUMP JUMPDEST PUSH1 0x0 PUSH3 0x9D5 DUP3 PUSH3 0x68F JUMP JUMPDEST PUSH3 0x9E1 DUP2 DUP6 PUSH3 0x9B7 JUMP JUMPDEST SWAP4 POP PUSH3 0x9F3 DUP2 DUP6 PUSH1 0x20 DUP7 ADD PUSH3 0x3C2 JUMP JUMPDEST PUSH3 0x9FE DUP2 PUSH3 0x1E8 JUMP JUMPDEST DUP5 ADD SWAP2 POP POP SWAP3 SWAP2 POP POP JUMP JUMPDEST PUSH3 0xA14 DUP2 PUSH3 0x1A8 JUMP JUMPDEST DUP3 MSTORE POP POP JUMP JUMPDEST PUSH1 0x0 PUSH1 0x40 DUP3 ADD SWAP1 POP DUP2 DUP2 SUB PUSH1 0x0 DUP4 ADD MSTORE PUSH3 0xA36 DUP2 DUP6 PUSH3 0x9C8 JUMP JUMPDEST SWAP1 POP PUSH3 0xA47 PUSH1 0x20 DUP4 ADD DUP5 PUSH3 0xA09 JUMP JUMPDEST SWAP4 SWAP3 POP POP POP JUMP JUMPDEST PUSH2 0xF69 DUP1 PUSH3 0xA5E PUSH1 0x0 CODECOPY PUSH1 0x0 RETURN INVALID PUSH1 0x80 PUSH1 0x40 MSTORE CALLVALUE DUP1 ISZERO PUSH2 0x10 JUMPI PUSH1 0x0 DUP1 REVERT JUMPDEST POP PUSH1 0x4 CALLDATASIZE LT PUSH2 0x88 JUMPI PUSH1 0x0 CALLDATALOAD PUSH1 0xE0 SHR DUP1 PUSH4 0xB2C2F2E8 GT PUSH2 0x5B JUMPI DUP1 PUSH4 0xB2C2F2E8 EQ PUSH2 0x103 JUMPI DUP1 PUSH4 0xB6F72071 EQ PUSH2 0x133 JUMPI DUP1 PUSH4 0xE13804A7 EQ PUSH2 0x151 JUMPI DUP1 PUSH4 0xF577A500 EQ PUSH2 0x181 JUMPI PUSH2 0x88 JUMP JUMPDEST DUP1 PUSH4 0x121B93F EQ PUSH2 0x8D JUMPI DUP1 PUSH4 0x6A49FCE EQ PUSH2 0xA9 JUMPI DUP1 PUSH4 0x3192FD1B EQ PUSH2 0xC7 JUMPI DUP1 PUSH4 0x47535D7B EQ PUSH2 0xE5 JUMPI JUMPDEST PUSH1 0x0 DUP1 REVERT JUMPDEST PUSH2 0xA7 PUSH1 0x4 DUP1 CALLDATASIZE SUB DUP2 ADD SWAP1 PUSH2 0xA2 SWAP2 SWAP1 PUSH2 0x832 JUMP JUMPDEST PUSH2 0x1B1 JUMP JUMPDEST STOP JUMPDEST PUSH2 0xB1 PUSH2 0x35D JUMP JUMPDEST PUSH1 0x40 MLOAD PUSH2 0xBE SWAP2 SWAP1 PUSH2 0x8EF JUMP JUMPDEST PUSH1 0x40 MLOAD DUP1 SWAP2 SUB SWAP1 RETURN JUMPDEST PUSH2 0xCF PUSH2 0x4A1 JUMP JUMPDEST PUSH1 0x40 MLOAD PUSH2 0xDC SWAP2 SWAP1 PUSH2 0x920 JUMP JUMPDEST PUSH1 0x40 MLOAD DUP1 SWAP2 SUB SWAP1 RETURN JUMPDEST PUSH2 0xED PUSH2 0x4AB JUMP JUMPDEST PUSH1 0x40 MLOAD PUSH2 0xFA SWAP2 SWAP1 PUSH2 0x956 JUMP JUMPDEST PUSH1 0x40 MLOAD DUP1 SWAP2 SUB SWAP1 RETURN JUMPDEST PUSH2 0x11D PUSH1 0x4 DUP1 CALLDATASIZE SUB DUP2 ADD SWAP1 PUSH2 0x118 SWAP2 SWAP1 PUSH2 0x832 JUMP JUMPDEST PUSH2 0x4C6 JUMP JUMPDEST PUSH1 0x40 MLOAD PUSH2 0x12A SWAP2 SWAP1 PUSH2 0x920 JUMP JUMPDEST PUSH1 0x40 MLOAD DUP1 SWAP2 SUB SWAP1 RETURN JUMPDEST PUSH2 0x13B PUSH2 0x4F8 JUMP JUMPDEST PUSH1 0x40 MLOAD PUSH2 0x148 SWAP2 SWAP1 PUSH2 0x920 JUMP JUMPDEST PUSH1 0x40 MLOAD DUP1 SWAP2 SUB SWAP1 RETURN JUMPDEST PUSH2 0x16B PUSH1 0x4 DUP1 CALLDATASIZE SUB DUP2 ADD SWAP1 PUSH2 0x166 SWAP2 SWAP1 PUSH2 0x832 JUMP JUMPDEST PUSH2 0x502 JUMP JUMPDEST PUSH1 0x40 MLOAD PUSH2 0x178 SWAP2 SWAP1 PUSH2 0x8EF JUMP JUMPDEST PUSH1 0x40 MLOAD DUP1 SWAP2 SUB SWAP1 RETURN JUMPDEST PUSH2 0x19B PUSH1 0x4 DUP1 CALLDATASIZE SUB DUP2 ADD SWAP1 PUSH2 0x196 SWAP2 SWAP1 PUSH2 0x832 JUMP JUMPDEST PUSH2 0x5AA JUMP JUMPDEST PUSH1 0x40 MLOAD PUSH2 0x1A8 SWAP2 SWAP1 PUSH2 0x956 JUMP JUMPDEST PUSH1 0x40 MLOAD DUP1 SWAP2 SUB SWAP1 RETURN JUMPDEST PUSH2 0x1B9 PUSH2 0x4AB JUMP JUMPDEST PUSH2 0x1C2 JUMPI PUSH1 0x0 DUP1 REVERT JUMPDEST PUSH1 0x0 DUP1 CALLER PUSH20 0xFFFFFFFFFFFFFFFFFFFFFFFFFFFFFFFFFFFFFFFF AND PUSH20 0xFFFFFFFFFFFFFFFFFFFFFFFFFFFFFFFFFFFFFFFF AND DUP2 MSTORE PUSH1 0x20 ADD SWAP1 DUP2 MSTORE PUSH1 0x20 ADD PUSH1 0x0 KECCAK256 PUSH1 0x0 SWAP1 SLOAD SWAP1 PUSH2 0x100 EXP SWAP1 DIV PUSH1 0xFF AND ISZERO PUSH2 0x218 JUMPI PUSH1 0x0 DUP1 REVERT JUMPDEST PUSH1 0x0 DUP2 SUB PUSH2 0x23D JUMPI PUSH1 0x4 PUSH1 0x0 DUP2 SLOAD DUP1 SWAP3 SWAP2 SWAP1 PUSH2 0x233 SWAP1 PUSH2 0x9A0 JUMP JUMPDEST SWAP2 SWAP1 POP SSTORE POP PUSH2 0x35A JUMP JUMPDEST PUSH2 0x246 DUP2 PUSH2 0x5AA JUMP JUMPDEST PUSH2 0x267 JUMPI PUSH1 0x3 PUSH1 0x0 DUP2 SLOAD DUP1 SWAP3 SWAP2 SWAP1 PUSH2 0x25D SWAP1 PUSH2 0x9A0 JUMP JUMPDEST SWAP2 SWAP1 POP SSTORE POP PUSH2 0x35A JUMP JUMPDEST PUSH32 0x8ABC02D87B9BD0C57B0B90286D8D023455310D7406AFE4BCD25EFF1079813DDA PUSH1 0x1 PUSH1 0x40 MLOAD PUSH2 0x297 SWAP2 SWAP1 PUSH2 0x956 JUMP JUMPDEST PUSH1 0x40 MLOAD DUP1 SWAP2 SUB SWAP1 LOG1 PUSH1 0x1 PUSH1 0x0 DUP1 CALLER PUSH20 0xFFFFFFFFFFFFFFFFFFFFFFFFFFFFFFFFFFFFFFFF AND PUSH20 0xFFFFFFFFFFFFFFFFFFFFFFFFFFFFFFFFFFFFFFFF AND DUP2 MSTORE PUSH1 0x20 ADD SWAP1 DUP2 MSTORE PUSH1 0x20 ADD PUSH1 0x0 KECCAK256 PUSH1 0x0 PUSH2 0x100 EXP DUP2 SLOAD DUP2 PUSH1 0xFF MUL NOT AND SWAP1 DUP4 ISZERO ISZERO MUL OR SWAP1 SSTORE POP PUSH1 0x1 PUSH1 0x0 DUP3 DUP2 MSTORE PUSH1 0x20 ADD SWAP1 DUP2 MSTORE PUSH1 0x20 ADD PUSH1 0x0 KECCAK256 PUSH1 0x2 ADD PUSH1 0x0 DUP2 SLOAD DUP1 SWAP3 SWAP2 SWAP1 PUSH2 0x31D SWAP1 PUSH2 0x9A0 JUMP JUMPDEST SWAP2 SWAP1 POP SSTORE POP PUSH32 0xC13D3F1B1493730C46ADD68F1AB21F9FFDC46A9D73FB17DC8647B0CEEC258E88 CALLER PUSH1 0x40 MLOAD PUSH2 0x351 SWAP2 SWAP1 PUSH2 0xA29 JUMP JUMPDEST PUSH1 0x40 MLOAD DUP1 SWAP2 SUB SWAP1 LOG1 JUMPDEST POP JUMP JUMPDEST PUSH1 0x60 PUSH1 0x0 PUSH1 0x40 MLOAD DUP1 PUSH1 0x40 ADD PUSH1 0x40 MSTORE DUP1 PUSH1 0x1 DUP2 MSTORE PUSH1 0x20 ADD PUSH32 0x5B00000000000000000000000000000000000000000000000000000000000000 DUP2 MSTORE POP SWAP1 POP PUSH1 0x0 JUMPDEST PUSH1 0x2 DUP1 SLOAD SWAP1 POP DUP2 LT ISZERO PUSH2 0x477 JUMPI DUP2 PUSH2 0x3D1 PUSH1 0x2 DUP4 DUP2 SLOAD DUP2 LT PUSH2 0x3C1 JUMPI PUSH2 0x3C0 PUSH2 0xA44 JUMP JUMPDEST JUMPDEST SWAP1 PUSH1 0x0 MSTORE PUSH1 0x20 PUSH1 0x0 KECCAK256 ADD SLOAD PUSH2 0x616 JUMP JUMPDEST PUSH1 0x1 PUSH1 0x0 PUSH1 0x2 DUP6 DUP2 SLOAD DUP2 LT PUSH2 0x3E9 JUMPI PUSH2 0x3E8 PUSH2 0xA44 JUMP JUMPDEST JUMPDEST SWAP1 PUSH1 0x0 MSTORE PUSH1 0x20 PUSH1 0x0 KECCAK256 ADD SLOAD DUP2 MSTORE PUSH1 0x20 ADD SWAP1 DUP2 MSTORE PUSH1 0x20 ADD PUSH1 0x0 KECCAK256 PUSH1 0x1 ADD PUSH1 0x40 MLOAD PUSH1 0x20 ADD PUSH2 0x417 SWAP4 SWAP3 SWAP2 SWAP1 PUSH2 0xC8B JUMP JUMPDEST PUSH1 0x40 MLOAD PUSH1 0x20 DUP2 DUP4 SUB SUB DUP2 MSTORE SWAP1 PUSH1 0x40 MSTORE SWAP2 POP PUSH1 0x1 PUSH1 0x2 DUP1 SLOAD SWAP1 POP PUSH2 0x43A SWAP2 SWAP1 PUSH2 0xCDD JUMP JUMPDEST DUP2 LT ISZERO PUSH2 0x464 JUMPI DUP2 PUSH1 0x40 MLOAD PUSH1 0x20 ADD PUSH2 0x452 SWAP2 SWAP1 PUSH2 0xD5D JUMP JUMPDEST PUSH1 0x40 MLOAD PUSH1 0x20 DUP2 DUP4 SUB SUB DUP2 MSTORE SWAP1 PUSH1 0x40 MSTORE SWAP2 POP JUMPDEST DUP1 DUP1 PUSH2 0x46F SWAP1 PUSH2 0x9A0 JUMP JUMPDEST SWAP2 POP POP PUSH2 0x39C JUMP JUMPDEST POP DUP1 PUSH1 0x40 MLOAD PUSH1 0x20 ADD PUSH2 0x489 SWAP2 SWAP1 PUSH2 0xDCB JUMP JUMPDEST PUSH1 0x40 MLOAD PUSH1 0x20 DUP2 DUP4 SUB SUB DUP2 MSTORE SWAP1 PUSH1 0x40 MSTORE SWAP1 POP DUP1 SWAP2 POP POP SWAP1 JUMP JUMPDEST PUSH1 0x0 PUSH1 0x3 SLOAD SWAP1 POP SWAP1 JUMP JUMPDEST PUSH1 0x0 PUSH1 0x5 SLOAD TIMESTAMP LT ISZERO DUP1 ISZERO PUSH2 0x4C1 JUMPI POP PUSH1 0x6 SLOAD TIMESTAMP GT ISZERO JUMPDEST SWAP1 POP SWAP1 JUMP JUMPDEST PUSH1 0x0 PUSH2 0x4D1 DUP3 PUSH2 0x5AA JUMP JUMPDEST PUSH2 0x4DA JUMPI PUSH1 0x0 DUP1 REVERT JUMPDEST PUSH1 0x1 PUSH1 0x0 DUP4 DUP2 MSTORE PUSH1 0x20 ADD SWAP1 DUP2 MSTORE PUSH1 0x20 ADD PUSH1 0x0 KECCAK256 PUSH1 0x2 ADD SLOAD SWAP1 POP SWAP2 SWAP1 POP JUMP JUMPDEST PUSH1 0x0 PUSH1 0x4 SLOAD SWAP1 POP SWAP1 JUMP JUMPDEST PUSH1 0x60 PUSH1 0x1 PUSH1 0x0 DUP4 DUP2 MSTORE PUSH1 0x20 ADD SWAP1 DUP2 MSTORE PUSH1 0x20 ADD PUSH1 0x0 KECCAK256 PUSH1 0x1 ADD DUP1 SLOAD PUSH2 0x525 SWAP1 PUSH2 0xB76 JUMP JUMPDEST DUP1 PUSH1 0x1F ADD PUSH1 0x20 DUP1 SWAP2 DIV MUL PUSH1 0x20 ADD PUSH1 0x40 MLOAD SWAP1 DUP2 ADD PUSH1 0x40 MSTORE DUP1 SWAP3 SWAP2 SWAP1 DUP2 DUP2 MSTORE PUSH1 0x20 ADD DUP3 DUP1 SLOAD PUSH2 0x551 SWAP1 PUSH2 0xB76 JUMP JUMPDEST DUP1 ISZERO PUSH2 0x59E JUMPI DUP1 PUSH1 0x1F LT PUSH2 0x573 JUMPI PUSH2 0x100 DUP1 DUP4 SLOAD DIV MUL DUP4 MSTORE SWAP2 PUSH1 0x20 ADD SWAP2 PUSH2 0x59E JUMP JUMPDEST DUP3 ADD SWAP2 SWAP1 PUSH1 0x0 MSTORE PUSH1 0x20 PUSH1 0x0 KECCAK256 SWAP1 JUMPDEST DUP2 SLOAD DUP2 MSTORE SWAP1 PUSH1 0x1 ADD SWAP1 PUSH1 0x20 ADD DUP1 DUP4 GT PUSH2 0x581 JUMPI DUP3 SWAP1 SUB PUSH1 0x1F AND DUP3 ADD SWAP2 JUMPDEST POP POP POP POP POP SWAP1 POP SWAP2 SWAP1 POP JUMP JUMPDEST PUSH1 0x0 PUSH1 0x40 MLOAD PUSH1 0x20 ADD PUSH2 0x5BB SWAP1 PUSH2 0xE13 JUMP JUMPDEST PUSH1 0x40 MLOAD PUSH1 0x20 DUP2 DUP4 SUB SUB DUP2 MSTORE SWAP1 PUSH1 0x40 MSTORE DUP1 MLOAD SWAP1 PUSH1 0x20 ADD KECCAK256 PUSH1 0x1 PUSH1 0x0 DUP5 DUP2 MSTORE PUSH1 0x20 ADD SWAP1 DUP2 MSTORE PUSH1 0x20 ADD PUSH1 0x0 KECCAK256 PUSH1 0x1 ADD PUSH1 0x40 MLOAD PUSH1 0x20 ADD PUSH2 0x5F7 SWAP2 SWAP1 PUSH2 0xE28 JUMP JUMPDEST PUSH1 0x40 MLOAD PUSH1 0x20 DUP2 DUP4 SUB SUB DUP2 MSTORE SWAP1 PUSH1 0x40 MSTORE DUP1 MLOAD SWAP1 PUSH1 0x20 ADD KECCAK256 EQ ISZERO SWAP1 POP SWAP2 SWAP1 POP JUMP JUMPDEST PUSH1 0x60 PUSH1 0x0 PUSH1 0x64 SWAP1 POP PUSH1 0x0 DUP2 PUSH8 0xFFFFFFFFFFFFFFFF DUP2 GT ISZERO PUSH2 0x63A JUMPI PUSH2 0x639 PUSH2 0xE3F JUMP JUMPDEST JUMPDEST PUSH1 0x40 MLOAD SWAP1 DUP1 DUP3 MSTORE DUP1 PUSH1 0x1F ADD PUSH1 0x1F NOT AND PUSH1 0x20 ADD DUP3 ADD PUSH1 0x40 MSTORE DUP1 ISZERO PUSH2 0x66C JUMPI DUP2 PUSH1 0x20 ADD PUSH1 0x1 DUP3 MUL DUP1 CALLDATASIZE DUP4 CALLDATACOPY DUP1 DUP3 ADD SWAP2 POP POP SWAP1 POP JUMPDEST POP SWAP1 POP PUSH1 0x0 JUMPDEST PUSH1 0x0 DUP6 EQ PUSH2 0x6FE JUMPI PUSH1 0x0 PUSH1 0xA DUP7 PUSH2 0x689 SWAP2 SWAP1 PUSH2 0xE9D JUMP JUMPDEST SWAP1 POP PUSH1 0xA DUP7 PUSH2 0x698 SWAP2 SWAP1 PUSH2 0xECE JUMP JUMPDEST SWAP6 POP DUP1 PUSH1 0x30 PUSH2 0x6A7 SWAP2 SWAP1 PUSH2 0xEFF JUMP JUMPDEST PUSH1 0xF8 SHL DUP4 DUP4 DUP1 PUSH2 0x6B6 SWAP1 PUSH2 0x9A0 JUMP JUMPDEST SWAP5 POP DUP2 MLOAD DUP2 LT PUSH2 0x6C9 JUMPI PUSH2 0x6C8 PUSH2 0xA44 JUMP JUMPDEST JUMPDEST PUSH1 0x20 ADD ADD SWAP1 PUSH31 0xFFFFFFFFFFFFFFFFFFFFFFFFFFFFFFFFFFFFFFFFFFFFFFFFFFFFFFFFFFFFFF NOT AND SWAP1 DUP2 PUSH1 0x0 BYTE SWAP1 MSTORE8 POP POP PUSH2 0x672 JUMP JUMPDEST PUSH1 0x0 DUP2 PUSH8 0xFFFFFFFFFFFFFFFF DUP2 GT ISZERO PUSH2 0x71A JUMPI PUSH2 0x719 PUSH2 0xE3F JUMP JUMPDEST JUMPDEST PUSH1 0x40 MLOAD SWAP1 DUP1 DUP3 MSTORE DUP1 PUSH1 0x1F ADD PUSH1 0x1F NOT AND PUSH1 0x20 ADD DUP3 ADD PUSH1 0x40 MSTORE DUP1 ISZERO PUSH2 0x74C JUMPI DUP2 PUSH1 0x20 ADD PUSH1 0x1 DUP3 MUL DUP1 CALLDATASIZE DUP4 CALLDATACOPY DUP1 DUP3 ADD SWAP2 POP POP SWAP1 POP JUMPDEST POP SWAP1 POP PUSH1 0x0 JUMPDEST DUP3 DUP2 LT ISZERO PUSH2 0x7E4 JUMPI DUP4 PUSH1 0x1 DUP3 DUP6 PUSH2 0x769 SWAP2 SWAP1 PUSH2 0xCDD JUMP JUMPDEST PUSH2 0x773 SWAP2 SWAP1 PUSH2 0xCDD JUMP JUMPDEST DUP2 MLOAD DUP2 LT PUSH2 0x784 JUMPI PUSH2 0x783 PUSH2 0xA44 JUMP JUMPDEST JUMPDEST PUSH1 0x20 ADD ADD MLOAD PUSH1 0xF8 SHR PUSH1 0xF8 SHL DUP3 DUP3 DUP2 MLOAD DUP2 LT PUSH2 0x7A2 JUMPI PUSH2 0x7A1 PUSH2 0xA44 JUMP JUMPDEST JUMPDEST PUSH1 0x20 ADD ADD SWAP1 PUSH31 0xFFFFFFFFFFFFFFFFFFFFFFFFFFFFFFFFFFFFFFFFFFFFFFFFFFFFFFFFFFFFFF NOT AND SWAP1 DUP2 PUSH1 0x0 BYTE SWAP1 MSTORE8 POP DUP1 DUP1 PUSH2 0x7DC SWAP1 PUSH2 0x9A0 JUMP JUMPDEST SWAP2 POP POP PUSH2 0x752 JUMP JUMPDEST POP PUSH1 0x0 DUP2 SWAP1 POP DUP1 SWAP6 POP POP POP POP POP POP SWAP2 SWAP1 POP JUMP JUMPDEST PUSH1 0x0 DUP1 REVERT JUMPDEST PUSH1 0x0 DUP2 SWAP1 POP SWAP2 SWAP1 POP JUMP JUMPDEST PUSH2 0x80F DUP2 PUSH2 0x7FC JUMP JUMPDEST DUP2 EQ PUSH2 0x81A JUMPI PUSH1 0x0 DUP1 REVERT JUMPDEST POP JUMP JUMPDEST PUSH1 0x0 DUP2 CALLDATALOAD SWAP1 POP PUSH2 0x82C DUP2 PUSH2 0x806 JUMP JUMPDEST SWAP3 SWAP2 POP POP JUMP JUMPDEST PUSH1 0x0 PUSH1 0x20 DUP3 DUP5 SUB SLT ISZERO PUSH2 0x848 JUMPI PUSH2 0x847 PUSH2 0x7F7 JUMP JUMPDEST JUMPDEST PUSH1 0x0 PUSH2 0x856 DUP5 DUP3 DUP6 ADD PUSH2 0x81D JUMP JUMPDEST SWAP2 POP POP SWAP3 SWAP2 POP POP JUMP JUMPDEST PUSH1 0x0 DUP2 MLOAD SWAP1 POP SWAP2 SWAP1 POP JUMP JUMPDEST PUSH1 0x0 DUP3 DUP3 MSTORE PUSH1 0x20 DUP3 ADD SWAP1 POP SWAP3 SWAP2 POP POP JUMP JUMPDEST PUSH1 0x0 JUMPDEST DUP4 DUP2 LT ISZERO PUSH2 0x899 JUMPI DUP1 DUP3 ADD MLOAD DUP2 DUP5 ADD MSTORE PUSH1 0x20 DUP2 ADD SWAP1 POP PUSH2 0x87E JUMP JUMPDEST PUSH1 0x0 DUP5 DUP5 ADD MSTORE POP POP POP POP JUMP JUMPDEST PUSH1 0x0 PUSH1 0x1F NOT PUSH1 0x1F DUP4 ADD AND SWAP1 POP SWAP2 SWAP1 POP JUMP JUMPDEST PUSH1 0x0 PUSH2 0x8C1 DUP3 PUSH2 0x85F JUMP JUMPDEST PUSH2 0x8CB DUP2 DUP6 PUSH2 0x86A JUMP JUMPDEST SWAP4 POP PUSH2 0x8DB DUP2 DUP6 PUSH1 0x20 DUP7 ADD PUSH2 0x87B JUMP JUMPDEST PUSH2 0x8E4 DUP2 PUSH2 0x8A5 JUMP JUMPDEST DUP5 ADD SWAP2 POP POP SWAP3 SWAP2 POP POP JUMP JUMPDEST PUSH1 0x0 PUSH1 0x20 DUP3 ADD SWAP1 POP DUP2 DUP2 SUB PUSH1 0x0 DUP4 ADD MSTORE PUSH2 0x909 DUP2 DUP5 PUSH2 0x8B6 JUMP JUMPDEST SWAP1 POP SWAP3 SWAP2 POP POP JUMP JUMPDEST PUSH2 0x91A DUP2 PUSH2 0x7FC JUMP JUMPDEST DUP3 MSTORE POP POP JUMP JUMPDEST PUSH1 0x0 PUSH1 0x20 DUP3 ADD SWAP1 POP PUSH2 0x935 PUSH1 0x0 DUP4 ADD DUP5 PUSH2 0x911 JUMP JUMPDEST SWAP3 SWAP2 POP POP JUMP JUMPDEST PUSH1 0x0 DUP2 ISZERO ISZERO SWAP1 POP SWAP2 SWAP1 POP JUMP JUMPDEST PUSH2 0x950 DUP2 PUSH2 0x93B JUMP JUMPDEST DUP3 MSTORE POP POP JUMP JUMPDEST PUSH1 0x0 PUSH1 0x20 DUP3 ADD SWAP1 POP PUSH2 0x96B PUSH1 0x0 DUP4 ADD DUP5 PUSH2 0x947 JUMP JUMPDEST SWAP3 SWAP2 POP POP JUMP JUMPDEST PUSH32 0x4E487B7100000000000000000000000000000000000000000000000000000000 PUSH1 0x0 MSTORE PUSH1 0x11 PUSH1 0x4 MSTORE PUSH1 0x24 PUSH1 0x0 REVERT JUMPDEST PUSH1 0x0 PUSH2 0x9AB DUP3 PUSH2 0x7FC JUMP JUMPDEST SWAP2 POP PUSH32 0xFFFFFFFFFFFFFFFFFFFFFFFFFFFFFFFFFFFFFFFFFFFFFFFFFFFFFFFFFFFFFFFF DUP3 SUB PUSH2 0x9DD JUMPI PUSH2 0x9DC PUSH2 0x971 JUMP JUMPDEST JUMPDEST PUSH1 0x1 DUP3 ADD SWAP1 POP SWAP2 SWAP1 POP JUMP JUMPDEST PUSH1 0x0 PUSH20 0xFFFFFFFFFFFFFFFFFFFFFFFFFFFFFFFFFFFFFFFF DUP3 AND SWAP1 POP SWAP2 SWAP1 POP JUMP JUMPDEST PUSH1 0x0 PUSH2 0xA13 DUP3 PUSH2 0x9E8 JUMP JUMPDEST SWAP1 POP SWAP2 SWAP1 POP JUMP JUMPDEST PUSH2 0xA23 DUP2 PUSH2 0xA08 JUMP JUMPDEST DUP3 MSTORE POP POP JUMP JUMPDEST PUSH1 0x0 PUSH1 0x20 DUP3 ADD SWAP1 POP PUSH2 0xA3E PUSH1 0x0 DUP4 ADD DUP5 PUSH2 0xA1A JUMP JUMPDEST SWAP3 SWAP2 POP POP JUMP JUMPDEST PUSH32 0x4E487B7100000000000000000000000000000000000000000000000000000000 PUSH1 0x0 MSTORE PUSH1 0x32 PUSH1 0x4 MSTORE PUSH1 0x24 PUSH1 0x0 REVERT JUMPDEST PUSH1 0x0 DUP2 SWAP1 POP SWAP3 SWAP2 POP POP JUMP JUMPDEST PUSH1 0x0 PUSH2 0xA89 DUP3 PUSH2 0x85F JUMP JUMPDEST PUSH2 0xA93 DUP2 DUP6 PUSH2 0xA73 JUMP JUMPDEST SWAP4 POP PUSH2 0xAA3 DUP2 DUP6 PUSH1 0x20 DUP7 ADD PUSH2 0x87B JUMP JUMPDEST DUP1 DUP5 ADD SWAP2 POP POP SWAP3 SWAP2 POP POP JUMP JUMPDEST PUSH32 0x7B226964223A0000000000000000000000000000000000000000000000000000 PUSH1 0x0 DUP3 ADD MSTORE POP JUMP JUMPDEST PUSH1 0x0 PUSH2 0xAE5 PUSH1 0x6 DUP4 PUSH2 0xA73 JUMP JUMPDEST SWAP2 POP PUSH2 0xAF0 DUP3 PUSH2 0xAAF JUMP JUMPDEST PUSH1 0x6 DUP3 ADD SWAP1 POP SWAP2 SWAP1 POP JUMP JUMPDEST PUSH32 0x2C226E616D65223A220000000000000000000000000000000000000000000000 PUSH1 0x0 DUP3 ADD MSTORE POP JUMP JUMPDEST PUSH1 0x0 PUSH2 0xB31 PUSH1 0x9 DUP4 PUSH2 0xA73 JUMP JUMPDEST SWAP2 POP PUSH2 0xB3C DUP3 PUSH2 0xAFB JUMP JUMPDEST PUSH1 0x9 DUP3 ADD SWAP1 POP SWAP2 SWAP1 POP JUMP JUMPDEST PUSH32 0x4E487B7100000000000000000000000000000000000000000000000000000000 PUSH1 0x0 MSTORE PUSH1 0x22 PUSH1 0x4 MSTORE PUSH1 0x24 PUSH1 0x0 REVERT JUMPDEST PUSH1 0x0 PUSH1 0x2 DUP3 DIV SWAP1 POP PUSH1 0x1 DUP3 AND DUP1 PUSH2 0xB8E JUMPI PUSH1 0x7F DUP3 AND SWAP2 POP JUMPDEST PUSH1 0x20 DUP3 LT DUP2 SUB PUSH2 0xBA1 JUMPI PUSH2 0xBA0 PUSH2 0xB47 JUMP JUMPDEST JUMPDEST POP SWAP2 SWAP1 POP JUMP JUMPDEST PUSH1 0x0 DUP2 SWAP1 POP DUP2 PUSH1 0x0 MSTORE PUSH1 0x20 PUSH1 0x0 KECCAK256 SWAP1 POP SWAP2 SWAP1 POP JUMP JUMPDEST PUSH1 0x0 DUP2 SLOAD PUSH2 0xBC9 DUP2 PUSH2 0xB76 JUMP JUMPDEST PUSH2 0xBD3 DUP2 DUP7 PUSH2 0xA73 JUMP JUMPDEST SWAP5 POP PUSH1 0x1 DUP3 AND PUSH1 0x0 DUP2 EQ PUSH2 0xBEE JUMPI PUSH1 0x1 DUP2 EQ PUSH2 0xC03 JUMPI PUSH2 0xC36 JUMP JUMPDEST PUSH1 0xFF NOT DUP4 AND DUP7 MSTORE DUP2 ISZERO ISZERO DUP3 MUL DUP7 ADD SWAP4 POP PUSH2 0xC36 JUMP JUMPDEST PUSH2 0xC0C DUP6 PUSH2 0xBA7 JUMP JUMPDEST PUSH1 0x0 JUMPDEST DUP4 DUP2 LT ISZERO PUSH2 0xC2E JUMPI DUP2 SLOAD DUP2 DUP10 ADD MSTORE PUSH1 0x1 DUP3 ADD SWAP2 POP PUSH1 0x20 DUP2 ADD SWAP1 POP PUSH2 0xC0F JUMP JUMPDEST DUP4 DUP9 ADD SWAP6 POP POP POP JUMPDEST POP POP POP SWAP3 SWAP2 POP POP JUMP JUMPDEST PUSH32 0x227D000000000000000000000000000000000000000000000000000000000000 PUSH1 0x0 DUP3 ADD MSTORE POP JUMP JUMPDEST PUSH1 0x0 PUSH2 0xC75 PUSH1 0x2 DUP4 PUSH2 0xA73 JUMP JUMPDEST SWAP2 POP PUSH2 0xC80 DUP3 PUSH2 0xC3F JUMP JUMPDEST PUSH1 0x2 DUP3 ADD SWAP1 POP SWAP2 SWAP1 POP JUMP JUMPDEST PUSH1 0x0 PUSH2 0xC97 DUP3 DUP7 PUSH2 0xA7E JUMP JUMPDEST SWAP2 POP PUSH2 0xCA2 DUP3 PUSH2 0xAD8 JUMP JUMPDEST SWAP2 POP PUSH2 0xCAE DUP3 DUP6 PUSH2 0xA7E JUMP JUMPDEST SWAP2 POP PUSH2 0xCB9 DUP3 PUSH2 0xB24 JUMP JUMPDEST SWAP2 POP PUSH2 0xCC5 DUP3 DUP5 PUSH2 0xBBC JUMP JUMPDEST SWAP2 POP PUSH2 0xCD0 DUP3 PUSH2 0xC68 JUMP JUMPDEST SWAP2 POP DUP2 SWAP1 POP SWAP5 SWAP4 POP POP POP POP JUMP JUMPDEST PUSH1 0x0 PUSH2 0xCE8 DUP3 PUSH2 0x7FC JUMP JUMPDEST SWAP2 POP PUSH2 0xCF3 DUP4 PUSH2 0x7FC JUMP JUMPDEST SWAP3 POP DUP3 DUP3 SUB SWAP1 POP DUP2 DUP2 GT ISZERO PUSH2 0xD0B JUMPI PUSH2 0xD0A PUSH2 0x971 JUMP JUMPDEST JUMPDEST SWAP3 SWAP2 POP POP JUMP JUMPDEST PUSH32 0x2C00000000000000000000000000000000000000000000000000000000000000 PUSH1 0x0 DUP3 ADD MSTORE POP JUMP JUMPDEST PUSH1 0x0 PUSH2 0xD47 PUSH1 0x1 DUP4 PUSH2 0xA73 JUMP JUMPDEST SWAP2 POP PUSH2 0xD52 DUP3 PUSH2 0xD11 JUMP JUMPDEST PUSH1 0x1 DUP3 ADD SWAP1 POP SWAP2 SWAP1 POP JUMP JUMPDEST PUSH1 0x0 PUSH2 0xD69 DUP3 DUP5 PUSH2 0xA7E JUMP JUMPDEST SWAP2 POP PUSH2 0xD74 DUP3 PUSH2 0xD3A JUMP JUMPDEST SWAP2 POP DUP2 SWAP1 POP SWAP3 SWAP2 POP POP JUMP JUMPDEST PUSH32 0x5D00000000000000000000000000000000000000000000000000000000000000 PUSH1 0x0 DUP3 ADD MSTORE POP JUMP JUMPDEST PUSH1 0x0 PUSH2 0xDB5 PUSH1 0x1 DUP4 PUSH2 0xA73 JUMP JUMPDEST SWAP2 POP PUSH2 0xDC0 DUP3 PUSH2 0xD7F JUMP JUMPDEST PUSH1 0x1 DUP3 ADD SWAP1 POP SWAP2 SWAP1 POP JUMP JUMPDEST PUSH1 0x0 PUSH2 0xDD7 DUP3 DUP5 PUSH2 0xA7E JUMP JUMPDEST SWAP2 POP PUSH2 0xDE2 DUP3 PUSH2 0xDA8 JUMP JUMPDEST SWAP2 POP DUP2 SWAP1 POP SWAP3 SWAP2 POP POP JUMP JUMPDEST POP JUMP JUMPDEST PUSH1 0x0 PUSH2 0xDFD PUSH1 0x0 DUP4 PUSH2 0xA73 JUMP JUMPDEST SWAP2 POP PUSH2 0xE08 DUP3 PUSH2 0xDED JUMP JUMPDEST PUSH1 0x0 DUP3 ADD SWAP1 POP SWAP2 SWAP1 POP JUMP JUMPDEST PUSH1 0x0 PUSH2 0xE1E DUP3 PUSH2 0xDF0 JUMP JUMPDEST SWAP2 POP DUP2 SWAP1 POP SWAP2 SWAP1 POP JUMP JUMPDEST PUSH1 0x0 PUSH2 0xE34 DUP3 DUP5 PUSH2 0xBBC JUMP JUMPDEST SWAP2 POP DUP2 SWAP1 POP SWAP3 SWAP2 POP POP JUMP JUMPDEST PUSH32 0x4E487B7100000000000000000000000000000000000000000000000000000000 PUSH1 0x0 MSTORE PUSH1 0x41 PUSH1 0x4 MSTORE PUSH1 0x24 PUSH1 0x0 REVERT JUMPDEST PUSH32 0x4E487B7100000000000000000000000000000000000000000000000000000000 PUSH1 0x0 MSTORE PUSH1 0x12 PUSH1 0x4 MSTORE PUSH1 0x24 PUSH1 0x0 REVERT JUMPDEST PUSH1 0x0 PUSH2 0xEA8 DUP3 PUSH2 0x7FC JUMP JUMPDEST SWAP2 POP PUSH2 0xEB3 DUP4 PUSH2 0x7FC JUMP JUMPDEST SWAP3 POP DUP3 PUSH2 0xEC3 JUMPI PUSH2 0xEC2 PUSH2 0xE6E JUMP JUMPDEST JUMPDEST DUP3 DUP3 MOD SWAP1 POP SWAP3 SWAP2 POP POP JUMP JUMPDEST PUSH1 0x0 PUSH2 0xED9 DUP3 PUSH2 0x7FC JUMP JUMPDEST SWAP2 POP PUSH2 0xEE4 DUP4 PUSH2 0x7FC JUMP JUMPDEST SWAP3 POP DUP3 PUSH2 0xEF4 JUMPI PUSH2 0xEF3 PUSH2 0xE6E JUMP JUMPDEST JUMPDEST DUP3 DUP3 DIV SWAP1 POP SWAP3 SWAP2 POP POP JUMP JUMPDEST PUSH1 0x0 PUSH2 0xF0A DUP3 PUSH2 0x7FC JUMP JUMPDEST SWAP2 POP PUSH2 0xF15 DUP4 PUSH2 0x7FC JUMP JUMPDEST SWAP3 POP DUP3 DUP3 ADD SWAP1 POP DUP1 DUP3 GT ISZERO PUSH2 0xF2D JUMPI PUSH2 0xF2C PUSH2 0x971 JUMP JUMPDEST JUMPDEST SWAP3 SWAP2 POP POP JUMP INVALID LOG2 PUSH5 0x6970667358 0x22 SLT KECCAK256 SDIV DUP8 0x2D STATICCALL 0xBF DUP6 0xC9 SWAP15 PUSH21 0xB3C72ECEB29B610B13E7E911786B10E173B91520CD PC CALL PUSH5 0x736F6C6343 STOP ADDMOD SLT STOP CALLER "
				},
				"gasEstimates": {
					"creation": {
						"codeDepositCost": "789000",
						"executionCost": "infinite",
						"totalCost": "infinite"
					},
					"external": {
						"getBlankVotes()": "2459",
						"getCandidateName(uint256)": "infinite",
						"getCandidates()": "infinite",
						"getNullVotes()": "2482",
						"getVoteCount(uint256)": "infinite",
						"isOpen()": "4651",
						"isValid(uint256)": "infinite",
						"vote(uint256)": "infinite"
					},
					"internal": {
						"addCandidate(uint256,string memory)": "infinite",
						"uint2str(uint256)": "infinite"
					}
				},
				"methodIdentifiers": {
					"getBlankVotes()": "b6f72071",
					"getCandidateName(uint256)": "e13804a7",
					"getCandidates()": "06a49fce",
					"getNullVotes()": "3192fd1b",
					"getVoteCount(uint256)": "b2c2f2e8",
					"isOpen()": "47535d7b",
					"isValid(uint256)": "f577a500",
					"vote(uint256)": "0121b93f"
				}
			},
			"storageLayout": {
				"storage": [
					{
						"astId": 12,
						"contract": "Voting.sol:Voting",
						"label": "voters",
						"offset": 0,
						"slot": "0",
						"type": "t_mapping(t_address,t_bool)"
					},
					{
						"astId": 17,
						"contract": "Voting.sol:Voting",
						"label": "candidates",
						"offset": 0,
						"slot": "1",
						"type": "t_mapping(t_uint256,t_struct(Candidate)8_storage)"
					},
					{
						"astId": 20,
						"contract": "Voting.sol:Voting",
						"label": "candidateIds",
						"offset": 0,
						"slot": "2",
						"type": "t_array(t_uint256)dyn_storage"
					},
					{
						"astId": 22,
						"contract": "Voting.sol:Voting",
						"label": "nullVotes",
						"offset": 0,
						"slot": "3",
						"type": "t_uint256"
					},
					{
						"astId": 24,
						"contract": "Voting.sol:Voting",
						"label": "blankVotes",
						"offset": 0,
						"slot": "4",
						"type": "t_uint256"
					},
					{
						"astId": 26,
						"contract": "Voting.sol:Voting",
						"label": "startTime",
						"offset": 0,
						"slot": "5",
						"type": "t_uint256"
					},
					{
						"astId": 28,
						"contract": "Voting.sol:Voting",
						"label": "endTime",
						"offset": 0,
						"slot": "6",
						"type": "t_uint256"
					}
				],
				"types": {
					"t_address": {
						"encoding": "inplace",
						"label": "address",
						"numberOfBytes": "20"
					},
					"t_array(t_uint256)dyn_storage": {
						"base": "t_uint256",
						"encoding": "dynamic_array",
						"label": "uint256[]",
						"numberOfBytes": "32"
					},
					"t_bool": {
						"encoding": "inplace",
						"label": "bool",
						"numberOfBytes": "1"
					},
					"t_mapping(t_address,t_bool)": {
						"encoding": "mapping",
						"key": "t_address",
						"label": "mapping(address => bool)",
						"numberOfBytes": "32",
						"value": "t_bool"
					},
					"t_mapping(t_uint256,t_struct(Candidate)8_storage)": {
						"encoding": "mapping",
						"key": "t_uint256",
						"label": "mapping(uint256 => struct Voting.Candidate)",
						"numberOfBytes": "32",
						"value": "t_struct(Candidate)8_storage"
					},
					"t_string_storage": {
						"encoding": "bytes",
						"label": "string",
						"numberOfBytes": "32"
					},
					"t_struct(Candidate)8_storage": {
						"encoding": "inplace",
						"label": "struct Voting.Candidate",
						"members": [
							{
								"astId": 3,
								"contract": "Voting.sol:Voting",
								"label": "id",
								"offset": 0,
								"slot": "0",
								"type": "t_uint256"
							},
							{
								"astId": 5,
								"contract": "Voting.sol:Voting",
								"label": "name",
								"offset": 0,
								"slot": "1",
								"type": "t_string_storage"
							},
							{
								"astId": 7,
								"contract": "Voting.sol:Voting",
								"label": "voteCount",
								"offset": 0,
								"slot": "2",
								"type": "t_uint256"
							}
						],
						"numberOfBytes": "96"
					},
					"t_uint256": {
						"encoding": "inplace",
						"label": "uint256",
						"numberOfBytes": "32"
					}
				}
			},
			"userdoc": {
				"kind": "user",
				"methods": {},
				"version": 1
			}
		}
	}
}